:100000000C94A7020C94EE020C94EE020C94EE02F7
:100010000C94EE020C94EE020C94EE020C94EE02A0
:100020000C94EE020C94EE020C9454280C942629A5
:100030000C94AE1E0C94EE020C94EE020C94EE02A4
:100040000C94EE020C94EE020C94EE020C94EE0270
:100050000C94EE020C94161F0C94EE020C94EE021B
:100060000C94EE020C94EE020C94EE020C94EE0250
:100070000C94EE020C94EE020C94EE020C94EE0240
:100080000C94EE020C94EE020C94EE020C94EE0230
:100090000C94EE020C94EE020C94EE020C94EE0220
:1000A0000C94EE020C94EE020C94EE02430545050E
:1000B0005005470549054B054D054F0552055405AB
:1000C0005605610558055A055C055E056005630522
:1000D0003414341466146614A414C414591659162E
:1000E00006155916B315B31525162E1659165216A0
:1000F000C015C015C015C015C015C015C015C01558
:10010000C015C015C015C015C015C015C015C01547
:10011000D115DF15E615ED15F715E816E816FA16F0
:10012000FA16F116FA16FA16FA16E816E816F61680
:10013000FA16FA16F6169329BA29AC2ABA29AC2A65
:10014000062A292AAC2A7F2A8E2A07634236B79BC1
:10015000D8A71A39685618AEBAAB558C1D3CB7CC27
:100160005763BD6DEDFD753EF6177231BF0000009F
:10017000803F05A84CCDB2D44EB93836A9020C50F8
:10018000B9918688083CA6AAAA2ABE000000803F32
:1001900029001E001F00200021002200230024004F
:1001A0002500260027002D002E002A002A002B0003
:1001B000000014001A000800150017001C001800A9
:1001C0000C00120013002F00300031003900000035
:1001D00004001600070009000A000B000D000E00C5
:1001E0000F003300340028000000E10033001D0040
:1001F0001B00060019000500110010003600370032
:100200000000380052000151E000E2000000E3006D
:100210002C0000002C0000002C000000E300E20095
:10022000500051004F0000003A003B003C003D00F0
:100230003E003F00400041004200430044004500B2
:1002400000000000000000000000000000000000AE
:10025000000000000000000000000000000000009E
:10026000000000000000000000000000000000008E
:10027000000000000000000000000000000000007E
:10028000000000000000000000000000000000006E
:10029000000000000000000000000000010000005D
:1002A000000000000000000000000000000000004E
:1002B00000000000000000000000000000047F3F7C
:1002C0001F643214643214783C1E1E140A0568013F
:1002D000F000B40078005A000000000000010101A5
:1002E00001010101010102020202020202020203F3
:1002F00003030303030303040404040404050505C2
:100300000505060606060607070707080808080980
:1003100009090A0A0A0A0B0B0B0C0C0C0D0D0D0E29
:100320000E0F0F0F101011111112121313141415B8
:100330001516161717181819191A1A1B1C1C1D1D2B
:100340001E1F1F202021222223242525262727287F
:10035000292A2B2B2C2D2E2F2F30313233343536AA
:10036000363738393A3B3C3D3E3F404142434446B4
:100370004748494A4B4C4D4F505152535556575888
:100380005A5B5C5E5F606263646667696A6C6D6E2F
:10039000707173747678797B7C7E808183848688A3
:1003A0008A8B8D8F91929496989A9B9D9FA1A3A5DD
:1003B000A7A9ABADAFB1B3B5B7B9BBBDBFC1C4C6DB
:1003C000C8CACCCFD1D3D6D8DADCDFE1E4E6E8EB9B
:1003D000EDF0F2F5F7FAFCFF0403300000000A0329
:1003E00044005A0036003000000010034B00420069
:1003F0004400460061006E0073000000040309041D
:1004000009023B00020100A0FA09040000010301F7
:1004100001000921110100012240000705810308A4
:10042000000A090401000103000000092111010074
:100430000122C0000705820320000A1201100100FA
:10044000000008EDFE602201000102030105010920
:1004500002A10185020901A100050919012905155B
:10046000002501950575018102950175038101053E
:1004700001093009311581257F950275088106092A
:10048000381581257F950175088106050C0A38020B
:100490001581257F950175088106C0C00501098079
:1004A000A10185031601002603001A81002A83009A
:1004B000751095018100C0050C0901A10185041684
:1004C0000100269C021A01002A9C027510950181E8
:1004D00000C005010906A1018505050719E029E706
:1004E00015002501950875018102050819012905E6
:1004F0009505750191029501750391010507190094
:1005000029EF1500250195F075018102C00501094B
:1005100006A101050719E029E715002501950875D1
:1005200001810295017508810105081901290595C8
:1005300005750191029501750391010507190029BF
:10054000FF150026FF00950675088100C0001124E4
:100550001FBECFEFDAE0DEBFCDBF04B603FE27C07B
:100560008091940290919502A0919602B091970289
:100570008730904BA740B04BD1F410929402109268
:100580009502109296021092970214BE84B7877F4C
:1005900084BF0FB6F894A89580916000886180931D
:1005A0006000109260000FBEE0E0F8E3099511E0F2
:1005B000A0E0B1E0E4EFFDE502C005900D92A433A8
:1005C000B107D9F722E0A4E3B1E001C01D92A4393C
:1005D000B207E1F70E9476250C94F82E0C940000E7
:1005E0000C94C108229A2A9A08950E94C0080C947B
:1005F000F20281FF02C02A9801C02A9A0C947E035D
:1006000081E0089581E008950C9402030C94F002B7
:10061000CF92DF92EF92FF92863030F4811105C0C5
:10062000909180009F7D04C085E090918000906251
:1006300090938000282F30E0AFEFBFEF0E94892E0B
:1006400025E030E040E050E00E94612E2C3784E14C
:1006500038074105510530F4C90169E070E00E9496
:10066000392E29C0DA01C9018A50974DAF4FBF4FCB
:100670006627782F892F9A2F25EF38E241E050E046
:100680000E94612E69017A01CA01B9010E94292ED6
:100690009B01AC01C701B6010E94292EBB27A92FDF
:1006A000982F872F009721E0A207B10511F0BC0118
:1006B00002C06FEF7FEF70938B0060938A00FF9012
:1006C000EF90DF90CF900895269A2E9882E2809343
:1006D000800089E1809381008FEF9FEF90938700E6
:1006E000809386000C94F6220E943D1D811102C069
:1006F0000E94C51D0E9464030C94F50208950C9499
:10070000F90208950E94D8160E9481032FEF84E316
:100710009CE0215080409040E1F700C000000C9424
:100720003C1FFF920F931F93CF93DF938C01FC012B
:10073000C081D18180918201811113C0828188237F
:1007400049F0CE010E940D1CF82E682FCE010E94A8
:10075000B21B04C0CE010E94E11BF82EBE018F2DFA
:1007600004C0CE010E940D1CBE010E941306EC01C4
:10077000B8010E940403882309F44AC2CC3CFCE57A
:10078000DF0709F4DFC0E8F5C43C9CE5D90709F4AC
:10079000A3C0F8F4C531FCE5DF0778F4C2308CE57E
:1007A000D80708F04EC1C1159CE5D90709F465C00A
:1007B000C130DC4509F469C01EC2C23CFCE5DF075C
:1007C00009F476C008F07CC0C631DC4509F4ECC100
:1007D00012C2F8018281C83CFCE5DF0709F49AC027
:1007E00040F4C63CECE5DE0709F488C008F480C09C
:1007F0008BC0CA3C9CE5D90709F498C008F490C0A6
:100800009BC0C43DFCE5DF0709F4F6C0C0F4F80165
:100810008281C03DFCE5DF0709F4BDC040F4CE3C59
:10082000ECE5DE0709F49BC008F494C0A6C0C23D05
:100830009CE5D90709F4CDC008F4BDC0D8C0C83DB7
:10084000FCE5DF0709F495C150F4F8018281C63D4B
:10085000FCE5DF0709F447C108F4DEC065C1CC3D03
:10086000ECE5DE0709F4E4C0CD3DFCE5DF07C1F0AF
:10087000CB3DDC4509F0BFC1D4C0F801828188239B
:1008800009F4C6C10E948203C3C1F8018281882392
:1008900009F4BEC180911A02816080931A02B8C126
:1008A000F8018281882309F4B3C10E94C51DB0C13B
:1008B000F8018281882309F4ABC10E94810DA8C18F
:1008C000F8018281882309F4A3C10E948D1C8272E1
:1008D00061F00E941D0D9CC1F8018281882309F4FA
:1008E00097C10E948D1C8272A1F30E940F0D90C1CE
:1008F000882309F48DC10E94120C8AC1882309F44F
:1009000087C10E94360C84C1882309F481C10E94EA
:10091000560C7EC1882309F47BC10E94760C78C1F5
:10092000882309F475C10E94960C72C1882309F4CA
:100930006FC10E94B60C6CC1882309F469C10E9482
:10094000CC0A66C1F8018281882309F461C10E9442
:10095000E10A5EC1882309F45BC181E029C08823D4
:1009600009F456C10E94C30A823028F00E94C30ACB
:10097000853008F4BACF82E01BC0882309F448C14F
:100980000E94C30A863028F00E94C30A883008F407
:10099000ACCF86E00DC0882309F43AC10E94C30A97
:1009A000893028F00E94C30A8E3008F49ECF89E077
:1009B0000E94200D2DC1882309F42AC10E94C30A78
:1009C0008F3028F00E94C30A843108F48ECF8FE064
:1009D000EFCF882309F41CC10E94C30A853128F097
:1009E0000E94C30A873108F480CF85E1E1CF8823D4
:1009F00009F40EC188E1DCCFF8018281882309F473
:100A000007C10E94C30A893128F00E94C30A8232BA
:100A100008F46BCF89E1CCCF882309F4F9C083E2D5
:100A2000C7CFF8018281882309F4F2C080E006C0B4
:100A3000F8018281882309F4EBC082E00E94172626
:100A4000E7C0F8018281882309F4DAC00E943D1DC5
:100A5000811102C00E94C51D0E945A1D90E0909312
:100A6000850280938402FE01E350FC45E231F105EA
:100A700030F4EA5AFF4F809184020C94832E8091C7
:100A80008402816027C0826025C0846023C08061A9
:100A900021C080621FC080641DC080681BC084604C
:100AA000886018C08E7F16C08D7F14C08B7F12C0E7
:100AB0008F7E10C08F7D0EC08F7B0CC08F770AC0D9
:100AC0008B7F877F07C087FB222720F991E0922741
:100AD00090FB87F980938402809184020E945E1DBE
:100AE0000E94D81695C0882351F0109239010E94B7
:100AF000E01E909336018093350182E020C0809102
:100B0000390181110FC080913501909136010E9409
:100B1000EC1E883C910530F486E20E946A1286E25F
:100B20000E94881382E022C0882361F010923A016B
:100B30000E94E01E909338018093370180E20E946A
:100B4000F01366C080913A0181110FC08091370186
:100B5000909138010E94EC1E883C910530F487E2A8
:100B60000E946A1287E20E94881380E20E94F713B3
:100B70004FC0F80182818111D9CF80913A01811152
:100B8000F4CF80913701909138010E94EC1E883C8F
:100B9000910558F780E20E94F71388E20E946A12DA
:100BA00088E20E94881334C00E948D1C282FF8010F
:100BB000828140910D0150910E01882379F02A7AAB
:100BC00091E009F490E090933401911102C069E240
:100BD00001C065E3CA010E942C1E0AC08091340145
:100BE000811102C069E201C065E3CA010E94371E9B
:100BF0000E94D91C0DC081E08093390180933A0195
:100C0000C801DF91CF911F910F91FF900C940003C9
:100C100080E0DF91CF911F910F91FF90089580E0C8
:100C200090E0089508959FE0799FF00111249BE4DE
:100C3000899FE00DF11D1124E60FF11DEE0FFF1F3E
:100C4000E057FE4F859194910895880F991FFC01FC
:100C5000E454FD4F859194910895CF93DF930E94C2
:100C600013060E942008EC01811521E5920708F087
:100C700042C0811560E5960708F031C1883E9105B4
:100C800000F5803E910508F0D7C1883A910570F4CF
:100C9000853A910508F0A6C08130910509F4CCC1D0
:100CA00008F47DC1049708F0C7C179C18F3B910555
:100CB00008F4A3C0803C910508F471C1805C9109DF
:100CC000FDC0C11580E3D80780F4C11590E2D907B3
:100CD00008F0F2C0C03FD10508F461C1CF3FD10593
:100CE00011F008F0A9C1D065A7C1C11520E4D20751
:100CF00008F0F2C0E7C0811569E5960760F5C115F7
:100D000088E5D80708F037C1C11594E5D90778F40C
:100D1000C11523E5D20708F013C1C11562E5D60756
:100D200008F0F8C0DC2FCC27C16FD06A85C1C1158F
:100D300085E5D80708F41AC1C11596E5D90708F06A
:100D40002EC18C2F0E949D088F71C82FD0E0DC2F00
:100D5000CC27D06271C18D3B2CE5920709F416C1F6
:100D6000F0F4CB3B8CE5D80709F40AC108F00BC1BD
:100D7000C1152AE5D20708F012C18C2F8F700E948E
:100D80009D0894E0D695C7959A95E1F7CF70D0E08D
:100D9000DC2FCC27D06A8F70806EC82B4DC1803C71
:100DA0009C4509F4F9C0C13C8CE5D80760F4CE3B02
:100DB0009CE5D90709F4EDC0CF3BDC4509F0EFC055
:100DC000C0E0D2ED39C1CE0190568115904208F0B5
:100DD000E6C08D2F8F710E949D08DD27D0628F7134
:100DE000D82B2AC1853A910509F4DCC0863A9105D1
:100DF00009F0DBC0C2E8D0E41FC1883A910509F4CC
:100E0000D7C0893A910509F4D6C08A3A910509F408
:100E1000D5C08B3A910509F4D4C08C3A910509F4F8
:100E2000D3C08B3B910509F4D2C08C3B910509F4EA
:100E3000D1C08D3A910509F4D0C0803B910509F4E9
:100E4000CFC08E3A910509F4CEC08F3A910509F4CE
:100E5000CDC0813B910509F4CCC0823B910509F4DA
:100E6000CBC0833B910509F4CAC0843B910509F4CA
:100E7000C9C0853B910509F4C8C0863B910509F4BA
:100E8000C7C0873B910509F4C6C0883B910509F4AA
:100E9000C5C0893B910509F4C4C08D3B910509F497
:100EA000C3C08E3B910509F4C2C08A3B910509F489
:100EB000C1C0C0E0D4E4C0C0CE019F700E9425062E
:100EC000EC01BAC0CE019927D3FF03C0EC01D86C66
:100ED000B3C0EC01D06CB0C0DF70D06AADC083701D
:100EE00021E030E002C0220F331F8A95E2F73C6810
:100EF000CE0174E0969587957A95E1F78370382B4B
:100F0000CF70C695C69580E2C89FE0011124C22B20
:100F1000D32B92C04C2F4695469590E2499FA00155
:100F20001124C370DD2721E030E0C90102C0880F21
:100F3000991FCA95E2F7EC01C42BD52BDC687CC065
:100F40004C2F4695469580E2489FA0011124C3701E
:100F5000DD2721E030E0C90102C0880F991FCA9542
:100F6000E2F7EC01C42BD52BDA6866C0DC2FCC2766
:100F7000C46FD06A61C0DC2FCC27C06FD06A5CC060
:100F8000C0E0D4ED59C0C0E0D5ED56C0C0E0D1ED11
:100F900053C0C0E0D0ED50C0C0E0D3ED4DC0C0E0C4
:100FA000D0E04AC0C1E8D0E447C0C3E8D0E444C0C0
:100FB000C2EED4E441C0C9EED4E43EC0CAEED4E4EB
:100FC0003BC0C5EBD4E438C0C6EBD4E435C0C3EBBA
:100FD000D4E432C0C4EBD4E42FC0C7EBD4E42CC0BB
:100FE000CCECD4E429C0CDECD4E426C0C3E8D5E4ED
:100FF00023C0CAE8D5E420C0C2E9D5E41DC0C4E9D5
:10100000D5E41AC0C1E2D6E417C0C3E2D6E414C0E6
:10101000C4E2D6E411C0C5E2D6E40EC0C6E2D6E40E
:101020000BC0C7E2D6E408C0CFE6D4E405C0C0E7F1
:10103000D4E402C0CAE2D6E4CE01DF91CF91089594
:101040008238910549F1B0F48133910509F458C013
:1010500048F48932910509F44EC08A32910509F4A9
:1010600054C008958533910509F440C08933910532
:1010700099F00895833E910529F138F4803E910559
:1010800091F0823E9105A1F00895863E9105F9F018
:10109000873E910531F108952091840220FD3AC0E8
:1010A00021FD38C008958091840280FD35C032C092
:1010B0008091840282FF32C08091840284FD30C01E
:1010C00083EE39C08091840282FD28C0F5CF8091E3
:1010D000840283FF27C08091840284FD21C087EEB3
:1010E0002AC08091840283FD1DC0F5CF80918402C7
:1010F00085FD1AC01BC08091840285FD17C014C0F5
:101100008091840286FD14C015C08091840286FD02
:1011100011C00EC080EE0FC089E30DC082EE0BC07F
:1011200080E009C086EE07C089E205C085E303C000
:101130008AE201C081E390E008959091840292FFD9
:101140000DC0282F2871283019F4877F846006C0CD
:10115000282F2471243011F48B7F886093FF0DC0F9
:10116000282F2871283119F4877E846106C0282F22
:101170002471243111F48B7E886194FD877E08955B
:1011800008950895EFE2F1E041E050E025E02E0FF0
:101190009191A92FA295AF70B0E091963C91919753
:1011A0009F70BA0102C0660F771F9A95E2F7CB01D4
:1011B0008095832391968C932E13EACFA0E2B1E021
:1011C00041E050E02FE02A0F8D91E82FE295EF707B
:1011D000F0E031A18F70BA0102C0660F771F8A95C7
:1011E000E2F7CB01962F9095932391A392A1892B9F
:1011F00082A32A13E9CFE5E4F1E0ABE3B1E0119279
:1012000011921D921D9271E0EF34F707C1F785E04E
:101210000E94AE090C9474034F925F927F928F925A
:101220009F92AF92BF92CF92DF92EF92FF920F9375
:101230001F93CF93DF932FE2422E21E0522EA5E49D
:10124000B1E020E001E010E05D018D909C901197ED
:1012500011961C921E92E20189912E01E82FE295CF
:10126000EF70F0E031A18F70A80102C0440F551F4C
:101270008A95E2F7CA01342B31A342A1382F309569
:10128000432342A350EA5A95F1F790E2C92E91E028
:10129000D92E40E050E0E60179906E01672D62950D
:1012A0006F7070E0EB01E8A06D917C911197F12CCB
:1012B000D72DDF7002C0F594E794DA95E2F7E0FCF1
:1012C00008C07801042E02C0EE0CFF1C0A94E2F75D
:1012D00002C0E12CF12C6E297F2911967C936E932C
:1012E0004F5F5F4F4F305105B1F691A1392331A3C4
:1012F00092A1892B82A3129681E0F5014081518150
:101300008416950609F480E0282BF1E0AF34BF077E
:1013100009F09ACF45E06BE371E085E491E00E942B
:10132000AF090E94060381E0DF91CF911F910F91D9
:10133000FF90EF90DF90CF90BF90AF909F908F90F5
:101340007F905F904F900895E82FF0E0EE0FFF1F21
:10135000E55CFE4F80819181089508950895FF9284
:101360000F931F93CF93DF93F82E092F162FD72FAC
:10137000C42F222349F081E0809351010E94E01E96
:101380009093500180934F01809151018823D9F0AF
:1013900080914F01909150010E94EC1E069798F0A9
:1013A000EF2DF02FA12FBD2F80E090E04C2F50E0CB
:1013B0008417950734F4219131912D933D93019633
:1013C000F7CF10925101DF91CF911F910F91FF90B4
:1013D0000895EF92FF920F931F93CF93DF93E9014C
:1013E000662309F44BC0242F30E0EFEFF0E0E61B5A
:1013F000F109B901E69F9001E79F300DF69F300D8E
:101400001124232F8B01031B11095CE3E52EF12C22
:10141000B7010E94392EFB01BC01069FC001079F46
:10142000900D169F900D1124B7010E94392EE230C5
:10143000F105B1F040F4309779F0319711F5832F31
:10144000242F461B21C0E430F105A1F068F0359748
:10145000C1F4842F861B18C0832F262F230F14C09E
:10146000862F830FE42F03C0E42FE61B842F432F26
:101470002E2F0AC0842F462F430F06C0842F242FFF
:1014800003C080E020E040E0E42FF0E0E852FD4FB0
:101490004491E22FF0E0E852FD4F9491E82FF0E004
:1014A000E852FD4FE49149839883EA83DF91CF911D
:1014B0001F910F91FF90EF90089580914902282F7E
:1014C00026952F7330E02115310519F4817882605B
:1014D00005C02532310524F0817888648093490263
:1014E00030914902432F441F4427441F20914A0250
:1014F000522F550F852F842B27FB992790F989367A
:1015000041E094077CF068E671E00E944D2E80FB7C
:1015100037F93093490286952078822B90FB87F922
:1015200080934A02089588E090E00C94B82ECF93FF
:10153000DF9300D000D0CDB7DEB7AB01BC0149834B
:101540005A836B837C830E945D0A49815A816B8137
:101550007C8188E090E00F900F900F900F90DF91CA
:10156000CF910C94D62EE9E4F2E083E080831092D0
:101570004A028FEF8283838314826081718182812A
:1015800093810C94970A8091490280FF03C086954D
:101590008F73089580E0089580914D0290E0019648
:1015A0008430910514F083E090E080934D026091C7
:1015B000490270914A0280914B0290914C020C9426
:1015C000970A80914D0290E0019797FF02C080E05A
:1015D00090E08430910514F083E090E080934D0218
:1015E0006091490270914A0280914B0290914C02A5
:1015F0000C94970A8091490280FF06C060E170E078
:101600008EE492E00C94EE1080E090E0FC01E25B4E
:10161000FD4F118210821282039680339105B1F73B
:10162000EDCF9091490290FF0FC020E030E0F9012A
:10163000E25BFD4F8183608342832D5F3F4F203308
:101640003105A9F70C94FA0A0895CF93DF9300D0DF
:101650001F92CDB7DEB72091490220FF0AC09E013C
:101660002F5F3F4F0E94E9094B8169818A810E9467
:10167000110B0F900F900F90DF91CF9108955F9213
:101680006F927F928F929F92AF92BF92CF92DF9292
:10169000EF92FF920F931F93CF93DF9300D01F928F
:1016A000CDB7DEB78C01E62EF42E522E8091490282
:1016B00080FF8BC0982F9E77923061F49E012F5F40
:1016C0003F4FC8010E94E9094B8169818A810E94CC
:1016D000110B5BC0E82FE695EF739EE39E0F9F739F
:1016E000943018F4F0904C0250C09AE39E0F9F7310
:1016F000993068F4881F8827881F90914A02292F03
:10170000220F022F082B97FB112710F93EC087E20A
:101710008E0F8F738A30C8F5F0E07997E0FD02C034
:1017200021E001C02FEFEE7FE253FD4F85919491B0
:10173000AC0184E0569547958A95E1F72403400172
:10174000259F900C1124580188E9A81A8EEFB80A39
:101750009EE4C92E92E0D92E28E6622E7724739457
:10176000C501B3010E94392E96014F2D6E2D0E94A6
:10177000E909A80CB91C83E0C80ED11C8EE7C81675
:1017800082E0D80669F70E94FA0A8091490200FBBC
:1017900087F980934902902F969580914A0280782C
:1017A000892B10FB87F980934A02E0924B02F0925A
:1017B0004C02552051F06091490270914A0280918B
:1017C0004B0290914C020E94970A0F900F900F903D
:1017D000DF91CF911F910F91FF90EF90DF90CF900D
:1017E000BF90AF909F908F907F906F905F90089583
:1017F000282FE9E4F2E09081991F9927991F3091F1
:101800004A02832F880F482F492B37FB552750F961
:10181000CA01089668E671E00E944D2E43816281FC
:101820000C943F0B81E00C94F80B282F9091490207
:10183000991F9927991F30914A02832F880F482FAB
:10184000492B37FB552750F9CA01483051051CF484
:10185000805A9E4F01C0089768E671E00E944D2EA5
:1018600040914C0260914B020C943F0B81E00C9430
:10187000150C60914B02262F30E0283F310514F4FF
:10188000685F01C06FEF30914902331F3327331F68
:1018900090914A02592F550F97FB992790F9282FBD
:1018A00040914C02852F832B0C943F0B81E00C94CC
:1018B000390C60914B02262F30E02830310514F0AE
:1018C000685001C060E030914902331F3327331F55
:1018D00090914A02592F550F97FB992790F9282F7D
:1018E00040914C02852F832B0C943F0B81E00C948C
:1018F000590C40914C02242F30E0283F310514F45C
:10190000485F01C04FEF30914902331F3327331F27
:1019100090914A02592F550F97FB992790F9282F3C
:1019200060914B02852F832B0C943F0B81E00C942C
:10193000790C40914C02242F30E02830310514F00E
:10194000485001C040E030914902331F3327331F14
:1019500090914A02592F550F97FB992790F9282FFC
:1019600060914B02852F832B0C943F0B81E00C94EC
:10197000990C20E00C943F0BCF939091490290FF7B
:1019800040C09178811102C0926007C0853210F08A
:10199000986403C08F73880F982B90934902662335
:1019A00051F06091490270914A0280914B029091EE
:1019B0004C020E94970AC09149026C2F66956F7382
:1019C00070E04BE050E082E091E00E94A32E892B72
:1019D00019F010926F0103C081E080936F01CC1F5A
:1019E000CC27CC1F90914A02892F880F97FB99270B
:1019F00090F940914C0260914B028C2BCF910C944A
:101A0000B90CCF910895682F9091490296959F73D4
:101A100081E0890F853208F081E00C94BC0C81E0F4
:101A20000C94030D682F9091490296959F738FEF48
:101A3000890F09F484E20C94BC0C81E00C94120D23
:101A400061E00C94BC0CE9E4F2E080818160808369
:101A500086958F730C94200D60E00C94BC0C8091E3
:101A60007001811135C080911A02816080931A0241
:101A70000E943D1D811104C00E94C51D0E94B30A31
:101A80000E94930A6093490270934A0280934B022A
:101A900090934C026E7761F40E94B30A0E94930AFD
:101AA0006093490270934A0280934B0290934C02D8
:101AB0000E945D0A81E080936F018091490280FF5E
:101AC00004C086958F730E942C0D81E08093700175
:101AD0000895E9E4F2E080818E7F808360817181E6
:101AE000828193810E94970A10926F012FEF80E705
:101AF00092E0215080409040E1F700C000000C943B
:101B0000FA0A8091490280FD0C94690D0C94230D12
:101B1000CF93C82F80916D0190916E010E94EC1EB1
:101B2000EC2FF0E0E653FD4FE491F0E08E179F07B5
:101B300008F443C00E94E01E90936E0180936D01F3
:101B400060916C0170E080E090E00E942A2C20E01F
:101B500030E04FE753E40E944D2B2BED3FE049E48A
:101B600050E40E94532D0E94C02D0E94C72B2BE4ED
:101B70003AE34EE25FE30E94E02A20EF3BEF48EDBC
:101B800052E40E94532D0E94F92B462F8091490266
:101B9000881F8827881F90914A02292F220F97FBC0
:101BA000992790F960914B02822B0E94250B80911E
:101BB0006C0190E0019680936C01CF910895CF93D2
:101BC000C82F80916A0190916B010E94EC1EEC2F4E
:101BD000F0E0E953FD4FE491F0E08E179F07E8F045
:101BE0000E94E01E90936B0180936A0140914C0229
:101BF00060914B0280916801909169010E94250BD0
:101C00008091680190916901019668E671E00E94F7
:101C1000392E9093690180936801CF910895CF92F6
:101C2000DF92FF920F931F93CF93DF93F82E809153
:101C30006601909167010E94EC1EEF2DE695F0E0A1
:101C4000EC53FD4FE491F0E08E179F07F0F10E94F6
:101C5000E01E90936701809366010EE412E0C0E0FD
:101C6000D0E088E6C82EDD24D39480916401909161
:101C700065018C0F9D1FB6010E94392E980140917D
:101C80004C0260914B020E94E90966960D5F1F4F5E
:101C9000C03681E0D80749F70E94FA0A2091640112
:101CA00030916501F0FE0BC0C901019668E671E054
:101CB0000E94392E909365018093640106C02150E3
:101CC00031093093650120936401DF91CF911F9119
:101CD0000F91FF90DF90CF900895AF92BF92CF9277
:101CE000DF92EF92FF920F931F93CF93DF93C82F52
:101CF00080FF02C01FEF01C011E08091620190914E
:101D000063010E94EC1EC695EC2FF0E0EF53FD4FEF
:101D1000E491F0E08E179F0708F465C00E94E01E72
:101D200090936301809362012EE4C22E22E0D22EB2
:101D300030E5E32E32E0F32EC0E0D0E0F70131973A
:101D40001082F6011082F701108294E0A92EB12CC6
:101D500000E080916101800F87FD805F082E000CFC
:101D6000990BC817D907E9F480914C028A9DA0010C
:101D70008B9D500D1124559547955595479580910C
:101D80004902881F8827881F90914A02592F550FB2
:101D900097FB992790F9960160914B02852B0E9441
:101DA000E909010FF1E0AF1AB10899F6219683E035
:101DB000C80ED11CE3E0EE0EF11CC031D10509F0D4
:101DC000BDCF0E94FA0A80916101113031F4811176
:101DD00002C08FE006C0815004C090E001968F7071
:101DE000992780936101DF91CF911F910F91FF900F
:101DF000EF90DF90CF90BF90AF900895EF92FF9259
:101E00000F931F93CF93DF93C82F80915F01909121
:101E100060010E94EC1EEC2FF0E0E254FD4FE491D3
:101E2000F0E08E179F0708F464C00E94E01E9093B4
:101E3000600180935F0180E090E0FC01E25BFD4F78
:101E4000118210821282039680339105B1F78EE4DD
:101E5000E82E82E0F82E00E512E0C0E0D0E08091AC
:101E60005E01082E000C990BC817D907ECF0809181
:101E70000101082E000C990B8C179D07ACF0809186
:101E80004902881F8827881F90914A02592F550FB1
:101E900097FB992790F9970140914C0260914B0272
:101EA000852B0E94E90907C0F80131971082F701DC
:101EB0001082F80110822196F3E0EF0EF11C0D5F05
:101EC0001F4FC031D10559F60E94FA0A80910001D6
:101ED00090915E01980F90935E0120910101280F6F
:101EE00020930101121614F49F301CF08195809309
:101EF0000001DF91CF911F910F91FF90EF90089516
:101F0000EF92FF920F931F93CF93DF9380915C0129
:101F100090915D010E94EC1E883E9340D0F10E949A
:101F2000E01E90935D0180935C01C0915A01D091B5
:101F30005B012196C170DD27D0935B01C0935A01EC
:101F40008EE4E82E82E0F82E10E008E7812F8695D7
:101F5000FE01E80FF11DCF01817099279701409193
:101F60004C0260914B02FC010E9FC0010F9F900D2F
:101F700011240E94E9091F5FF3E0EF0EF11C1031FC
:101F800029F7DF91CF911F910F91FF90EF900C9463
:101F9000FA0ADF91CF911F910F91FF90EF90089572
:101FA000CF93DF9300D01F92CDB7DEB78091580159
:101FB000909159010E94EC1EECEBF2E025913491D6
:101FC00082179307C0F18091570181110CC09E01C7
:101FD0002F5F3F4F4FEF6FEF80E090E00E94E909E5
:101FE0008A81809357010E94E01E9093590180934B
:101FF000580180915601813051F028F0823061F40F
:10200000409157010AC08091570140E007C060919C
:10201000570140E080E003C040E080E060E00E94C3
:10202000110B8091560190E0019663E070E00E94F0
:102030004D2E809356010F900F900F90DF91CF910E
:1020400008950F931F93CF93DF9380915401909144
:1020500055010E94EC1E843F914008F448C00E9444
:10206000E01E9093550180935401CEE4D2E000E04D
:1020700010E02091520130915301809149029091DA
:102080004A02083011051CF4232B79F002C0232BDF
:1020900061F4881F8827881F592F550F97FB9927B0
:1020A00090F99E0140914C020AC0881F8827881F22
:1020B000592F550F97FB992790F99E0140E06091A9
:1020C0004B02852B0E94E9090F5F1F4F23960031B9
:1020D000110579F60E94FA0A8091520190915301FC
:1020E0000196817099279093530180935201DF915B
:1020F000CF911F910F91089580916F018823D9F19D
:1021000090914902892F86958F732EE3280F2F73A4
:10211000243018F482500C94880D2AE3280F2F7372
:10212000233018F486500C94DF0D27E3280F2F730B
:10213000263018F489500C940F0E21E3280F2F73CA
:10214000263018F48F500C946D0E2BE2280F2F734D
:10215000233018F485510C94FE0E892F8E7780332E
:1021600011F40C94800F863411F40C94D00F883441
:1021700011F40C94211008952EB1342F309523239F
:102180003EB1432B3FB7F894FC01680F791FE61767
:10219000F70789F0819198E04EB9000000C087FFF1
:1021A0002EB9880F000000C000C000C02EB900C0CA
:1021B0009A9591F7ECCF3FBF08952DB1242B2DB9FF
:1021C0009B01220F331F620F731F0E94BC1087EC0C
:1021D00090E00197F1F700C00000089544E00C94EE
:1021E000DD1090937601809375010895E09175015B
:1021F000F0917601309721F00190F081E02D099463
:1022000080E00895E0917501F0917601309799F0A2
:1022100020911F01222359F02091840227FF07C03B
:10222000DC012C9111962C93119725E02C930280C0
:10223000F381E02D09940895E0917501F091760104
:10224000309739F022E0DC012C930480F581E02DF9
:1022500009940895209173013091740182179307B6
:1022600071F09093740180937301E0917501F09186
:102270007601309721F00680F781E02D09940895CA
:1022800020917101309172018217930771F0909340
:10229000720180937101E0917501F09176013097A0
:1022A00021F00084F185E02D0994089585B78068B8
:1022B00085BF85B7806885BF0895089508950C94FB
:1022C0005E1108950C9461110E9456110E945D11D7
:1022D0000C945F1181E008950E94D71E0E94C208ED
:1022E0000E94AC1F0E94F6220E942F0D0C946211D6
:1022F0004F925F927F928F929F92AF92BF92CF92B6
:10230000DF92EF92FF920F931F93CF93DF93CDB79E
:10231000DEB72A970FB6F894DEBF0FBECDBF0E947E
:102320000C090E946A11811111C08FEF89838A8381
:102330001B820E94E01E8160782F9D838C834981DF
:102340005A816B818D810E94361257C098E7C92E41
:1023500091E0D92E00E010E0AA24A394B12C702EB5
:10236000802F0E94A4094C01F601419051906F0109
:10237000482659264114510431F40F5F1F4F053090
:10238000110569F7D2CF80911A0281FD0E94AD0933
:1023900020E030E07501022E02C0EE0CFF1C0A9412
:1023A000E2F7C70184219521892B09F12E837F82D1
:1023B0008E209F2091E0892809F490E098870E9460
:1023C000E01E8160782F9A8789874E815F816885BA
:1023D0008A850E943612000F111FF801E858FE4F3F
:1023E00080819181E826F926F182E08206C02F5F84
:1023F0003F4F2F30310571F6C0CF0E944F22109110
:1024000077010E94F6101817D9F00E94F6108093F9
:1024100077012A960FB6F894DEBF0FBECDBFDF91CD
:10242000CF911F910F91FF90EF90DF90CF90BF90D1
:10243000AF909F908F907F905F904F900C947F0310
:102440002A960FB6F894DEBF0FBECDBFDF91CF91B5
:102450001F910F91FF90EF90DF90CF90BF90AF90C2
:102460009F908F907F905F904F900895CF93DF93D0
:10247000CDB7DEB72B970FB6F894DEBF0FBECDBF3A
:102480004F83588769877A878B87DE01119686E0AC
:10249000FD0111928A95E9F785E0FE0137960190DA
:1024A0000D928A95E1F749815A816B817C818D81FA
:1024B0009E810E9482192B960FB6F894DEBF0FBE44
:1024C000CDBFDF91CF910895FC01808191810E9461
:1024D0004E1C0895882309F41AC18238C1F40E9461
:1024E000F61081FD14C169E380910D0190910E01F8
:1024F0000E942C1E0E94D91C2FEF81EE94E02150E7
:1025000080409040E1F700C0000069E319C08338C3
:10251000F9F40E94F61080FDFAC063E580910D0188
:1025200090910E010E942C1E0E94D91C2FEF81EE6B
:1025300094E0215080409040E1F700C0000063E546
:1025400080910D0190910E010E94371E0C94D91CB0
:102550008438C1F40E94F61082FDD9C067E48091EE
:102560000D0190910E010E942C1E0E94D91C2FEF8C
:1025700081EE94E0215080409040E1F700C00000DF
:1025800067E4DECF9CEF980F913A40F4682F80917A
:102590000D0190910E010E942C1ED8CF90E2980F51
:1025A000983050F4877091E001C0990F8A95EAF74E
:1025B000892F0E94901CCACF9BE5980F933070F42E
:1025C000853A29F0863A31F083E890E005C081E849
:1025D00090E002C082E890E00C942A1198E5980FF0
:1025E000973108F08EC0883A09F445C0893A09F459
:1025F00045C08A3A09F445C08B3A09F445C08C3A83
:1026000009F445C08B3B09F445C08C3B09F445C037
:102610008D3A09F445C0803B09F445C08E3A09F46F
:1026200045C08F3A09F445C0813B09F445C0823B5F
:1026300009F445C0833B09F445C0843B09F445C017
:10264000853B09F445C0863B09F445C0873B09F446
:1026500045C0883B09F445C0893B09F445C08D3B22
:1026600009F445C08E3B09F445C08A3B09F445C0D6
:1026700080E090E044C082EE90E041C089EE90E0BE
:102680003EC08AEE90E03BC085EB90E038C086EB20
:1026900090E035C083EB90E032C084EB90E02FC037
:1026A00087EB90E02CC08CEC90E029C08DEC90E0A2
:1026B00026C083E891E023C08AE891E020C082E947
:1026C00091E01DC084E991E01AC081E292E017C058
:1026D00083E292E014C084E292E011C085E292E0CD
:1026E0000EC086E292E00BC087E292E008C08FE65F
:1026F00090E005C080E790E002C08AE292E00C948E
:102700004011803F20F00E9457210C9444220895EC
:10271000882309F464C0823879F40E94F61081FF9E
:102720005EC069E380910D0190910E010E942C1E04
:102730000E94D91C69E310C08338B1F40E94F610DE
:1027400080FF4DC063E580910D0190910E010E94C4
:102750002C1E0E94D91C63E580910D0190910E0101
:102760000E94371E0C94D91C843879F40E94F6100C
:1027700082FF35C067E480910D0190910E010E94A7
:102780002C1E0E94D91C67E4E7CF9CEF980F913A6A
:1027900010F4682FE1CF90E2980F983050F48770D2
:1027A00091E001C0990F8A95EAF7892F0E94961C43
:1027B000D9CF9BE5980F933020F480E090E00C9403
:1027C0002A1198E5980F973120F480E090E00C945E
:1027D0004011803F20F00E94BF210C9444220895B4
:1027E000882321F00E94901C0C94D91C0895882302
:1027F00021F00E94961C0C94D91C08954F925F9270
:102800006F927F92BF92CF92DF92EF92FF920F93DF
:102810001F93CF93DF937C01D62FC72FFC01058137
:1028200002950F70128111110E94AD1C0E94861C2E
:10283000882379F0112369F080E28D0F883048F009
:1028400082E00E94241D0E94861C91E0B82EB926C9
:1028500001C0B12CCC2EC2948FE0C822D12CF6013D
:10286000E859FF4F0C94832E8C2F807FCF708823E4
:1028700011F0C295C07F112399F0CC2309F4D0C187
:1028800080E28D0F883010F0D11104C08C2F0E948F
:10289000901C03C08C2F0E94A01C0E94D91CC0C198
:1028A0008D2F0E948813CC2309F403C280E28D0F80
:1028B000883010F0D11104C08C2F0E94961C03C0E8
:1028C0008C2F0E94A61C0E94D91CF3C18C2F807FE4
:1028D000CF70803211F0C295C07FDD2319F0D13066
:1028E000C9F022C0112371F0002341F0013031F40E
:1028F0000E94C01C8C2B0E94C61CDBC10E94C01C05
:102900008C2B46C1002319F0013009F4D2C10E947A
:10291000CF1C18C0112321F0063008F0CAC10EC028
:10292000053008F0C6C10EC0112351F0002331F06C
:10293000F701858180FF74C18F7085838C2F28C13A
:1029400001117FC18C2F2AC18C2F869586958370AB
:1029500090E0009719F0019761F0ABC1112321F0CD
:102960008D2F9C2F937002C080E090E00E942A116E
:10297000B0C1112321F08D2F9C2F937002C080E0F5
:1029800090E00E944011A5C11123F9F0D53F51F00C
:10299000D63F71F0D43FA9F480917E0290917F02DE
:1029A00081600BC080917E0290917F02826005C0A1
:1029B00080917E0290917F02846090937F02809349
:1029C0007E028D2F0E9457211EC0D53F51F0D63F69
:1029D00071F0D43FA9F480917E0290917F028E7FA6
:1029E0000BC080917E0290917F028D7F05C0809107
:1029F0007E0290917F028B7F90937F0280937E0274
:102A00008D2F0E94BF210E94442263C18C2F8370AE
:102A100009F050C0111159C18D2F8295869587708C
:102A2000880F880F9D2F9F70492E512C612C712C7F
:102A3000082E04C0440C551C661C771C0A94D2F75F
:102A4000D4FF14C00FE010E020E030E0B901A8018D
:102A500004C0440F551F661F771F8A95D2F7CB011C
:102A6000BA01609570958095909503C060E070E024
:102A7000CB01C695C695C370D0E0C230D10561F0D8
:102A8000C330D10581F064297529862997292197BA
:102A900071F00E94C71A19C16429752986299729DE
:102AA0000E94D91A12C10E94C71AC301B2010E9422
:102AB000B51A0BC1112319F08C2F817001C08695B6
:102AC000882309F402C18D2F829586958770880F1F
:102AD000880F9D2F9F70492E512C612C712C082E30
:102AE00004C0440C551C661C771C0A94D2F7D4FF12
:102AF00014C00FE010E020E030E0B901A80104C0EC
:102B0000440F551F661F771F8A95D2F7CB01BA0174
:102B1000609570958095909503C060E070E0CB0162
:102B2000C695C695C3704C2F50E04230510569F0F0
:102B30004330510589F06429752986299729413048
:102B4000510571F00E948D1BC0C06429752986292A
:102B500097290E949F1BB9C00E948D1BC301B2011F
:102B60000E947B1BB2C08D2F90E0FC01E05EF1095A
:102B7000E531F10508F050C0E858FF4F0C94832E62
:102B8000DF708C2F8F71112331F00E94141B8D2F59
:102B90000E94F0138EC00E94351B8D2F0E94F713E8
:102BA00088C0112341F0053008F083C08C2F8F714D
:102BB0000E945A1B7EC0063008F07BC0F7CF11235D
:102BC00039F08C2F8F710E94141B73C01123C9F32D
:102BD0008C2F8F710E94351B6CC0112329F08C2F14
:102BE0008F710E94FF1A65C00E94FA1A62C01123F9
:102BF00049F0CF718C2F0E94141B63E08C2F0E9430
:102C00000F1D57C081E00E94241D023008F451C0FE
:102C100082E00E94241D4DC0112331F0002389F26F
:102C20008D2F0E946A1245C0002391F2D93349F4D6
:102C30005FEF67EE73E0515060407040E1F700C015
:102C400000008D2F0E94881334C04C2F4F706D2FC1
:102C5000C7010E940F060E94261A3BC0111139C0FD
:102C6000CF70D0E0C230D10599F03CF4209769F0E4
:102C70002197F9F40E9430232CC0C430D10571F0A3
:102C800054F02597B1F480E00AC00E94132321C0BC
:102C90000E946F231EC00E9476231BC085E00E9405
:102CA000992317C04C2F4F706D2FC7010E94120639
:102CB00010C088E0C816D10441F05CF0EAE0CE1AFA
:102CC000D108F2E0CF16D10420F40E94F6100E9441
:102CD0007F03BB20F1F00E94821C80FD1AC0F70127
:102CE00012820E947C1C0E94141BC7010E9497162E
:102CF0000E947C1CDF91CF911F910F91FF90EF906C
:102D0000DF90CF90BF907F906F905F904F900C942A
:102D1000351BDF91CF911F910F91FF90EF90DF90C6
:102D2000CF90BF907F906F905F904F9008950F93DA
:102D30001F93CF93DF93EC01888199812B813C8194
:102D4000232BB9F09F3F11F48F3F99F0CE010E94E1
:102D50009103882371F0688179818A810E94591CCE
:102D60008C010E94B11B0E94B21AB801CE010E94D0
:102D7000FE13DF91CF911F910F9108950E94AD1C1A
:102D80000E94BD1C0E94D91C0E94EA220E9444227B
:102D900080E090E00E942A1180E090E00C944011C5
:102DA00080910D0190910E010E94421E0C94BE165E
:102DB0000E949D1C0C94D016E92FE295EF70F0E074
:102DC0003297EE30F105B0F4E357FF4F0C94832EA9
:102DD000803F91F018F4803E68F40EC0843F51F4B7
:102DE0000BC0803E48F0813F29F406C093FB882742
:102DF00080F9089580E0089581E008950E944E1CB6
:102E00000E94DC160895CF93DF9300D000D01F926C
:102E1000CDB7DEB70F900F900F900F900F90DF910E
:102E2000CF910895CF93DF9300D000D000D0CDB7DD
:102E3000DEB726960FB6F894DEBF0FBECDBFDF918A
:102E4000CF9108951F93CF93DF93C091830116E034
:102E500080918401C81799F0D0E01C9FF0011D9F5C
:102E6000F00D1124EB57FE4F408151816281738137
:102E7000848195810E9412172196C770E9CFDF9156
:102E8000CF911F9108954091B5015091B601609185
:102E9000B7017091B8018091B9019091BA010C9479
:102EA00012178091BA0182958F7009F054C08091F9
:102EB000B701882309F44FC080918301A091840158
:102EC0006091B5017091B6014091B8015091B9017E
:102ED000B6E08A1709F43FC090E041155105C1F1F1
:102EE0007F3F11F46F3FA1F1B89FF001B99FF00D42
:102EF0001124EB57FE4F218172132AC020816213E7
:102F000027C02281211124C0238134812417350751
:102F100010F421503109241B350B283C3105C0F435
:102F20002091BA012F7020612093BA0126E0289FDA
:102F3000F001299FF00D1124E657FE4F80818F701C
:102F40008061808385EB91E00E9497160C94221794
:102F500001968770BECF0895CF92DF92EF92FF92D5
:102F60000F931F93CF93DF93CDB7DEB762970FB662
:102F7000F894DEBF0FBECDBF8C0185E0F801DE0105
:102F80001D9601900D928A95E1F7D8014C9111960A
:102F90005C91119712966C9112971396CD90DC90DC
:102FA00014973091B5017091B6018091B80190915C
:102FB000B901009709F46BC17F3F19F43F3F09F451
:102FC00066C1E090B701EE2009F4C0C02091BA01BB
:102FD000C816D90628F0F601E81BF90BCF0104C08A
:102FE000809590958C0D9D1DFF24F394883C910550
:102FF00078F0F12C207F09F0C6C07C2DD98AC88AD0
:1030000089890E94031785EB91E00E949716B1C051
:10301000822F807F09F046C0751314C0341312C08C
:10302000611110C02F7020612093BA010E944317D4
:1030300085EB91E00E9497168091BA01D801159610
:103040008C932EC0CD2819F15F3F11F44F3FF9F05A
:10305000F62E61111CC0809183012091840136E01D
:10306000821709F45AC090E0389FF001399FF00DA3
:103070001124EB57FE4F7181571306C0708147131F
:1030800003C07281711103C001968770E9CFF62EDB
:10309000662309F427C18091BA0181608093BA0147
:1030A000F12C20C1751308C0341306C0611104C08F
:1030B0008091BA01D801C3C04D875E878D859E85FA
:1030C0006A8B0E94FE166A898823E1F16623D1F19A
:1030D0002091BA01822F82958F7090E0029774F050
:1030E0008091B5019091B60198878F831986DB8610
:1030F000CA862C87CE0107960E94971686E0F801B3
:10310000A5EBB1E001900D928A95E1F70E9451176D
:103110000E944317FF24F394E5C04D875E878D8599
:103120009E850E944E1C292F22952F7030E0223060
:1031300031050CF0CBC09F7009F0C5C0805E8830AF
:1031400008F4D0C0C8010E949716E4CFC816D9066B
:1031500008F453C0F601E81BF90BCF01883C910538
:1031600008F450C0F12C7C2DD98AC88A89890E9424
:103170000317E5EBF1E086E0DF011D928A95E9F7A0
:103180000E944317AFC0751314C0341312C06111ED
:1031900010C08091BA01F8018583C8010E9497167A
:1031A00086E0E5EBF1E0DF011D928A95E9F7FE2C60
:1031B00099C04D875E878D859E856A8B0E94FE161D
:1031C0006A89882309F4BECF662309F4BBCF209116
:1031D000BA01822F82958F7090E002970CF48ECF07
:1031E0008091B5019091B6019A8389831B82DD821B
:1031F000CC822E83CE0101967FCF809590958C0D49
:103200009D1DACCFF62E662309F49CCF75132EC0FE
:1032100034132CC02091BA0120FD1FC0822F82954B
:103220008F70D9F0D80115962C9315978F3049F0EF
:103230008F5F982F9295907F822F8F70892B159694
:103240008C93C8010E94971686E0F801A5EBB1E0C7
:1032500001900D928A95E1F793CF86E0F801A5EBF6
:10326000B1E001900D928A95E1F73CC04D875E87F1
:103270008D859E850E94FE16811140CF8091BA01F6
:1032800081608093BA01C8010E9497162BC0662303
:1032900009F458CF4D875E878D859E850E94FE1666
:1032A000F82E882309F44ECF86E0F801A5EBB1E0B3
:1032B00001900D928A95E1F785EB91E00E946412EE
:1032C0000E9451175DCF811139CF0CC024303105D8
:1032D0000CF038CF9F7009F431CFF8019581907FC1
:1032E00009F02CCF8F2D62960FB6F894DEBF0FBE7B
:1032F000CDBFDF91CF911F910F91FF90EF90DF90A5
:10330000CF9008951F93CF93DF93CDB7DEB72C975F
:103310000FB6F894DEBF0FBECDBF4F8358876987C5
:103320007A878B879C87CE0107960E94AC178823EB
:1033300069F08F8198852A853B85232BF1F19F3F8A
:1033400009F063C08F3F09F060C037C086E0FE011E
:103350003796DE01119601900D928A95E1F76F8103
:103360007885EA85FB85309741F17F3F11F46F3F07
:1033700021F12091840130E0C901019687709927DD
:103380004091830150E08417950709F447C0698391
:103390007A83FD83EC8396E0929FD001939FB00DDA
:1033A0001124AB57BE4FFE01319601900D929A95B4
:1033B000E1F7809384010E94221716E08091830137
:1033C000909184018917C1F1189FC00111248B5776
:1033D0009E4F0E94AC17882379F1E09183011E9FD4
:1033E000F0011124EB57FE4F4081518162817381BE
:1033F000848195810E9412178091830190E001964B
:103400008770992780938301D9CF4F81588569852B
:103410007A858B859C850E941217CFCF0E94D81683
:103420001092840110928301E5EBF1E086E0DF0168
:103430001D928A95E9F7C1CF2C960FB6F894DEBF9E
:103440000FBECDBFDF91CF911F910895EF92FF92F4
:103450000F931F93CF93DF938C01892B09F46CC0DA
:10346000F12CEE24E394E8012196F801849184374D
:1034700040F4843008F051C0813081F0823019F17D
:103480005BC0853709F444C0A8F19CE7980F9037DA
:1034900008F052C08F770E94881341C00E5F1F4F03
:1034A000FE01C49180E28C0F883048F4C7708E2DE5
:1034B00001C0880FCA95EAF70E94B01C14C08C2F77
:1034C0000E946A122DC00E5F1F4FFE01C49180E260
:1034D0008C0F883058F4C7708E2D01C0880FCA95A4
:1034E000EAF70E94B61C0E94D91C1AC08C2F0E94B9
:1034F000881316C00E5F1F4FFE01C491CC2381F0CC
:103500008FE99FE00197F1F700C00000C150F6CFAE
:103510000E5F1F4FFE01F49003C00E946A128E01DD
:103520008F2D882309F49FCFEFE9FFE03197F1F762
:1035300000C000008150F5CFDF91CF911F910F9116
:10354000FF90EF90089508950C94A31A0E94A41A76
:103550006093F1017093F2018093F3019093F40171
:103560000C94BE1608950C94A61A0F931F93009105
:10357000F1011091F2012091F3013091F401602BDF
:10358000712B822B932B1F910F910C94A61A0F93E2
:103590001F930091F1011091F2012091F3013091FC
:1035A000F40160237123822393231F910F910C94C4
:1035B000A61A0F931F930091F1011091F20120912F
:1035C000F3013091F40160277127822793271F911F
:1035D0000F910C94A61A08950C94EB1A0E94EC1A01
:1035E0006093ED017093EE018093EF019093F001F1
:1035F0000C94BE1660E070E0CB010C94EE1A0F93B1
:103600001F9341E050E060E070E08A019B0104C03C
:10361000000F111F221F331F8A95D2F7C901B8016D
:103620001F910F910C94EE1A0F931F9341E050E0FD
:1036300060E070E004C0440F551F661F771F8A9535
:10364000D2F78091ED019091EE01A091EF01B09140
:10365000F0018A019B01082B192B2A2B3B2BC90156
:10366000B8011F910F910C94EE1A0F931F9341E034
:1036700050E060E070E004C0440F551F661F771FE4
:103680008A95D2F740955095609570958091ED019F
:103690009091EE01A091EF01B091F0018A019B01A0
:1036A000082319232A233B23C901B8011F910F9135
:1036B0000C94EE1A0F931F9341E050E060E070E02D
:1036C00004C0440F551F661F771F8A95D2F780915B
:1036D000ED019091EE01A091EF01B091F0018A010E
:1036E0009B01082719272A273B27C901B8011F91E9
:1036F0000F910C94EE1A0F931F930091ED0110910E
:10370000EE012091EF013091F001602B712B822BA3
:10371000932B1F910F910C94EE1A0F931F9300910E
:10372000ED011091EE012091EF013091F001602345
:103730007123822393231F910F910C94EE1A0F9300
:103740001F930091ED011091EE012091EF01309156
:10375000F00160277127822793271F910F910C9406
:10376000EE1A08952FE0929F800D1124A82FA695A0
:10377000A695A695877051E001C0550F8A95EAF786
:1037800085E0A89FD001112420E030E070E0F9012D
:10379000EA0FFB1FE554FE4F4081CB01022E02C011
:1037A000969587950A94E2F78170992781958427E9
:1037B0008523842780832F5F3F4F2530310539F7DC
:1037C00008952FE0929F800D1124682F66956695CD
:1037D0006695982F977085E0689FB001112440E0AE
:1037E00050E080E0FA01E60FF71FE554FE4F20811C
:1037F00030E0092E02C0369527950A94E2F7217031
:103800003327042E01C0220F0A94EAF7822B4F5F60
:103810005F4F4530510531F70895BF92CF92DF9247
:10382000EF92FF920F931F93CF93DF938C01C09081
:10383000F101D090F201E090F301F090F401809159
:10384000ED019091EE01A091EF01B091F001C82A35
:10385000D92AEA2AFB2ACFE1D0E0D701C6010C2EF3
:1038600004C0B695A795979587950A94D2F780FFDF
:1038700007C0BC2EB8018C2F0E942D06019719F4A9
:10388000219758F7B12C8B2DDF91CF911F910F917C
:10389000FF90EF90DF90CF90BF900895CF93DF938C
:1038A000EC010E940D1CBE010E942D06DF91CF91FC
:1038B00008951F93CF93DF93EB0190918201992399
:1038C00021F0CB010E944E1C13C0882349F0CB018C
:1038D0000E940D1C182F682FCE010E94B21B04C03D
:1038E000CB010E94E11B182FBE01812F0E942D06E3
:1038F000DF91CF911F9108958091F5018595859570
:10390000859508958091F501877008959091F5014E
:10391000977081E009F480E008958091190208957C
:1039200090911902892B80931902089580959091A6
:10393000190289238093190208951092190208959B
:1039400090911802892B8093180208958095909188
:10395000180289238093180208951092180208957E
:1039600090911702892B809317020895809590916A
:103970001702892380931702089510921702089561
:103980008091F601089508950C94C31C9091F6015E
:10399000981721F08093F6010C94C41C089580912F
:1039A000F601882329F01092F60180E00C94C41CE3
:1039B0000895E0910D01F0910E018091190280832C
:1039C000E0910D01F0910E01908180911802892BF8
:1039D0008083E0910D01F0910E019081809117029A
:1039E000892B80838091F601882381F0E0910D017D
:1039F000F0910E019081892B808380910D0190912F
:103A00000E010E94C71D81110E94CF1C80910D01E3
:103A100090910E010C94021108950C940C1D98E0E5
:103A2000899F90011124262B2093F5010E94141BDD
:103A30008091F5018595859585950C940D1D1092C5
:103A4000F50180E00C940D1D2091F50180958223F5
:103A50008093F501982F977079F430E0482F082E65
:103A6000000C550B2417350739F0859585958595FC
:103A70000E94351B0C941F1D089580E090E00E9469
:103A8000BE2E21E08D3E9E4F09F020E0822F08954A
:103A900082E090E00C94B02E682F82E090E00C94CD
:103AA000C42E83E090E00C94B02E682F83E090E069
:103AB0000C94C42E84E090E00C94B02E682F84E027
:103AC00090E00C94C42E86E090E00C94B02E682F09
:103AD00086E090E00C94C42EAB01BC018FE090E036
:103AE0000C94D62EAB01BC0183E190E00C94D62E51
:103AF00060E070E0CB010C94721D60E070E0CB01DF
:103B00000E946C1D0C94781D6DEE7EEF80E090E0BD
:103B10000E94E22E60E082E090E00E94C42E60E00D
:103B200083E090E00E94C42E1092F1011092F20105
:103B30001092F3011092F40160E084E090E00E94A2
:103B4000C42E60E085E090E00E94C42E60E086E034
:103B500090E00E94C42E6FEF87E090E00E94C42E98
:103B600040E050E0BA0188E090E00E94D62E60E08C
:103B70008DE090E00E94C42E40E050E0BA0188E160
:103B800090E00E94D62E0C947D1D0C94841DFC01A7
:103B9000329680911F01882331F08091840287FF43
:103BA00002C09EE101C096E080E0915028F0219192
:103BB0002223D9F38F5FF9CF08959C01FC0132963F
:103BC0009FEF80E04191461789F09F3F19F4411122
:103BD00001C0982F8F5F8630A9F79F3F39F0F90118
:103BE000E90FF11D97FDFA95628308950895FC0190
:103BF000329608962081261301C010823196E8176C
:103C0000F907C1F70895262F2695269526952E317A
:103C100068F4FC01E20FF11D677021E030E001C0A3
:103C2000220F6A95EAF78281282B22830895262F96
:103C30002695269526952E3170F4FC01E20FF11D94
:103C4000677021E030E001C0220F6A95EAF7209505
:103C5000828128232283089520911F01222329F0A5
:103C60002091840227FD0C94031E0C94DD1D2091ED
:103C70001F01222329F02091840227FD0C94171E96
:103C80000C94F71D20911F01FC013296222331F084
:103C90008091840287FF02C08EE101C086E0DF01CF
:103CA0001D928A95E9F7089508950C94541E0E9478
:103CB000551E80918B02843061F110921B0220E42A
:103CC00088E190E00FB6F894A895809360000FBE4D
:103CD0002093600080E00E94080380E00E947F0340
:103CE0000E94551E83B7817F846083BF83B7816044
:103CF00083BF7894889583B78E7F83BF0FB6F8947F
:103D0000A8958091600088618093600010926000A7
:103D10000FBE089508950895CF930E948A1E0E94B1
:103D20000C090E948B1EC0E08C2F0E94A409892BD5
:103D300029F4CF5FC530C1F780E001C081E0CF91A9
:103D4000089508950C94A11E0E94D8160E94F62290
:103D50000E94F6100E947F030C94A21E1F920F92E5
:103D60000FB60F9211248F939F93AF93BF938091BF
:103D70001B02811113C08091800290918102A09159
:103D80008202B09183024196A11DB11D80938002F1
:103D900090938102A0938202B0938302BF91AF916E
:103DA0009F918F910F900FBE0F901F90189582E0FA
:103DB00084BD93E095BD9AEF97BD80936E00089502
:103DC0002FB7F8948091800290918102A091820295
:103DD000B09183022FBF0895CF92DF92EF92FF92AE
:103DE0000F931F932FB7F894409180025091810256
:103DF00060918202709183022FBF6A017B01EE24E1
:103E0000FF248C0120E030E0C016D106E206F30664
:103E100010F4415051099A01281B390BC9011F9117
:103E20000F91FF90EF90DF90CF90089578941F92BC
:103E30000F920FB60F9211248F939F93AF93BF935E
:103E40008091800290918102A0918202B0918302C0
:103E50000196A11DB11D8093800290938102A093D1
:103E60008202B0938302BF91AF919F918F910F9087
:103E70000FBE0F901F90189581E08093E00080E2C4
:103E80008093D8001092C9008FE19EE40197F1F76A
:103E900000C0000087E090EBDC01809394029093D7
:103EA0009502A0939602B09397029CE088E10FB62A
:103EB000F894A895809360000FBE90936000FFCFA8
:103EC000AF92BF92CF92DF92EF92FF920F931F9328
:103ED000CF93C0E0CC24C394D12CE82EF12C8C2FAE
:103EE0000E94A4095C0100E010E09601002E02C0CF
:103EF000220F331F0A94E2F72A213B21232B31F4AE
:103F00000F5F1F4F0F30110581F70AC0602F7C2F04
:103F100080E00E941306E816F90691F781E004C0DC
:103F2000CF5FC530E1F680E0CF911F910F91FF90F8
:103F3000EF90DF90CF90BF90AF900895CF93C82FB0
:103F40008CE20E94601F882321F08C2FCF910C946B
:103F5000601F80E0CF910895CF930E943D1D811195
:103F600002C00E94C51DC5E6C15049F00E940C095F
:103F70008FE39CE90197F1F700C00000F5CF89E2DB
:103F80000E949E1F81110FC18AE20E949E1F811113
:103F90000E94C51D85E00E949E1F81110E943C1F4A
:103FA0000E94481D80931A0287E00E949E1F88236A
:103FB000A9F18BE10E949E1F882351F080911A0283
:103FC00081FB222720F991E0922790FB81F90EC016
:103FD0008EE00E949E1F882361F080911A0282FB6E
:103FE000222720F991E0922790FB82F980931A0210
:103FF00015C080E10E949E1F90911A02882341F013
:1040000093FB222720F981E0822780FB93F904C0EB
:10401000892F809580FB90F990931A0280911A0263
:104020000E944C1D0E945A1D90E09093850280933F
:10403000840280EE0E949E1F882341F080918402BA
:10404000982F909590FB80F98093840289E30E94D9
:104050009E1F882359F08091840281FB222720F93A
:1040600091E0922790FB81F98093840282EE0E9476
:104070009E1F882359F08091840282FB222720F919
:1040800091E0922790FB82F98093840286EE0E9451
:104090009E1F882359F08091840283FB222720F9F8
:1040A00091E0922790FB83F98093840283EE0E9433
:1040B0009E1F882359F08091840284FB222720F9D7
:1040C00091E0922790FB84F98093840285E30E941B
:1040D0009E1F882359F08091840285FB222720F9B6
:1040E00091E0922790FB85F98093840281E30E94FE
:1040F0009E1F882359F08091840286FB222720F995
:1041000091E0922790FB86F98093840281E10E94DE
:104110009E1F882359F08091840287FB222720F973
:1041200091E0922790FB87F980938402809184022A
:104130000E945E1D87E20E949E1FC82F8EE10E9492
:104140009E1F8111C2608FE10E949E1F8111C46079
:1041500080E20E949E1F8111C86081E20E949E1F22
:104160008111C06182E20E949E1F8111C06283E2C0
:104170000E949E1F8111C06484E20E949E1F8823BA
:1041800011F0C06802C0CC2329F08C2F0E94551D6D
:104190006C2F03C00E94511D682F70E080E090E0FA
:1041A000CF910C94B31ACF91089580911E0280FF95
:1041B0000BC06091120185E0689FB00111247595D4
:1041C0006795759567952BC081FF09C060911201B5
:1041D00085E0689FB00111247595679520C082FF26
:1041E00007C06091120185E0689FB001112417C0DB
:1041F00090911F029923D1F060911101961788F7D1
:104200002091120185E0289F90011124929FA00126
:10421000939F500D112470E0CA010E944D2E60380A
:10422000710540F46115710539F002C065E070E078
:10423000862F08958FE7089581E0089580911E02EA
:1042400080FF08C06091100170E0759567957595C5
:10425000679521C081FF06C06091100170E07595DF
:10426000679519C082FF04C06091100170E010C012
:1042700090911F029923C1F060910F019617A0F74A
:1042800080911001899FC001112470E00E944D2E81
:104290006038710528F46115710521F0862F0895A5
:1042A0008FE7089581E0089561E070E0F4CF803FEA
:1042B00021F40E94D520819504C0813F29F40E94F9
:1042C000D520809323020895823F21F40E94D520B7
:1042D000819504C0833F29F40E94D5208093220257
:1042E0000895893F19F40E941E2105C08A3F31F4C8
:1042F0000E941E2181958093240208958B3F21F412
:104300000E941E21819504C08C3F29F40E941E2129
:10431000809325020895843F21F4809121028160D9
:1043200017C0853F21F480912102826011C0863F31
:1043300021F48091210284600BC0873F21F4809199
:104340002102886005C0883F31F48091210280619C
:104350008093210208958D3F21F480911E02816097
:104360000BC08E3F21F480911E02826005C08F3FFA
:1043700029F480911E02846080931E020895803F7C
:1043800039F48091230287FF6CC01092230269C028
:10439000813F29F4809123021816BCF362C09091EA
:1043A0002202823F29F497FF5CC01092220259C07A
:1043B000833F19F41916CCF354C0893F41F480911E
:1043C000240218160CF04DC0109224024AC08A3FF5
:1043D00029F48091240287FF44C0F6CF8B3F39F443
:1043E0008091250287FF3DC0109225023AC08C3F84
:1043F00029F4809125021816BCF333C0843F21F4C0
:10440000809121028E7F17C0853F21F48091210287
:104410008D7F11C0863F21F4809121028B7F0BC0DC
:10442000873F21F480912102877F05C0883F31F4C6
:10443000809121028F7E8093210213C08D3F21F451
:1044400080911E028E7F0BC08E3F21F480911E0250
:104450008D7F05C08F3F29F480911E028B7F809352
:104460001E028091220281110EC0809123028111CF
:104470000AC080912402811106C080912502811119
:1044800002C010921F02089580E292E00E941C1167
:104490000E94E01E90931D0280931C0208951F93BA
:1044A000CF93DF9380911C0290911D020E94EC1E1D
:1044B000AC0190911F02992321F02091130130E06B
:1044C00006C0209114018AE0289F90011124421710
:1044D000530708F47BC080912202C0912302D0913F
:1044E000240210912502811107C0C1116BC0D111A6
:1044F00069C0111167C06AC09F3F19F09F5F909318
:104500001F02181624F40E94D52080932202809165
:10451000220287FF05C00E94D52081958093220248
:104520001C1624F40E94D52080932302809123023C
:1045300087FF05C00E94D52081958093230230918A
:1045400022023323E1F0209123022223C1F045EB24
:104550003403C0011124892F990F990B009709F496
:1045600081E08093220235EB2303C0011124892FBF
:10457000990F990B009709F481E0809323021D168F
:1045800024F40E941E21809324028091240287FF3C
:1045900005C00E941E21819580932402111624F4E7
:1045A0000E941E21809325028091250287FF05C06D
:1045B0000E941E21819580932502DF91CF911F914A
:1045C0000C9444229F3F09F099CFA1CFDF91CF9166
:1045D0001F910895E0E2F2E086E0DF011D928A95E6
:1045E000E9F710921F0210921E0208950E943D1DCD
:1045F000811102C00E94C51D0E94631D8093860226
:10460000282F269530E02630310524F081708A600D
:10461000809386028091860280FF02C0869501C049
:1046200080E00C94080320918602822F8695482F03
:1046300050E04530510544F48F5F982F990F822F39
:104640008170892B8093860280918602816080939D
:1046500086020E94671D8091860286950C9408034D
:1046600080918602982F969591F09158990F8170BC
:10467000892B809386028E7F91E009F490E08091EF
:10468000860290FB80F9809386020E94671D8091CC
:10469000860286950C9408038091860280FD11C0E5
:1046A000816080938602813019F483E080938602D2
:1046B000809186020E94671D8091860286950C94E7
:1046C000080308958091860280FF08C08E7F809342
:1046D00086020E94671D80E00C9408030895809173
:1046E000860280FD0C9462230C944C2390918602E8
:1046F000892F86958F5F8F779170863028F4880F89
:10470000892B8093860202C0909386028091860254
:104710008E7F91E009F490E08091860290FB80F911
:10472000809386020E94671D8091860286950C9474
:104730000803863008F085E0880F9091860291701A
:10474000892B809386028E7F91E009F490E080911E
:10475000860290FB80F9809386020E94671D8091FB
:10476000860286950C9408038091460208950F9363
:104770001F93CF93DF9300D01F92CDB7DEB78C018C
:104780000E942726823011F0843021F584E089834D
:104790001B830A8382E08093E9008FEF9091E80009
:1047A000815095FD06C095ED9A95F1F700008111B5
:1047B000F5CF8091E80085FF0DC040E050E063E058
:1047C00070E0CE0101960E9444268091E8008E7729
:1047D0008093E8000F900F900F90DF91CF911F9181
:1047E0000F910895CF93DF9300D01F92CDB7DEB71E
:1047F00020918B02243031F523E0298380589109E0
:104800009B838A8382E08093E9008FEF9091E80098
:10481000815095FD06C095ED9A95F1F70000811144
:10482000F5CF8091E80085FF0DC040E050E063E0E7
:1048300070E0CE0101960E9444268091E8008E77B8
:104840008093E8000F900F900F90DF91CF91089523
:10485000CF93DF93EC010E942726823011F0843041
:10486000F9F482E08093E9009FEF8091E800915095
:1048700085FD06C085ED8A95F1F700009111F5CF11
:104880008091E80085FF0CC040E050E066E070E0F9
:10489000CE010E9444268091E8008E778093E80044
:1048A000DF91CF910895CF93DF93EC010E942726EB
:1048B000823011F08430D9F580911F01882339F0BE
:1048C0008091840287FF03C060E282E002C068E05A
:1048D00081E08093E9008FEF9091E800815095FD91
:1048E00006C095ED9A95F1F700008111F5CF809102
:1048F000E80085FF1CC080911F01811105C040E0C8
:1049000050E068E070E003C070E040E050E0CE01AD
:104910000E9444268091E8008E778093E80080E230
:10492000FE01A6E2B2E001900D928A95E1F7DF91D7
:10493000CF91089580918A02811109C00E94D927E0
:104940000E9436288091E20084608093E2000895FE
:1049500010928A020895089508950C94A41E42E0CE
:1049600061EC81E00E94532742E261EC82E00C940A
:10497000532780918D02833009F460C030F4813078
:1049800071F0823009F499C008958A3009F485C025
:104990008B3009F46BC0893009F0A7C020C080912A
:1049A0008C02813A09F0A1C08091E800877F809352
:1049B000E8008091900290919102892B21F460E2AD
:1049C00086E292E003C060E080E090E070E00E9448
:1049D0008F268091E8008B778093E800089580917E
:1049E0008C02813209F081C08091900290919102F5
:1049F000029708F07AC08091E800877F8093E800F2
:104A00008091E80082FD05C080918B028111F8CF72
:104A10006CC02091F3008091F20090E0922B0297FD
:104A200029F48091F1008B7F813021F48091F10095
:104A3000809346028091E8008B7753C080918C026E
:104A4000813A09F052C08091900290919102892B95
:104A500009F04BC08091E800877F8093E800809147
:104A6000E80080FFFCCF80911F0136C080918C024E
:104A70008132D9F58091900290919102892BA9F50C
:104A80008091E800877F8093E8000E9488278091CA
:104A90008E0280931F010C94D81680918C02813273
:104AA00021F58091E800877F8093E8000E948827A5
:104AB00080918F0280934702089580918C02813A01
:104AC000A1F48091E800877F8093E8008091E8005E
:104AD00080FFFCCF809147028093F1008091E80035
:104AE0008E778093E8000C948827089584B7877F99
:104AF00084BF0FB6F894A895809160008861809378
:104B00006000109260000FBE80E8809361001092F8
:104B100061000E9464110E94D9270E94362880916A
:104B2000E20084608093E20078940E94C52A0E948B
:104B30006C1185E191E00E94F11080918B0285302B
:104B400069F40E94571E809189028823B1F30E9464
:104B50008C1E882391F30E942E26EFCF0E9478119D
:104B60000E947C10EACF0C94B525292F33272330DF
:104B70003105C9F064F42130310581F0223031056E
:104B800009F04CC08BE390E020E034E04BC02132D0
:104B9000310521F12232310589F140C082E190E0F6
:104BA0002BE334E03FC099278130910571F02CF45C
:104BB000892BA1F5ECEFF3E00DC08230910541F0B7
:104BC000039761F5E8EDF3E005C0EAEEF3E002C01B
:104BD000EEEDF3E0849190E09F0124C06115710532
:104BE00041F061307105D1F489E090E02BE234E0CE
:104BF00019C089E090E022E134E014C0611571052C
:104C000041F06130710551F480EC90E02DE434E026
:104C100009C080E490E02DE035E004C080E090E041
:104C200020E030E0FA013183208308950895CF9386
:104C3000C82F0E941626C0934802CF9108958091F4
:104C40008B02843011F081E0089582E00895809114
:104C50004802811102C00C941F26089580E189BD8D
:104C600082E189BD09B400FEFDCF8091D8008F7D1F
:104C70008093D8008091E00082608093E000809172
:104C8000E00081FDFCCF0895CF92DF92EF92FF927A
:104C90000F931F93CF93DF93EC018B016A010E9466
:104CA000A727811133C0C114D10439F0F6018081E6
:104CB0009181081B190BC80FD91FE12CF12C01158C
:104CC000110519F18091E80085FD16C08091E8007A
:104CD0008E778093E800C114D10449F0F6018081F9
:104CE0009181E80EF91EF182E08285E00FC00E94FA
:104CF000A727882321F30AC089918093F1000150EE
:104D00001109FFEFEF1AFF0ADACF80E0DF91CF91B0
:104D10001F910F91FF90EF90DF90CF900895209119
:104D20009202309193022617370748F061157105FA
:104D300039F42091E8002E772093E80001C0B901F2
:104D400040E061157105A9F120918B02222309F43D
:104D500043C0253009F442C02091E80023FD40C043
:104D60002091E80022FD32C02091E80020FFE9CF29
:104D70004091F3002091F20030E0342BFC01CF0190
:104D80006115710559F02830310540F48191809307
:104D9000F100615071092F5F3F4FF1CF41E02830A2
:104DA000310509F040E02091E8002E772093E800DB
:104DB000C8CF4111C9CF0AC080918B02882361F00E
:104DC000853061F08091E80083FD0AC08091E800A1
:104DD00082FFF2CF80E0089582E0089583E0089595
:104DE00081E00895209192023091930226173707AF
:104DF00048F06115710539F42091E8002E77209371
:104E0000E80001C0B901FC0120E06115710591F1D4
:104E100080918B02882309F440C0853009F43FC09B
:104E20008091E80083FD3DC08091E80082FD2FC0A5
:104E30008091E80080FFE9CF2091F3008091F2009B
:104E400090E0922B6115710559F08830910540F47E
:104E500024912093F1003196615071090196F2CFAF
:104E600021E0089709F020E08091E8008E77809398
:104E7000E800CBCF2111CCCF0AC080918B028823D0
:104E800061F0853061F08091E80083FD0AC0809177
:104E9000E80082FFF2CF80E0089582E0089583E089
:104EA000089581E00895982F973058F59093E90080
:104EB000981739F07091EC002091ED005091F000BE
:104EC00003C0242F762F50E021FF19C03091EB0052
:104ED0003E7F3093EB003091ED003D7F3093ED004D
:104EE0003091EB0031603093EB007093EC00209335
:104EF000ED005093F0002091EE0027FF07C09F5F68
:104F0000D3CF8F708093E90081E0089580E0089509
:104F100080918C0287FF11C08091E80082FD05C05E
:104F200080918B028111F8CF11C08091E8008B77BE
:104F30000BC080918B02882349F08091E80080FFAC
:104F4000F8CF8091E8008E778093E8000895209153
:104F5000E4003091E50095E64091EC00842F8170EB
:104F600040FF22C08091E80080FD1CC080918B0230
:104F7000882391F0853091F08091EB0085FD10C081
:104F80004091E4005091E5004217530729F39A013C
:104F9000915011F784E0089582E0089583E0089528
:104FA00081E0089580E008954091E80042FFDECF5F
:104FB00008950E9447280E944F28E0EEF0E080818B
:104FC00081608083E8EDF0E080818F77808319BC79
:104FD000A7EDB0E08C918E7F8C9380818F7E808353
:104FE00010928A0208950F931F93CF93DF930E942C
:104FF00047280E944F28C8EDD0E088818F778883AA
:1050000088818068888388818F7D888319BC10920D
:105010008B0210928702109289021092880200EE91
:1050200010E0F80180818B7F808388818160888394
:1050300042E060E080E00E945327E1EEF0E08081F2
:105040008E7F8083E2EEF0E08081816080838081CA
:1050500088608083F80180818E7F80838881806171
:105060008883DF91CF911F910F910895E8EDF0E0D3
:1050700080818F7E8083E7EDF0E080818160808396
:1050800084E082BF81E080938A020C94F327E8EDEC
:10509000F0E080818E7F80831092E200089510926C
:1050A000DA001092E10008951F920F920FB60F924E
:1050B00011242F933F934F935F936F937F938F931D
:1050C0009F93AF93BF93EF93FF938091E10082FF93
:1050D0000BC08091E20082FF07C08091E1008B7FCE
:1050E0008093E1000E94C42A8091DA0080FF1FC0F3
:1050F0008091D80080FF1BC08091DA008E7F809362
:10510000DA008091D90080FF0DC080E189BD82E185
:1051100089BD09B400FEFDCF81E080938B020E941F
:105120009A2405C019BC10928B020E94A824809179
:10513000E10080FF19C08091E20080FF15C08091DE
:10514000E2008E7F8093E2008091E2008061809394
:10515000E2008091D80080628093D80019BC85E07D
:1051600080938B020E94AC248091E10084FF30C0C8
:105170008091E20084FF2CC080E189BD82E189BD7D
:1051800009B400FEFDCF8091D8008F7D8093D800B8
:105190008091E1008F7E8093E1008091E2008F7E1C
:1051A0008093E2008091E20081608093E200809130
:1051B0008702882311F084E007C08091E30087FD17
:1051C00002C081E001C083E080938B020E94AD2485
:1051D0008091E10083FF29C08091E20083FF25C018
:1051E0008091E100877F8093E10082E080938B02D1
:1051F000109287028091E1008E7F8093E100809180
:10520000E2008E7F8093E2008091E20080618093D3
:10521000E20042E060E080E00E9453278091F000CD
:1052200088608093F0000E94AB24FF91EF91BF91C2
:10523000AF919F918F917F916F915F914F913F912E
:105240002F910F900FBE0F901F9018951F920F92E5
:105250000FB60F9211242F933F934F935F936F9349
:105260007F938F939F93AF93BF93CF93DF93EF93EE
:10527000FF93C091E900CF708091EC00D82FD170DE
:1052800080FDD0E81092E9008091F000877F809344
:10529000F00078940E946A291092E9008091F00051
:1052A00088608093F000CD2BCF70C093E900FF9110
:1052B000EF91DF91CF91BF91AF919F918F917F91AE
:1052C0006F915F914F913F912F910F900FBE0F9073
:1052D0001F9018951F93CF93DF93CDB7DEB7AA9792
:1052E0000FB6F894DEBF0FBECDBFECE8F2E088E069
:1052F0008E0F9091F10091938E13FBCF0E94B924F1
:105300008091E80083FF28C180918C0290918D02EA
:10531000492F50E04A30510508F01EC1FA01E55608
:10532000FF4F0C94832E803821F0823809F014C18D
:1053300008C08091880290918902992389F0826047
:105340000FC0809190028F70873008F005C1809364
:10535000E9008091EB0085FB882780F91092E90035
:105360009091E800977F9093E8008093F10010926D
:10537000F100D0C0282F2D7F09F0EEC0882319F04E
:10538000823061F0E9C080918E02813009F0E4C082
:10539000933009F080E0809389022EC080918E02C4
:1053A00081112AC0809190028F702FEF280F263034
:1053B00008F0D2C08093E9002091EB0020FF1CC0D0
:1053C000933021F48091EB00806214C09091EB0047
:1053D00090619093EB0021E030E0A90102C0440FFE
:1053E000551F8A95E2F74093EA001092EA008091F7
:1053F000EB0088608093EB001092E9008091E80058
:10540000877F8093E8000E948827A6C08111A4C0EE
:1054100010918E021F778091E3008078812B80931A
:10542000E3008091E800877F8093E8000E9488274E
:105430008091E80080FFFCCF8091E300806880933A
:10544000E300111102C082E001C083E080938B026F
:1054500083C08058823008F07FC080918E02909186
:105460008F028C3D53E0950779F583E08A838AE2C9
:1054700089834FB7F894DE01139620E03EE051E2B5
:10548000E32FF0E050935700E49120FF03C0E29532
:10549000EF703F5FEF708E2F90E0EA3010F0C7960C
:1054A00001C0C0968D939D932F5F243149F74FBF64
:1054B0008091E800877F8093E8006AE270E0CE0187
:1054C00001960E948F2615C0609190027091910202
:1054D000AE014F5F5F4F0E94B325BC01892BE1F104
:1054E0009091E800977F9093E80089819A810E94CB
:1054F000F2268091E8008B778093E8002DC08038F9
:1055000059F58091E800877F8093E80080918702B9
:105510008093F1008091E8008E7773CF81111CC0D9
:1055200090918E029230C0F48091E800877F809342
:10553000E800909387020E9488278091870281115A
:1055400006C08091E30087FD02C081E001C084E0D5
:1055500080938B020E94AF248091E80083FF0AC0F1
:105560008091E800877F8093E8008091EB00806263
:105570008093EB00AA960FB6F894DEBF0FBECDBFA6
:10558000DF91CF911F9108950895CF9380918B0261
:105590008823A1F0C091E900CF709091EC00892F91
:1055A000817090FD80E8C82B1092E9008091E8009E
:1055B00083FD0E946A29CF70C093E900CF910895BE
:1055C0005058BB27AA270E94F82A0C94A32C0E94AB
:1055D000952C38F00E949C2C20F039F49F3F19F450
:1055E00026F40C946B2C0EF4E095E7FB0C94652CE0
:1055F000E92F0E94B42C58F3BA1762077307840787
:10560000950720F079F4A6F50C94D62C0EF4E095CD
:105610000B2EBA2FA02D0B01B90190010C01CA016C
:10562000A0011124FF27591B99F0593F50F4503E17
:1056300068F11A16F040A22F232F342F4427585F09
:10564000F3CF469537952795A795F0405395C9F721
:105650007EF41F16BA0B620B730B840BBAF09150D9
:10566000A1F0FF0FBB1F661F771F881FC2F70EC078
:10567000BA0F621F731F841F48F48795779567954B
:10568000B795F7959E3F08F0B0CF9395880F08F037
:105690009927EE0F9795879508950E94612B0C949A
:1056A000A32C0E949C2C58F00E94952C40F029F4C9
:1056B0005F3F29F00C94652C51110C94D72C0C945D
:1056C0006B2C0E94B42C68F39923B1F3552391F30A
:1056D000951B550BBB27AA2762177307840738F061
:1056E0009F5F5F4F220F331F441FAA1FA9F335D0BE
:1056F0000E2E3AF0E0E832D091505040E695001C72
:10570000CAF72BD0FE2F29D0660F771F881FBB1F2B
:10571000261737074807AB07B0E809F0BB0B802D09
:10572000BF01FF2793585F4F3AF09E3F510578F035
:105730000C94652C0C94D72C5F3FE4F3983ED4F383
:10574000869577956795B795F7959F5FC9F7880F09
:10575000911D9695879597F90895E1E0660F771F5B
:10576000881FBB1F621773078407BA0720F0621BEC
:10577000730B840BBA0BEE1F88F7E095089529F49C
:1057800016F00C94652C0C94D62C0C946B2C0E9467
:10579000BC2CA8F39638A0F707F80F92E8942BE3F7
:1057A0003AEA48EB5FE70E94692D0F920F920F9241
:1057B0004DB75EB70F920E941F2DEAE4F1E00E9400
:1057C0006E2C4F915F91EF91FF91E595EE1FFF1FBA
:1057D00049F0FE57E0684427EE0F441FFA95E1F7C1
:1057E0004195550B0E94E92C0F9007FE0C94DD2C7F
:1057F00008950E94BC2C88F09F5798F0B92F9927E4
:10580000B751B0F0E1F0660F771F881F991F1AF0AB
:10581000BA95C9F714C0B13091F00E94D62CB1E00E
:1058200008950C94D62C672F782F8827B85F39F00D
:10583000B93FCCF3869577956795B395D9F73EF444
:1058400090958095709561957F4F8F4F9F4F0895EC
:10585000E89409C097FB3EF490958095709561950A
:105860007F4F8F4F9F4F9923A9F0F92F96E9BB27C0
:105870009395F695879577956795B795F111F8CF3C
:10588000FAF4BB0F11F460FF1BC06F5F7F4F8F4FA7
:105890009F4F16C0882311F096E911C0772321F09D
:1058A0009EE8872F762F05C0662371F096E8862F35
:1058B00070E060E02AF09A95660F771F881FDAF78C
:1058C000880F9695879597F9089597F99F6780E8CF
:1058D00070E060E008959FEF80EC0895DF93CF9330
:1058E0001F930F93FF92EF92DF927B018C016894DC
:1058F00006C0DA2EEF010E94662DFE01E894A59104
:105900002591359145915591A6F3EF010E94F82A12
:10591000FE019701A801DA9469F7DF90EF90FF90FC
:105920000F911F91CF91DF91089500240A941616CC
:10593000170618060906089500240A94121613067D
:10594000140605060895092E0394000C11F488230B
:1059500052F0BB0F40F4BF2B11F460FF04C06F5F27
:105960007F4F8F4F9F4F089557FD9058440F551FFD
:1059700059F05F3F71F04795880F97FB991F61F0D1
:105980009F3F79F087950895121613061406551F48
:10599000F2CF4695F1DF08C0161617061806991FB4
:1059A000F1CF86957105610508940895E894BB27A9
:1059B00066277727CB0197F908959B01AC0160E03A
:1059C00070E080E89FE30C944D2B0C94652C0C94B4
:1059D000C82D0E94BC2CD8F39923C9F3940F511DF4
:1059E000A3F39150504094F059F0882332F0660FA1
:1059F000771F881F91505040C1F79E3F51052CF7EB
:105A0000880F911D9695879597F908955F3FACF0A3
:105A1000983E9CF0BB27869577956795B79508F4D7
:105A2000B1609395C1F7BB0F58F711F460FFE8CF51
:105A30006F5F7F4F8F4F9F4FE3CF0C94D72CFA01AE
:105A4000DC01AA0FBB1F9B01AC01BF5728F4222722
:105A500033274427507820C0B75190F4AB2F00244F
:105A6000469537952795011CA395D2F3002071F038
:105A7000220F331F441FB395DAF30ED00C94E02AA3
:105A800061307105A0E88A07B94630F49B01AC018A
:105A90006627772788279078309621F020833183F6
:105AA0004283538308950E94662D0C94A32C0E9478
:105AB000952C38F00E949C2C20F0952311F00C942A
:105AC000652C0C946B2C11240C94D72C0E94B42CB4
:105AD00070F3959FC1F3950F50E0551F629FF00141
