:100000000C94A7010C94EE010C94EE010C94EE01FB
:100010000C94EE010C94EE010C94EE010C94EE01A4
:100020000C94EE010C94EE010C94FE1E0C94D11F66
:100030000C942B160C94EE010C94EE010C94EE0132
:100040000C94EE010C94EE010C94EE010C94EE0174
:100050000C94EE010C948C160C94EE010C94EE01B1
:100060000C94EE010C94EE010C94EE010C94EE0154
:100070000C94EE010C94EE010C94EE010C94EE0144
:100080000C94EE010C94EE010C94EE010C94EE0134
:100090000C94EE010C94EE010C94EE010C94EE0124
:1000A0000C94EE010C94EE010C94EE0129001E005C
:1000B0001F0020002100220023002400250026002C
:1000C00027002D002E002A002A002B00000014001B
:1000D0001A000800150017001C0018000C00120080
:1000E00013002F003000310039000000040016001A
:1000F000070009000A000B000D000E000F0033007E
:10010000340028000000E10035001D001B0006003F
:100110001900050011001000360037000000387289
:1001200052000151E000E2000000E3002C0000005A
:100130002C0000002C000000E300E2005000510001
:100140004F0000003A003B003C003D003E003F00F5
:1001500040004100420043004400450000004C00C4
:10016000000000000000000000000000000000008F
:10017000000000000000000000004A004D000000E8
:10018000000000000000000000000000000000006F
:10019000000000000000000000000000000000005F
:1001A000000000000000000000000000000000004F
:1001B0000000000000004B000100000000000000F3
:1001C000000000000000000000000000000000002F
:1001D000000000004E0000000403300000000A038D
:1001E00044005A0036003000000010034B0042006B
:1001F0004400460061006E0073000000040309041F
:1002000009023B00020100A0FA09040000010301F9
:1002100001000921110100012240000705810308A6
:10022000000A090401000103000000092111010076
:100230000122C0000705820320000A1201100100FC
:10024000000008EDFE602201000102030105010922
:1002500002A10185020901A100050919012905155D
:100260000025019505750181029501750381010540
:1002700001093009311581257F950275088106092C
:10028000381581257F950175088106050C0A38020D
:100290001581257F950175088106C0C0050109807B
:1002A000A10185031601002603001A81002A83009C
:1002B000751095018100C0050C0901A10185041686
:1002C0000100269C021A01002A9C027510950181EA
:1002D00000C005010906A1018505050719E029E708
:1002E00015002501950875018102050819012905E8
:1002F0009505750191029501750391010507190096
:1003000029EF1500250195F075018102C00501094D
:1003100006A101050719E029E715002501950875D3
:1003200001810295017508810105081901290595CA
:1003300005750191029501750391010507190029C1
:10034000FF150026FF00950675088100C0001124E6
:100350001FBECFEFDAE0DEBFCDBF04B603FE27C07D
:100360008091300290913102A0913202B09133021B
:100370008730904BA740B04BD1F4109230021092CE
:100380003102109232021092330214BE84B7877F7A
:1003900084BF0FB6F894A89580916000886180931F
:1003A0006000109260000FBEE0E0F8E3099511E0F4
:1003B000A0E0B1E0E2E4F4E402C005900D92A832BE
:1003C000B107D9F722E0A8E2B1E001C01D92A03345
:1003D000B207E1F70E942F1C0C94F3210C9400004B
:1003E0000C94D305229A2A9A08950E94D2050C945F
:1003F000F20181FF03C02A980C9449022A9AFCCF8B
:1004000081E0089581E008950C9402021F93CF9338
:10041000DF9300D000D00F92CDB7DEB749835A8367
:100420006B832091540189819A8121111BC066231D
:10043000A9F00E946713182F682F89819A810E9462
:10044000101369817A81812F0F900F900F900F9078
:100450000F90DF91CF911F910C9459030E943E138E
:10046000182FEFCF0E94671369817A81EDCFFC01CD
:10047000408151816281738184810C9406020E94C3
:10048000B614811102C00E9446150C94F5010C941B
:10049000F00108950C94F90108950E948D0D0E94B9
:1004A0004C022FEF84E39CE0215080409040E1F724
:1004B00000C000000C94B0160F931F93CF93DF93EE
:1004C0008C010E943702EC01B8010E9404028823CB
:1004D00009F458C0B801CE010E948307882309F4AB
:1004E00051C0C6318CE5D80709F4BFC098F5C130BA
:1004F000FCE5DF0709F44CC050F4C115DC45E9F117
:10050000C801DF91CF911F910F910C940002C5316A
:10051000FCE5DF07A9F3F8018281882389F30E94B3
:10052000B614811102C00E9446150E94D31490E0B7
:100530009093220280932102FE01E350FC458091BA
:1005400021028160E231F10508F03FC0EB50FE4D21
:100550000C949721CD3D8CE5D80771F1CE3DECE5AB
:10056000DE0719F1CC3DDC4559F6F801828188237C
:1005700049F080E00E94CE1C05C0F8018281811103
:100580000E944D0280E0DF91CF911F910F9108955D
:10059000F80182818823B1F39091EC01892F8E7F3D
:1005A00090FF81608093EC01EDCFF8018281882378
:1005B00049F30E944615E6CFF8018281882311F3A2
:1005C00082E0D8CF809121028260809321028091C5
:1005D00021020E94D7140E948D0DD4CF8091210258
:1005E0008460F3CF809121028860EFCF8091210257
:1005F0008061EBCF809121028062E7CF8091210260
:100600008064E3CF809121028068DFCF8091210256
:100610008C60DBCF809121028E7FD7CF8091210229
:100620008D7FD3CF809121028B7FCFCF809121020C
:10063000877FCBCF809121028F7EC7CF809121020F
:100640008F7DC3CF809121028F7BBFCF809121020C
:100650008F77BBCF80912102837FB7CF909121020A
:10066000892F97FB87F98058B0CF0E940414F801B6
:100670009281992381F08A7A91E009F490E0909335
:100680002801811106C089E20E94DF130E945314E1
:1006900079CF85E3F9CF80912801811104C089E2E7
:1006A0000E94E613F3CF85E3FBCF90E080E008954E
:1006B0000895972F70E02FE0929F600D711D112417
:1006C000FB019BE4899FE00DF11D1124EE0FFF1F3C
:1006D000E455FF4F859194910895FC01EE0FFF1FA3
:1006E000E852FE4F859194910895CF93DF930E9435
:1006F00059030E943405EC01811520E5920708F0AA
:10070000A3C0811530E4930708F012C1803E910523
:1007100008F079C0803C910508F0F3C0883A910553
:1007200080F4853A910508F0F2C08130910509F412
:100730007BC00497813A910508F476C0D0E0C0E010
:1007400073C08F3B9105D1F3883A910509F447C1F5
:10075000893A910509F446C18A3A910509F445C1DF
:100760008B3A910509F444C18C3A910509F443C1CF
:100770008B3B910509F442C18C3B910509F441C1C1
:100780008D3A910509F440C1803B910509F43FC1C0
:100790008E3A910509F43EC18F3A910509F43DC1A5
:1007A000813B910509F43CC1823B910509F43BC1B1
:1007B000833B910509F43AC1843B910509F439C1A1
:1007C000853B910509F438C1863B910509F437C191
:1007D000873B910509F436C1883B910509F435C181
:1007E000893B910509F434C18D3B910509F433C16E
:1007F0008E3B910509F432C18A3B910509F431C160
:10080000C0E0D4E411C0811540E2940788F48F3F22
:10081000910509F048F4883E910530F0805F910918
:10082000D065409708F08ACFCE01DF91CF9108952F
:10083000C11580E3D80708F475C0CE019927D3FD10
:1008400074C0EC01D06CF0CFC11595E5D90760F507
:10085000C11524E5D20708F09CC0C11533E5D307C4
:1008600078F4C11542E5D40708F082C0C11581E5CE
:10087000D80708F460C0DC2FCC27C16FD06AD4CF72
:10088000CE018370992721E030E002C0220F331F90
:100890008A95E2F7C695C69590E2C99FE0011124BA
:1008A000C22BD32BDA68C0CFC1152AE5D207B0F42A
:1008B000C11539E5D30708F07CC0C11546E5D4075A
:1008C00008F46CC0CE0198558F3F910511F008F0E7
:1008D00035CFDC2FCC27C06FD06AA6CFCE01905683
:1008E0008115904208F02ACF8D2F8F710E94AF059D
:1008F00090E0982F882788279F719C012C2BE90175
:1009000056C0805C91090E946D03EC018DCF853A41
:10091000910509F45EC0863A910509F05DC0C2E810
:10092000D0E482CFCE019F70EECFEC01D86C7CCFAB
:10093000DF70D06A79CFCE0174E0969587957A956D
:10094000E1F783702C2F26952695237040E2249F93
:1009500090011124382B8C2F8370C1E0D0E002C0AD
:10096000CC0FDD1F8A95E2F7C22BD32BDC685CCF5E
:10097000CE018370992721E030E002C0220F331F9F
:100980008A95E2F7C695C69580E2C89FE0011124DA
:10099000EBCFDC2FCC27C46FD06A46CF8C2F0E94C0
:1009A000AF05C82FD0E0DC2FCC27CC27DF71D06279
:1009B0003BCF8C2F8F700E94AF0534E0D695C79542
:1009C0003A95E1F79C2F9F70C82FCF70C06ED92F3A
:1009D000B0CFC1E8D0E428CFC3E8D0E425CFC2EE41
:1009E000D4E422CFC9EED4E41FCFCAEED4E41CCFA6
:1009F000C5EBD4E419CFC6EBD4E416CFC3EBD4E4F3
:100A000013CFC4EBD4E410CFC7EBD4E40DCFCCECC0
:100A1000D4E40ACFCDECD4E407CFC3E8D5E404CFC7
:100A2000CAE8D5E401CFC2E9D5E4FECEC4E9D5E4F5
:100A3000FBCEC1E2D6E4F8CEC3E2D6E4F5CEC4E202
:100A4000D6E4F2CEC5E2D6E4EFCEC6E2D6E4ECCEF2
:100A5000C7E2D6E4E9CECFE6D4E4E6CEC0E7D4E4FC
:100A6000E3CECAE2D6E4E0CE803E910581F1C8F43F
:100A70008133910509F462C048F48932910509F483
:100A800056C08A32910509F460C0089589339105F2
:100A9000B9F082389105A1F08533910509F440C081
:100AA0000895863E910561F138F4823E9105B1F0DA
:100AB000833E9105E1F00895873E910551F1089537
:100AC000209121022370D9F080EE90E008952091CA
:100AD000210220FF14C089E390E0089520912102B3
:100AE00022FF0DC024FD09C083EE90E008952091FF
:100AF000210222FD31C024FF02C090E080E0089571
:100B00002091210223FFFBCF24FDF7CF87EE90E059
:100B100008952091210223FFEECF86EE90E0089504
:100B20002091210225FFEBCF89E290E008952091EA
:100B3000210225FFE4CF85E390E008952091210272
:100B400026FFDDCF8AE290E008952091210226FF62
:100B5000D6CF81E390E0089582EE90E008959091E1
:100B6000210292FF06C0282F2871283069F4877F60
:100B7000846093FF06C0282F2871283161F4877E96
:100B8000846194FD877E0895282F2471243089F78D
:100B90008B7F8860EECF282F2471243191F78B7ED4
:100BA0008861EFCF08950895E82FF0E0EE0FFF1F62
:100BB000E75DFE4F8081918108950895CF93DF9383
:100BC000A2E2B1E047E251E0C1E0D0E08D91E82F30
:100BD000E295EF70F0E061A18F709E0101C0220FDD
:100BE0008A95EAF7922F9095962391A382A1822B62
:100BF00082A34A175B0751F7A3E1B1E061E070E01F
:100C00008D91E82FE295EF70F0E041A18F709B018C
:100C100001C0220F8A95EAF7922F9095942391A311
:100C200082A1822B82A381E0A232B80749F71092F9
:100C300034011092330110922A011092290110926E
:100C400036011092350110922C0110922B01109256
:100C500038011092370110922E0110922D0110923E
:100C60003A01109239011092300110922F01109226
:100C70003C0110923B01109232011092310185E04B
:100C80000E94DC06DF91CF910C943F025F926F923D
:100C90007F928F929F92AF92BF92CF92DF92EF920C
:100CA000FF920F931F93CF93DF9323E331E002E290
:100CB00011E0612CEE24E394F12CE90189909990E4
:100CC0009E01DE011E921E92F80181918F01E82F94
:100CD000E295EF70F0E091A18F70B70101C0660F4F
:100CE0008A95EAF7892F862B81A382A1562E5094EC
:100CF000852182A380EA8A95F1F783E1C82E81E0FD
:100D0000D82E50E040E0E60179906E01872D829563
:100D10008F7090E0EC0188A1AD90BC90119790E0AD
:100D2000D72DDF7002C095958795DA95E2F780FDA3
:100D300040C0C701042E02C0880F991F0A94E2F731
:100D40008A299B2911969C938E934F5F5F4F4F305A
:100D50005105C9F681A1D52DD823D1A382A1682B35
:100D600062A381E04D915C914815590509F480E03A
:100D7000682AE1E02D333E0709F09FCF262D45E09C
:100D800069E271E083E391E00E94DD060E94470280
:100D9000862DDF91CF911F910F91FF90EF90DF9003
:100DA000CF90BF90AF909F908F907F906F905F900B
:100DB000089590E080E0C4CF0895FF920F931F93B1
:100DC000CF93DF93F82E092F162FD72FC42F22236E
:100DD00049F081E080933F010E945B1690933E01B1
:100DE00080933D0180913F018823A1F080913D01D6
:100DF00090913E010E946716069760F0EF2DF02F4C
:100E0000A12FBD2F90E080E0D0E08C179D0744F02B
:100E100010923F01DF91CF911F910F91FF900895A4
:100E2000219131912D933D930196EFCF0F931F9315
:100E3000CF93DF93C62FD42F022FFC01828188230A
:100E4000C9F0609342010E945B1690934101809328
:100E5000400180E28C0F883008F050C0C77081E0FC
:100E600001C0880FCA95EAF7DF91CF911F910F91CA
:100E70000C94A60A10914201161335C080914001CE
:100E8000909141010E946716883C910560F5C0E28F
:100E9000CD0F1D17B9F080E2810F883040F4177034
:100EA00081E001C0880F1A95EAF70E94AD0AC830A8
:100EB00048F481E09D2F977001C0880F9A95EAF75A
:100EC0000E94A60A802F0E94930AC830B8F4D770F7
:100ED00081E001C0880FDA95EAF7DF91CF911F9189
:100EE0000F910C94AD0A80E28C0F883038F4C770F3
:100EF00081E001C0880FCA95EAF7EFCFDF91CF916B
:100F00001F910F9108959C01CB01203F4CE53407C0
:100F100069F190F4283DFCE53F0721F1293D4CE5BE
:100F2000340781F1273D3C45B1F0FC0182818823E3
:100F300061F1109242010895223FFCE53F07D1F094
:100F4000233F4CE53407D1F0213F3C4571F727E2C0
:100F500045EE64EE03C026E241EE61EE0E94160704
:100F600080E0089527E245EE65EEF8CF26E241EEF7
:100F700060EEF4CF26E241EE62EEF0CF27E245EEDE
:100F800066EEECCF28E241E0EFCF81E00895909348
:100F90004801809347010895E0914701F09148018D
:100FA000309721F00190F081E02D099480E00895C0
:100FB000DC01E0914701F0914801309799F0809170
:100FC0001201882351F08091210287FF06C08C9185
:100FD00011968C93119785E08C930280F381E02D1C
:100FE000CD0109940895DC01E0914701F091480199
:100FF000309739F082E08C930480F581E02DCD01AB
:101000000994089520914501309146012817390728
:1010100071F09093460180934501E0914701F09172
:101020004801309721F00680F781E02D099408955A
:1010300020914301309144012817390771F09093B2
:10104000440180934301E0914701F09148013097BA
:1010500021F00084F185E02D0994089585B780681A
:1010600085BF85B7806885BF0895089508950C945D
:10107000350808950C9439080E942E080E943608FD
:101080000C94370881E008950E9452160E94DE05F4
:101090000E941F170C943A085F926F927F928F9272
:1010A0009F92AF92BF92CF92DF92EF92FF920F93F7
:1010B0001F93CF93DF9300D000D00F92CDB7DEB750
:1010C0000E9446060E944208882309F479C09AE4E7
:1010D000A92E91E0B92E10E000E088248394912C91
:1010E000502E802F0E94D4057C01F501C190D19033
:1010F0005F01C816D90609F45DC08091EC0181FD3D
:101100000E94DD0590E080E0CE24DF243401082E2B
:1011100002C0660C771C0A94E2F79601262137215B
:10112000232B09F442C089835A82E620F72081E00C
:10113000EF2809F480E08B830E945B168160782F92
:101140009D838C8349815A816B818D810E94060920
:10115000000F111FF801E65BFE4F80819181682628
:101160007926718260820E94CC190E94CC079091EE
:1011700049018917B1F10E94CC07809349010F9072
:101180000F900F900F900F90DF91CF911F910F91C3
:10119000FF90EF90DF90CF90BF90AF909F908F9097
:1011A0007F906F905F900C944A0201968F3091056A
:1011B00009F0ACCF0F5F1F4F0530110509F090CF3C
:1011C0008FEF89838A831B820E945B168160782F50
:1011D0009D838C8349815A816B818D810E94060990
:1011E000C2CF0F900F900F900F900F90DF91CF9183
:1011F0001F910F91FF90EF90DF90CF90BF90AF9035
:101200009F908F907F906F905F900895CF93DF9322
:10121000CDB7DEB72B970FB6F894DEBF0FBECDBFAC
:101220004F83588769877A878B871E8285E0FE0106
:101230003796DE01119601900D928A95E1F749816A
:101240005A816B817C818D819E812B960FB6F8949B
:10125000DEBF0FBECDBFDF91CF910C942610FC01F5
:10126000808191810C94A913882309F405C18238E7
:10127000B9F40E94CC0781FDFFC089E30E94DF130F
:101280000E9453142FEF81EE94E021508040904053
:10129000E1F700C0000089E30E94E6130C945314A8
:1012A0008338A1F40E94CC0780FDE6C083E50E944C
:1012B000DF130E9453142FEF81EE94E02150804001
:1012C0009040E1F700C0000083E5E6CF8438A1F448
:1012D0000E94CC0782FDD0C087E40E94DF130E94E9
:1012E00053142FEF81EE94E0215080409040E1F7BD
:1012F00000C0000087E4D0CF9CEF980F913A18F41B
:101300000E94DF13CBCF90E2980F983050F4877093
:1013100091E001C0990F8A95EAF7892F0E9407147E
:10132000BDCF9BE5980F933070F4853A31F0863A43
:1013300039F083E890E00C94020881E890E0FBCF5C
:1013400082E890E0F8CF98E5980F973108F08EC0CA
:10135000883A09F446C0893A09F446C08A3A09F441
:1013600046C08B3A09F446C08C3A09F446C08B3B20
:1013700009F446C08C3B09F446C08D3A09F446C0D6
:10138000803B09F446C08E3A09F446C08F3A09F40E
:1013900046C0813B09F446C0823B09F446C0833B0A
:1013A00009F446C0843B09F446C0853B09F446C0B5
:1013B000863B09F446C0873B09F446C0883B09F4E4
:1013C00046C0893B09F446C08D3B09F446C08E3BBC
:1013D00009F446C08A3B09F446C090E080E00C94D2
:1013E000180882EE90E0FBCF89EE90E0F8CF8AEE0D
:1013F00090E0F5CF85EB90E0F2CF86EB90E0EFCF79
:1014000083EB90E0ECCF84EB90E0E9CF87EB90E0CA
:10141000E6CF8CEC90E0E3CF8DEC90E0E0CF83E87A
:1014200091E0DDCF8AE891E0DACF82E991E0D7CF91
:1014300084E991E0D4CF81E292E0D1CF83E292E0DF
:10144000CECF84E292E0CBCF85E292E0C8CF86E2B5
:1014500092E0C5CF87E292E0C2CF8FE690E0BFCFA7
:1014600080E790E0BCCF8AE292E0B9CF803F20F0E5
:101470000E94DA180C94C1190895882309F452C007
:10148000823871F40E94CC0781FF4CC089E30E942E
:10149000DF130E94531489E30E94E6130C94531443
:1014A000833859F40E94CC0780FF3CC083E50E943A
:1014B000DF130E94531483E5EFCF843859F40E9460
:1014C000CC0782FF2FC087E40E94DF130E945314D1
:1014D00087E4E2CF9CEF980F913AF0F290E2980FF8
:1014E000983050F4877091E001C0990F8A95EAF71F
:1014F000892F0E940D14D2CF9BE5980F933020F4D2
:1015000090E080E00C94020898E5980F973120F461
:1015100090E080E00C941808803F20F00E9442196F
:101520000C94C1190895CF93C82F0E943409C93370
:1015300049F42FEF87EE93E0215080409040E1F78F
:1015400000C000008C2FCF910C943D0A882321F01D
:101550000E9407140C9453140895882321F00E94CC
:101560000D140C9453140895BF92CF92DF92EF9212
:10157000FF920F931F93CF93DF9300D000D00F9271
:10158000CDB7DEB76C016D837983FC0105810295CF
:101590000F70128111110E9426140E94FD13E82E73
:1015A000882371F01123B1F08D81805E883090F036
:1015B00082E00E949E140E94FD1391E0E82EE9262D
:1015C000B980B2949FE0B922EB2DF0E0E95FFD4DC8
:1015D0000C949721E12CF4CF09810F70F981F07FF1
:1015E00011F00295007F1123B1F0002361F08D818D
:1015F000805E883018F02D81211109C0802F0E9453
:1016000007140E9453148D810E94340915C0802F45
:101610000E941814F6CF8D810E943D0A002361F0CC
:101620008D81805E883018F04D81411133C0802F4C
:101630000E940D140E94531458E0B51629F086E05C
:101640008B0D8F70823020F40E94CC070E944A02DA
:10165000EE2009F413C20E94F91380FD0FC2F601B7
:1016600012820E94F3130E940012C6010E944D0DC7
:101670000E94F3130F900F900F900F900F90DF9137
:10168000CF911F910F91FF90EF90DF90CF90BF907F
:101690000C943112802F0E941E14CCCF59815F70A0
:1016A000F52E6981607F603219F0F29480EFF822A4
:1016B0007D81772369F0713049F1112391F1002385
:1016C00051F1F601858180FF9ECF8F70858323C005
:1016D000112381F0011106C00E943A148F290E9443
:1016E000A60AAACF0130C1F70E943A148F290E949E
:1016F0004014A2CF011106C00E9449148F2D0E94F0
:10170000AD0A9ACF013009F497CFF6CF112329F013
:10171000063008F091CF8F2DE2CF053008F08CCF46
:10172000EDCF002359F3FD81F93349F42FEF47EE54
:1017300053E0215040405040E1F700C000008D814F
:101740000E943D0A79CF898186958695837069F0DC
:10175000813009F071CF8D8199819370111102C090
:1017600090E080E00E94180867CF8D819981937086
:10177000111102C090E080E00E9402085DCF1123A9
:1017800011F16D81653F99F0663FB9F0643F49F40E
:1017900080911B0290911C02816090931C028093A7
:1017A0001B028D810E94DA180E94C11945CF8091D9
:1017B0001B0290911C028260F0CF80911B029091DD
:1017C0001C028460EACF7D81753F89F0763FA9F0E5
:1017D000743F49F480911B0290911C028E7F90937C
:1017E0001C0280931B028D810E944219DDCF8091E3
:1017F0001B0290911C028D7FF2CF80911B02909171
:101800001C028B7FECCF8981837009F059C01111C4
:1018100013CF4D81429546954770440F440F8D81FB
:101820008F7090E0B0E0A0E0042E04C0880F991FF4
:10183000AA1FBB1F0A94D2F7ED8100E010E09801C7
:10184000E4FF0FC00FE010E020E030E004C0000F24
:10185000111F221F331F4A95D2F70095109520952E
:101860003095F981F695F695F370FD83B901A801DD
:10187000482B592B6A2B7B2B49835A836B837C83A0
:10188000F23081F0F330A9F0F13029F0CB01BA0148
:101890000E947611D1CE69817A818B819C810E94D0
:1018A0004E11CACE69817A818B819C810E949E11E2
:1018B000C3CE69817A818B819C810E944C11BCCE00
:1018C0008695112311F089818170882309F4B4CEA3
:1018D0004D81429546954770440F440F8D818F701E
:1018E00090E0B0E0A0E0042E04C0880F991FAA1F6A
:1018F000BB1F0A94D2F75D8100E010E0980154FF0D
:101900000FC00FE010E020E030E004C0000F111F16
:10191000221F331F4A95D2F70095109520953095D8
:1019200069816695669563706D83B901A801482B3E
:10193000592B6A2B7B2B49835A836B837C835D8174
:1019400069817A818B819C81523051F0533059F0FA
:10195000513019F00E94BF126FCE0E9497126CCEC8
:101960000E94E71269CE0E94CA1166CE6D81623F65
:1019700009F448C080F4603F81F1613FE1F1862FB6
:10198000805E8031D8F0112309F457C001113BCE9D
:1019900089818F7134C07D81733FD9F1743F99F78C
:1019A000112309F440C099819F719983892F0E9466
:1019B000001263E089810E9489143ECE8D818F7070
:1019C0008D8389818F71112321F00E9400128D81F6
:1019D00086CE0E9431128D8192CE112341F00530C6
:1019E00008F02ACE89818F710E94661225CE0630BA
:1019F00008F022CEF7CF89818F71112339F00E9430
:101A000000121ACE89818F711123C9F30E943112FD
:101A100013CE112329F089818F710E94DB110CCE26
:101A20000E94D61109CE81E00E949E14023008F473
:101A300003CE82E00E949E14FFCD002361F0ED8171
:101A4000E93309F07CCEFFEF27EE43E0F150204070
:101A50004040E1F772CE89818F71D8CF49814F70B4
:101A60006D81C6010E9455030E94C010E5CD4981D9
:101A70004F706D81C6010E945803DECD0F900F900C
:101A80000F900F900F90DF91CF911F910F91FF90CA
:101A9000EF90DF90CF90BF9008950F931F93CF9357
:101AA000DF93EC018B819C81892B29F088819981BE
:101AB00089238F3F29F4DF91CF911F910F910895D2
:101AC000CE010E945C028823B1F3688179818A810A
:101AD0000E94B5138C010E940F130E944B11B80194
:101AE000CE01DF91CF911F910F910C94B40A0E9407
:101AF00026140E9437140E9453140E94631A0E94F5
:101B0000C11990E080E00E94020890E080E00C940F
:101B100018080E94ED130C94770D0E9415140C9474
:101B2000890D282F892F82958F70903C80F48A3000
:101B3000B0F4843020F4823090F480E00895863050
:101B4000E1F781E0203E88F0213FB9F70EC08C30EC
:101B500011F08F3091F793FB882780F9089581E089
:101B6000203F39F018F4203E40F70895243F29F72C
:101B7000FCCF08950E94A9130C94910DCF93DF938D
:101B800000D000D00F92CDB7DEB70F900F900F901E
:101B90000F900F90DF91CF910895CF93DF9300D0F6
:101BA00000D000D0CDB7DEB726960FB6F894DEBFD2
:101BB0000FBECDBFDF91CF9108951F93CF93DF93D9
:101BC000E091550116E0809156018E1304C0DF911B
:101BD000CF911F910895CE2FD0E01E9FF0011124C8
:101BE000E95AFE4F408151816281738184819581E0
:101BF0000E94CD0DFE013196E770E5CF409187013F
:101C0000509188016091890170918A0180918B01C6
:101C100090918C010C94CD0D1F93CF93DF93809105
:101C20008C01807FC1F4809189018823A1F080918B
:101C30005501C091560160918701709188014091D2
:101C40008A0150918B01D62FD723DA01A095B09548
:101C500016E0C81304C0DF91CF911F91089590E062
:101C60004115510511F0DF3F31F401968770F1CF36
:101C70002A0F3B1F17C0189FF001199FF00D112468
:101C8000E95AFE4F21812713F0CF20812613EDCF93
:101C900022812111EACF238134812417350740F3B3
:101CA000241B350B283C310500F720918C012F7047
:101CB000206120938C0126E0289FF001299FF00DE0
:101CC0001124E45AFE4F80818F708061808387E801
:101CD00091E00E944D0DDF91CF911F910C94DD0D8D
:101CE0009F92AF92BF92CF92DF92EF92FF920F93AB
:101CF0001F93CF93DF93CDB7DEB72B970FB6F89432
:101D0000DEBF0FBECDBF8C0185E0F801DE01179666
:101D100001900D928A95E1F7D8014C9111965C9152
:101D200011971296EC90129780918A0190918B01F5
:101D3000009709F46CC12091870130918801632FCD
:101D400062236F3F09F463C11396CD90DC909090AD
:101D50008901992009F4FAC0C816D90608F43FC0D1
:101D6000F601E81BF90BCF01FF24F394883C9105A1
:101D700008F0F12C87E8A82E81E0B82E80918C0124
:101D8000982F907FFF2009F4B9C0911180C0FE2CDC
:101D900035132AC0241328C0E11026C08F7080613B
:101DA00080938C010E94FE0DC5010E944D0D809113
:101DB0008C01D80115968C938F2D2B960FB6F89425
:101DC000DEBF0FBECDBFDF91CF911F910F91FF906E
:101DD000EF90DF90CF90BF90AF909F900895809547
:101DE00090958C0D9D1DC0CFCD2829F0842F852383
:101DF0008F3F09F028C180E0B82FB170DB2EE09151
:101E000055012091560136E080FD1CC0EE20A1F264
:101E100080918C01816080938C01F12CCDCF8E2F2D
:101E200090E03E9FF0011124E95AFE4F6181651355
:101E300006C06081641303C062816E11E7CFFC01AC
:101E40003196E770E213EBCF4F8358878F819885E7
:101E50000E94A913292F22952F70903260F0225FE3
:101E60002F70223078F49F7051F0F8019581907FA7
:101E700031F4D12C0AC09F7011F08823D1F3805E19
:101E80008830B8F3C8010E944D0DFD2C95CF351355
:101E900006C0241304C0D801EE2009F47CC04F838F
:101EA00058878F8198850E94BA0D882319F1EE20FA
:101EB00009F180918C01803270F02091870130917E
:101EC00088013A8329831B82DD82CC828E83CE01F6
:101ED00001960E944D0D86E0F801A7E8B1E001905F
:101EE0000D928A95E1F70E940C0E0E94FE0DFF24D0
:101EF000F39462CFC8010E944D0DF9CF911113C028
:101F00007C2DDB86CA866E2D8B850E94BE0D87E8F0
:101F100091E00E944D0D86E0F50111928A95E9F756
:101F20000E94FE0D49CF3513BACF2413B8CFE1106C
:101F3000B6CFD80115968C93C8010E944D0D86E04E
:101F4000F50111928A95E9F7F92C36CFC816D90612
:101F500080F1B601681B790BCB01F12C883C91050F
:101F600008F046C0FE2CEE2029F2351330C02413B1
:101F70002EC080918C0180FD21C0982F907FF1F0C0
:101F8000D80115968C931597903F39F0982F907F34
:101F9000905F8F70892B15968C93C8010E944D0D10
:101FA00086E0F801A7E8B1E001900D928A95E1F78B
:101FB000B7CF809590958C0D9D1DCFCF86E0F80111
:101FC000A7E8B1E001900D928A95E1F7F5CE4F8335
:101FD00058878F8198850E94BA0D81117CCF80919E
:101FE0008C01816080938C01C8010E944D0DE4CE6C
:101FF0007C2DDB86CA866E2D8B850E94BE0D86E009
:10200000E7E8F1E0DF011D928A95E9F789CFEE203C
:1020100009F470CF4F8358878F8198850E94BA0D3D
:10202000F82E882309F466CF86E0F801A7E8B1E02E
:1020300001900D928A95E1F787E891E00E942F09BF
:102040000E940C0E6DCF81E08E25D6CE1F93CF93CC
:10205000DF93CDB7DEB72C970FB6F894DEBF0FBE77
:10206000CDBF4F83588769877A878B879C87CE013E
:1020700007960E94700E882369F08A859B85892BBC
:1020800039F04F815885842F85238F3F09F071C027
:1020900016E05FC086E0FE013796DE0111960190E2
:1020A0000D928A95E1F78A859B85892B89F388852E
:1020B0009F8189238F3F61F32091560130E0C90150
:1020C000019687709927409155014817190671F4B8
:1020D0000E948D0D109256011092550186E0E7E89E
:1020E000F1E0DF011D928A95E9F7D2CF96E0929F49
:1020F000D001939FB00D1124A95ABE4FFE01319615
:1021000001900D929A95E1F7809356010E94DD0DA2
:10211000BFCF819FC0011124895A9E4F0E94700E2B
:102120008823E9F0E09155011E9FF0011124E95A3E
:10213000FE4F4081518162817381848195810E942B
:10214000CD0D8091550190E001968770992780937D
:10215000550180915501909156018913DACF2C9643
:102160000FB6F894DEBF0FBECDBFDF91CF911F91A8
:10217000089569857A858B859C850E94CD0D88CFD1
:10218000EF92FF920F931F93CF93DF938C01892BD4
:1021900089F0F12CEE24E394E8012196F801849172
:1021A000843709F457C0A0F4823009F43EC048F4E3
:1021B0008130D1F0DF91CF911F910F91FF90EF907F
:1021C00008959CEF980F9037A8F70E9434090AC031
:1021D000853709F44CC09CE7980F903758F78F77F4
:1021E0000E943D0A8E0116C00E5F1F4FFE018491B2
:1021F00090E2980F983060F48770FE2D01C0FF0FB9
:102200008A95EAF78F2F0E9429140E94531402C066
:102210000E9434098F2D815008F4BECFEFE9FFE012
:102220003197F1F700C00000F6CF0E5F1F4FFE019F
:10223000849190E2980F983050F48770FE2D01C081
:10224000FF0F8A95EAF78F2F0E942F14DECF0E948E
:102250003D0AE0CF0E5F1F4FFE01C491C150D0F286
:102260008FE99FE00197F1F700C00000F7CF0E5F04
:102270001F4FFE01F490CECF08950C943C110E94A4
:102280003D116093C3017093C4018093C501909385
:10229000C6010C94770D08950C943F11CF93DF93F2
:1022A00000D000D0CDB7DEB769837A838B839C835F
:1022B0008091C3019091C401A091C501B091C60164
:1022C00029813A814B815C81282B392B4A2B5B2B4E
:1022D00029833A834B835C83CA01B9010F900F9025
:1022E0000F900F90DF91CF910C943F11CF93DF931C
:1022F00000D000D0CDB7DEB769837A838B839C830F
:102300008091C3019091C401A091C501B091C60113
:1023100029813A814B815C81282339234A235B231D
:1023200029833A834B835C83CA01B9010F900F90D4
:102330000F900F90DF91CF910C943F11CF93DF93CB
:1023400000D000D0CDB7DEB769837A838B839C83BE
:102350008091C3019091C401A091C501B091C601C3
:1023600029813A814B815C81282739274A275B27BD
:1023700029833A834B835C83CA01B9010F900F9084
:102380000F900F90DF91CF910C943F110C943C1162
:102390000C94C6110E94C8116093BF017093C001D4
:1023A0008093C1019093C2010C94770D60E070E0BE
:1023B000CB010C94CA110F931F93CF93DF9300D0DE
:1023C00000D0CDB7DEB741E050E060E070E08A01B8
:1023D0009B0104C0000F111F221F331F8A95D2F7E3
:1023E00009831A832B833C83C901B8010F900F9096
:1023F0000F900F90DF91CF911F910F910C94CA1104
:102400000F931F93CF93DF9300D000D0CDB7DEB7EB
:1024100041E050E060E070E004C0440F551F661FCB
:10242000771F8A95D2F78091BF019091C001A0914A
:10243000C101B091C2018A019B01082B192B2A2BE3
:102440003B2B09831A832B833C83C901B8010F906E
:102450000F900F900F90DF91CF911F910F910C94DF
:10246000CA110F931F93CF93DF9300D000D0CDB745
:10247000DEB741E050E060E070E004C0440F551F5B
:10248000661F771F8A95D2F7409550956095709595
:102490008091BF019091C001A091C101B091C20192
:1024A0008A019B01082319232A233B2309831A83CA
:1024B0002B833C83C901B8010F900F900F900F90B0
:1024C000DF91CF911F910F910C94CA110F931F931D
:1024D000CF93DF9300D000D0CDB7DEB741E050E01E
:1024E00060E070E004C0440F551F661F771F8A9597
:1024F000D2F78091BF019091C001A091C101B0912C
:10250000C2018A019B01082719272A273B27098333
:102510001A832B833C83C901B8010F900F900F9051
:102520000F90DF91CF911F910F910C94CA11CF930F
:10253000DF9300D000D0CDB7DEB769837A838B8379
:102540009C838091BF019091C001A091C101B09185
:10255000C20129813A814B815C81282B392B4A2B7E
:102560005B2B29833A834B835C83CA01B9010F90AB
:102570000F900F900F90DF91CF910C94CA11CF93D1
:10258000DF9300D000D0CDB7DEB769837A838B8329
:102590009C838091BF019091C001A091C101B09135
:1025A000C20129813A814B815C81282339234A2346
:1025B0005B2329833A834B835C83CA01B9010F9063
:1025C0000F900F900F90DF91CF910C94CA11CF9381
:1025D000DF9300D000D0CDB7DEB769837A838B83D9
:1025E0009C838091BF019091C001A091C101B091E5
:1025F000C20129813A814B815C81282739274A27EA
:102600005B2729833A834B835C83CA01B9010F900E
:102610000F900F900F90DF91CF910C94CA110895F5
:10262000E82F2FE0929FE00D11248E2F877041E05C
:1026300001C0440F8A95EAF7E695E695E69585E0B0
:10264000E89FF0011124E357FE4F30E020E070E0F6
:102650005191DF011197CB01022E02C0969587950B
:102660000A94E2F7817081958527842385278C93CE
:102670002F5F3F4F2530310559F70895E82F2FE0A0
:10268000929FE00D11249E2F9770E695E695E695B2
:1026900085E0E89FF0011124E357FE4F50E040E051
:1026A00080E0219130E0092E02C0369527950A94EA
:1026B000E2F721703327042E01C0220F0A94EAF7B3
:1026C000822B4F5F5F4F4530510559F70895BF92F8
:1026D000CF92DF92EF92FF920F931F93CF93DF93EE
:1026E0008C01C090BF01D090C001E090C101F0907A
:1026F000C2018091C3019091C401A091C501B09124
:10270000C601C82AD92AEA2AFB2ACFE1D0E0BC2E8A
:10271000D701C6010C2E04C0B695A795979587954D
:102720000A94D2F780FD0EC0219788F7B12C8B2D2B
:10273000DF91CF911F910F91FF90EF90DF90CF909D
:10274000BF900895B8018C2F0E947503019761F323
:10275000EECFCF93DF93D82FC92F0E9467136D2F31
:102760007C2FDF91CF910C9475031F93CF93DF9350
:10277000162FD72F90915401992339F0862F972F38
:10278000DF91CF911F910C94A913882391F0862F8C
:10279000972F0E946713C82F682F812F9D2F0E94AB
:1027A0001013612F7D2F8C2FDF91CF911F910C94EF
:1027B0007503862F972F0E943E13C82FF2CF682FE4
:1027C00080910001909101010C94AE15682F8091C9
:1027D0000001909101010C94B91580910001909134
:1027E00001010C94C4158091C70185958595859547
:1027F00008958091C701877008959091C7019770DF
:1028000081E009F480E008958091EB0108959091B2
:10281000EB01982B9093EB010895982F9095809160
:10282000EB0189238093EB0108951092EB01089549
:102830009091EA01982B9093EA010895982F909532
:102840008091EA0189238093EA0108951092EA01B8
:1028500008959091E901982B9093E9010895982F9C
:1028600090958091E90189238093E9010895109260
:10287000E90108958091C801089508950C943D14CC
:102880009091C801981721F08093C8010C943E14D0
:1028900008958091C801882329F01092C80180E032
:1028A0000C943E140895E0910001F0910101809193
:1028B000EB018083E0910001F09101018081909112
:1028C000EA01892B8083E0910001F0910101808170
:1028D0009091E901892B80839091C801992381F01F
:1028E000E0910001F09101018081892B808380912A
:1028F0000001909101010E94481581110E94491424
:1029000080910001909101010C94D80708950C94D6
:10291000861498E0899F90011124622B6093C7016F
:102920000E9400128091C7018595859585950C942C
:1029300087141092C70180E00C9487149091C7010E
:10294000809589238093C701282F277071F4282F41
:10295000082E000C330B9217130639F085958595D8
:1029600085950E9431120C949914089590E080E0AE
:102970000E94B9219C0181E02D3E3E4F09F080E08C
:10298000089582E090E00C94B121682F82E090E0FD
:102990000C94BF2183E090E00C94B121682F83E078
:1029A00090E00C94BF2184E090E00C94B121682F5A
:1029B00084E090E00C94BF21AB01BC018FE090E07B
:1029C0000C94D121AB01BC0183E190E00C94D121A6
:1029D00060E070E0CB010C94E21460E070E0CB01A9
:1029E0000E94DC140C94E8146DEE7EEF90E080E021
:1029F0000E94DD2160E082E090E00E94BF2160E063
:102A000083E090E00E94BF211092C3011092C401A4
:102A10001092C5011092C60160E084E090E00E942F
:102A2000BF2160E085E090E00E94BF2160E086E089
:102A300090E00E94BF216FEF87E090E00E94BF21ED
:102A400040E050E0BA0188E090E00E94D12160E0CF
:102A50008DE090E00E94BF2140E050E0BA0188E1A3
:102A600090E00E94D12160E087E190E00E94BF21C8
:102A700040E050E0BA018CE190E00E94D12160E09A
:102A800080E290E00E94BF210C94ED140C94F414A9
:102A9000FC01329680911201882321F0809121025D
:102AA0009EE187FF96E080E0915008F4089521911F
:102AB0002223D1F38F5FF8CF9C01FC0132968FEF78
:102AC00090E04191461751F08F3F19F4411101C038
:102AD000892F9F5F9630A9F78F3F09F40895280F3B
:102AE000311D87FD3A95F901628308959C01FC012F
:102AF0003296285F3F4F8191861303C0DF01119703
:102B00001C92E217F307B9F70895E62FE695E695CC
:102B1000E695603F68F4E80FF92FF11D677021E03A
:102B200030E001C0220F6A95EAF78281822B82830E
:102B30000895E62FE695E695E695603F70F4E80F78
:102B4000F92FF11D677081E090E001C0880F6A9550
:102B5000EAF780959281892382830895209112015A
:102B6000222329F02091210227FD0C9485150C9435
:102B70005C1520911201222329F02091210227FDCA
:102B80000C9499150C947615FC01329680911201E3
:102B9000882351F08091210287FF06C08EE1DF017A
:102BA0001D928A95E9F7089586E0F9CF0895089572
:102BB0000C94D7150E94D81580912702843049F1D2
:102BC0001092ED0188E190E020E40FB6F894A8950A
:102BD000809360000FBE2093600080E00E944A0254
:102BE0000E94D81583B7817F846083BF83B78160DB
:102BF00083BF7894889583B78E7F83BF0FB6F89490
:102C0000A8958091600088618093600010926000B8
:102C10000FBE08950895CF930E94D6150E944606D0
:102C20000E940A16C0E08C2F0E94D405892B31F433
:102C3000CF5FC530C1F780E0CF91089581E0FCCF30
:102C400008950C9420160E948D0D0E94CC070E94BE
:102C50004A020C9421161F921FB61F9211248F93C3
:102C60009F93AF93BF938091ED01811113C0809129
:102C70001D0290911E02A0911F02B0912002419668
:102C8000A11DB11D80931D0290931E02A0931F02EF
:102C9000B0932002BF91AF919F918F911F901FBE63
:102CA0001F90189582E084BD93E095BD9AEF97BD83
:102CB00080936E0008952FB7F89480911D02909133
:102CC0001E02A0911F02B09120022FBF0895CF9243
:102CD000DF92EF92FF929C014FB7F89480911D0212
:102CE00090911E02A0911F02B09120024FBF6C0173
:102CF0007D01EE24FF24A90170E060E0C416D50632
:102D0000E606F70638F0821B930BFF90EF90DF90FA
:102D1000CF9008950197F7CF78941F921FB61F9216
:102D200011248F939F93AF93BF9380911D02909135
:102D30001E02A0911F02B09120020196A11DB11D9B
:102D400080931D0290931E02A0931F02B093200255
:102D5000BF91AF919F918F911F901FBE1F901895AB
:102D600081E08093E00080E28093D8001092C90057
:102D70008FE19EE40197F1F700C0000087E090EB3F
:102D8000DC018093300290933102A0933202B09321
:102D9000330288E19CE00FB6F894A8958093600018
:102DA0000FBE90936000FFCFAF92BF92CF92DF92A1
:102DB000EF92FF920F931F93CF93C0E0AA24A394A6
:102DC000B12CE82EF12C8C2F0E94D4056C0110E060
:102DD00000E0C501002E02C0880F991F0A94E2F797
:102DE0008C219D21892B99F0602F7C2F80E00E94FF
:102DF0005903E816F90659F481E0CF911F910F911C
:102E0000FF90EF90DF90CF90BF90AF9008950F5F4D
:102E10001F4F0F301105E9F6CF5FC530A1F680E0F6
:102E2000ECCFCF93C82F8CE20E94D416882321F0D8
:102E30008C2FCF910C94D41680E0CF910895CF932E
:102E4000DF9300D000D0CDB7DEB70E94B614811159
:102E500002C00E94461595E6998308C00E94460666
:102E60008FE39CE90197F1F700C00000A981A15010
:102E7000A983A111F3CF89E20E941117811110C11A
:102E80008AE20E94111781110E94461585E00E9476
:102E9000111781110E94B0160E94C1148093EC0199
:102EA00087E00E941117882371F08BE10E941117AF
:102EB000882309F4D1C09091EC01892F8D7F91FF77
:102EC00082608093EC018091EC010E94C5140E9405
:102ED000D31490E0909322028093210280EE0E940E
:102EE0001117882341F090912102892F8E7F90FF46
:102EF00081608093210289E30E941117882341F0A9
:102F000090912102892F8D7F91FF82608093210211
:102F100082EE0E941117882341F090912102892F9F
:102F20008B7F92FF84608093210286EE0E941117AE
:102F3000882341F090912102892F877F93FF886039
:102F40008093210283EE0E941117882341F0909113
:102F50002102892F8F7E94FF80618093210285E377
:102F60000E941117882341F090912102892F8F7DB3
:102F700095FF80628093210281E30E9411178823CC
:102F800041F090912102892F8F7B96FF806480937E
:102F9000210281E10E941117882341F090912102C2
:102FA000892F97FB87F98058809321028091210215
:102FB0000E94D71487E20E94111789838EE10E9434
:102FC0001117882319F0B981B260B9838FE10E948B
:102FD0001117882319F029812460298380E20E9437
:102FE0001117882319F039813860398381E20E94F2
:102FF0001117882319F049814061498382E20E94B8
:103000001117882319F059815062598383E20E9475
:103010001117882319F089818064898384E20E94D2
:1030200011178823B1F199819068998389810E9451
:10303000CE143981232F30E050E040E029833A83D9
:103040004B835C83CA01B9010F900F900F900F90D2
:10305000DF91CF910C944C118EE00E9411178823C0
:1030600039F09091EC01892F8B7F92FF846029CFFA
:1030700080E10E9411179091EC01882329F0892F9B
:10308000877F93FF88601DCF892F8E7F90FF81609F
:1030900018CFA981A111CACF0E94CA14282FCBCF63
:1030A0000F900F900F900F90DF91CF910895809126
:1030B000F10180FF12C06091050185E0689FB001B9
:1030C0001124759567957595679560387105A8F514
:1030D00061157105A1F1862F089581FF09C06091E6
:1030E000050185E0689FB001112475956795EDCFC6
:1030F0006091050182FD0AC08091F0018823D1F022
:103100009091040160910501891728F085E0689F7E
:10311000B0011124DACF869FB001112485E0869F8B
:103120009001879F300D1124692F70E0C9010E9422
:103130008321CBCF65E070E0CECF8FE7089581E0AB
:1031400008958091F10180FF0CC06091030170E04F
:1031500075956795759567956115710549F1862F88
:10316000089581FF06C06091030170E07595679531
:10317000F3CF6091030182FD0BC09091F001992380
:10318000A1F06091020180910301961738F0682F39
:1031900070E06038710500F38FE70895899FC001E2
:1031A000112470E00E948321F4CF61E070E0D7CF5A
:1031B00081E00895803F31F40E94571881958093F3
:1031C000F5010895813F19F40E945718F8CF823F06
:1031D00031F40E94571881958093F4010895833F3C
:1031E00019F40E945718F8CF893F29F40E94A118BA
:1031F0008093F60108958A3F21F40E94A1188195D9
:10320000F7CF8B3F31F40E94A11881958093F7018D
:1032100008958C3F19F40E94A118F8CF843F31F42F
:103220008091F30181608093F3010895853F21F43B
:103230008091F3018260F7CF863F21F48091F30102
:103240008460F1CF873F21F48091F3018860EBCF58
:10325000883F21F48091F3018061E5CF8D3F31F407
:103260008091F10181608093F10108958E3F21F4F6
:103270008091F1018260F7CF8F3FB9F78091F10122
:103280008460F1CF9091F401803F41F48091F50189
:1032900087FD1092F501992371F00895813F29F47B
:1032A0008091F5011816ACF3F6CF823F81F497FFB9
:1032B000F2CF1092F4018091F5019091F601892BE3
:1032C0009091F701892B49F71092F0010895833FFF
:1032D00019F4191674F3DFCF893F39F48091F601A0
:1032E0001816CCF61092F601D6CF8A3F29F48091B9
:1032F000F60187FFD0CFF6CF8B3F39F48091F701ED
:1033000087FFC9CF1092F701C6CF8C3F29F4809177
:10331000F7011816BCF3BFCF843F31F48091F3015D
:103320008E7F8093F301B7CF853F21F48091F30125
:103330008D7FF7CF863F21F48091F3018B7FF1CF12
:10334000873F21F48091F301877FEBCF883F21F401
:103350008091F3018F7EE5CF8D3F31F48091F101B3
:103360008E7F8093F10197CF8E3F21F48091F10100
:103370008D7FF7CF8F3F09F08ECF8091F1018B7F4A
:10338000F0CF82EF91E00E94F3070E945B169093CA
:10339000EF018093EE0108951F93CF93DF93809107
:1033A000EE019091EF010E946716AC018091F0014F
:1033B0002091060130E0811106C0209107019AE0BA
:1033C000299F900111244217530778F02091F401AE
:1033D000C091F5011091F601D091F701211109C0BA
:1033E0009C2F912B9D2B09F06AC0DF91CF911F91EB
:1033F00008958F3F19F08F5F8093F001121624F427
:103400000E9457188093F4018091F40187FF05C052
:103410000E94571881958093F4011C1624F40E9491
:1034200057188093F5018091F50187FF05C00E9430
:10343000571881958093F5013091F4013323A1F061
:103440002091F501222381F045EB3403C0011124C2
:10345000992369F19093F40145EB24039001112421
:10346000332349F13093F501111624F40E94A11879
:103470008093F6018091F60187FF05C00E94A11894
:1034800081958093F6011D1624F40E94A118809363
:10349000F7018091F70187FF05C00E94A11881956F
:1034A0008093F701DF91CF911F910C94C11981E0B6
:1034B0008093F401D1CF81E08093F501D5CF8F3F88
:1034C00009F099CFAACF86E0E2EFF1E0DF011D928B
:1034D0008A95E9F71092F0011092F1010895809118
:1034E000180208950F931F93CF93DF9300D00F928C
:1034F000CDB7DEB78C010E94DE1C823011F0843023
:1035000021F584E089830A831B8382E08093E900AC
:103510008FEF9091E800815095FD06C095ED9A954A
:10352000F1F700008111F5CF8091E80085FF0DC013
:1035300050E040E063E070E0CE0101960E94FB1C89
:103540008091E8008E778093E8000F900F900F90A5
:10355000DF91CF911F910F910895CF93DF9300D00A
:103560000F92CDB7DEB79C0180912702843031F5F0
:1035700083E08983205831093B832A8382E080934A
:10358000E9008FEF9091E800815095FD06C095ED20
:103590009A95F1F700008111F5CF8091E80085FF41
:1035A0000DC050E040E063E070E0CE0101960E9463
:1035B000FB1C8091E8008E778093E8000F900F90BD
:1035C0000F90DF91CF910895CF93DF93D82FC92F1C
:1035D0000E94DE1C823011F0843001F582E080937D
:1035E000E9008FEF9091E800815095FD06C095EDC0
:1035F0009A95F1F700008111F5CF8091E80085FFE1
:103600000DC050E040E066E070E08D2F9C2F0E94DE
:10361000FB1C8091E8008E778093E800DF91CF91CA
:103620000895CF93DF93D82FC92F0E94DE1C8230DC
:1036300011F08430C9F5809112018823C1F1809185
:10364000210287FF34C060E282E08093E9008FEFBF
:103650009091E800815095FD06C095ED9A95F1F79F
:1036600000008111F5CF8091E80085FF1DC0809199
:10367000120170E050E040E0811104C050E040E0F1
:1036800068E070E08D2F9C2F0E94FB1C8091E80069
:103690008E778093E80080E2ED2FFC2FA8EFB1E059
:1036A00001900D928A95E1F7DF91CF91089568E03E
:1036B00081E0CBCF80912602811109C00E94831E38
:1036C0000E94E01E8091E20084608093E2000895F1
:1036D000109226020895089508950C94231642E04E
:1036E00061EC81E00E94FF1D42E261EC82E00C94FB
:1036F000FF1D80912902893089F148F4823009F454
:103700009DC0833009F458C0813041F008958A305B
:1037100009F484C08B3009F46AC0089580912802AE
:10372000813A09F048C08091E800877F8093E800E3
:1037300080912C0290912D02892B61F460E288EF38
:1037400091E070E00E944A1D8091E8008B778093A1
:10375000E800089560E090E080E0F3CF80912802D7
:10376000813249F580912C0290912D02029718F533
:103770008091E800877F8093E8008091E80082FFD5
:1037800016C09091F3008091F200029729F4809185
:10379000F1008B7F813021F48091F1008093180239
:1037A0008091E8008B778093E8000C94331E809121
:1037B00027028111E2CF089580912802813AD9F73A
:1037C00080912C0290912D02892BA9F78091E8001D
:1037D000877F8093E8008091E80080FFFCCF809194
:1037E00012018093F1008091E8008E77DCCF809108
:1037F0002802813201F780912C0290912D02892BB1
:10380000D1F68091E800877F8093E8000E94331E04
:1038100080912A02809312010C948D0D80912802D0
:10382000813249F68091E800877F8093E8000E940A
:10383000331E80912B0280931902089580912802F3
:10384000813A09F0B8CF8091E800877F8093E80043
:103850008091E80080FFFCCF80911902C2CF84B72D
:10386000877F84BF0FB6F894A89580916000886127
:1038700080936000109260000FBE80E8809361002A
:10388000109261000E943C080E94831E0E94E01E6C
:103890008091E20084608093E20078940E94682125
:1038A0000E94440888E091E00E94C70780912702A7
:1038B000853019F00E944C08F9CF0E94DA158091EA
:1038C0002502882399F30E940B16882379F30E941E
:1038D000E51CECCF0C946C1CFC01CB01DA012F2F02
:1038E000332723303105D1F070F42130310509F44C
:1038F00045C02230310569F48BE390E020E032E0EE
:103900002D933C9308952132310521F12232310566
:1039100059F190E080E030E020E0F2CFCF0199272C
:10392000E230A9F08330910550F4009769F0EAEE97
:10393000F1E0019771F7849190E09F01E1CFE8ED0C
:10394000F1E00397C1F3E5CFECEFF1E0F4CFEEED5A
:10395000F1E0F1CF892BB9F061307105D1F689E042
:1039600090E02BE232E0CCCF892B91F061307105F1
:1039700081F680EC90E02DE432E0C2CF82E190E06D
:103980002BE332E0BDCF89E090E022E132E0B8CF16
:1039900080E490E02DE033E0B3CF0895CF93C82FBB
:1039A0000E94CD1CC0931A02CF91089580912702E6
:1039B000843011F482E0089581E0089580911A0224
:1039C000811102C00C94D61C089580E189BD82E16A
:1039D00089BD09B400FEFDCF8091D8008F7D809312
:1039E000D8008091E00082608093E0008091E00048
:1039F00081FDFCCF0895AF92BF92CF92DF92FF92EC
:103A00000F931F93CF93DF936C01EB018A010E9408
:103A1000521EF82E811123C00115110539F0F8014D
:103A200080819181C81BD90BC80ED91EB12CA12C45
:103A30002097A9F08091E80085FD22C08091E800E0
:103A40008E778093E80001151105A1F0F8018081BF
:103A50009181A80EB91EB182A08285E0F82E8F2D2B
:103A6000DF91CF911F910F91FF90DF90CF90BF908A
:103A7000AF9008950E94521E8823D1F2F82EEFCF06
:103A8000F60181916F018093F1002197FFEFAF1A4A
:103A9000BF0ACECFFC01CB0120912E0230912F0224
:103AA0002617370790F0009729F42091E8002E7729
:103AB0002093E80040E0009751F4411108C0809144
:103AC000E80082FF31C080E00895C901F3CF209162
:103AD00027022223A9F12530A9F12091E80023FD36
:103AE0002DC02091E80022FDEACF2091E80020FFC0
:103AF000E2CF3091F3002091F200009719F02830C6
:103B0000310558F041E02830310509F040E02091BE
:103B1000E8002E772093E800CECF41914093F1004A
:103B200001972F5F3F4FE9CF80912702882341F013
:103B3000853041F08091E80083FFC1CF81E0089596
:103B400082E0089583E00895FC01CB0120912E02CC
:103B500030912F022617370790F0009729F4209113
:103B6000E8002E772093E80040E0009751F44111DF
:103B700008C08091E80082FF32C080E00895C9014A
:103B8000F3CF209127022223B1F12530B1F120910A
:103B9000E80023FD2EC02091E80022FDEACF20910D
:103BA000E80020FFE2CF3091F3002091F20000976F
:103BB00019F02830310558F041E02830310509F07E
:103BC00040E02091E8002E772093E800CECF44918A
:103BD0004093F100319601972F5F3F4FE8CF8091DE
:103BE0002702882341F0853041F08091E80083FF6F
:103BF000C0CF81E0089582E0089583E00895982F72
:103C0000973028F08F708093E90081E008959093B9
:103C1000E900242F762F50E0981731F07091EC00D6
:103C20002091ED005091F00021FD02C09F5FE8CF90
:103C30003091EB003E7F3093EB003091ED003D7F03
:103C40003093ED003091EB0031603093EB007093D6
:103C5000EC002093ED005093F0002091EE0027FD42
:103C6000E5CF80E008958091280287FF13C08091FE
:103C7000E80082FF06C08091E8008B778093E8001F
:103C800004C0809127028111F2CF0895809127020C
:103C90008823D9F38091E80080FFF8CF8091E80075
:103CA0008E77ECCF2091E4003091E50095E6A901F4
:103CB0002091EC00822F817020FF06C08091E800E7
:103CC00080FF06C080E008952091E80022FD1AC020
:103CD00080912702882389F0853089F08091EB005C
:103CE00085FD0FC02091E4003091E5004217530795
:103CF000F9F29150E1F684E0089582E0089583E0BE
:103D0000089581E008950E94F11E0E94F91EE0EEE0
:103D1000F0E0808181608083E8EDF0E080818F7742
:103D2000808319BCA7EDB0E08C918E7F8C9380814D
:103D30008F7E80831092260208950F931F93CF9356
:103D4000DF930E94F11E0E94F91EC8EDD0E0888129
:103D50008F77888388818068888388818F7D888336
:103D600019BC109227021092230210922502109281
:103D7000240200EE10E0F80180818B7F808388812F
:103D80008160888342E060E080E00E94FF1DE1EEF8
:103D9000F0E080818E7F8083E2EEF0E080818160C0
:103DA0008083808188608083F80180818E7F80831A
:103DB000888180618883DF91CF911F910F91089551
:103DC000E8EDF0E080818F7E8083E7EDF0E0808198
:103DD0008160808384E082BF81E0809326020C941E
:103DE0009D1EE8EDF0E080818E7F80831092E200DE
:103DF00008951092DA001092E10008951F920F9238
:103E00000FB60F9211242F933F934F935F936F93AD
:103E10007F938F939F93AF93BF93EF93FF93809183
:103E2000E10082FF0BC08091E20082FF07C0809119
:103E3000E1008B7F8093E1000E9467218091DA008E
:103E400080FF19C08091D80080FF15C08091DA00F2
:103E50008E7F8093DA008091D90080FF94C080E14A
:103E600089BD82E189BD09B400FEFDCF81E0809368
:103E700027020E945A1B8091E10080FF19C08091A7
:103E8000E20080FF15C08091E2008E7F8093E20007
:103E90008091E20080618093E2008091D80080628E
:103EA0008093D80019BC85E0809327020E946C1B88
:103EB0008091E10084FF29C08091E20084FF25C049
:103EC00080E189BD82E189BD09B400FEFDCF80910A
:103ED000D8008F7D8093D8008091E1008F7E809301
:103EE000E1008091E2008F7E8093E2008091E20009
:103EF00081608093E20080912302882309F449C005
:103F000084E0809327020E946D1B8091E10083FF73
:103F100029C08091E20083FF25C08091E100877F66
:103F20008093E10082E08093270210922302809127
:103F3000E1008E7F8093E1008091E2008E7F80938C
:103F4000E2008091E20080618093E20042E060E064
:103F500080E00E94FF1D8091F00088608093F00057
:103F60000E946B1BFF91EF91BF91AF919F918F9139
:103F70007F916F915F914F913F912F910F900FBE65
:103F80000F901F90189519BC109227020E94681B71
:103F900072CF8091E30087FD02C081E0B2CF83E061
:103FA000B0CF1F920F920FB60F9211242F933F9311
:103FB0004F935F936F937F938F939F93AF93BF9331
:103FC000CF93DF93EF93FF93D091E900DF7080915F
:103FD000EC00C82FC17080FDC0E81092E90080910C
:103FE000F000877F8093F00078940E941520109253
:103FF000E9008091F00088608093F000CD2BCF70B5
:10400000C093E900FF91EF91DF91CF91BF91AF9104
:104010009F918F917F916F915F914F913F912F91E0
:104020000F900FBE0F901F9018951F93CF93DF93A3
:10403000CDB7DEB7AA970FB6F894DEBF0FBECDBFDF
:1040400088E292E0FC0101962091F100208322E0B9
:1040500080339207B9F70E94791B8091E80083FFB3
:104060001EC180912802909129029A3008F017C150
:10407000E92FF0E0E95EFD4D0C949721803899F02E
:10408000823809F00CC180912C028F70873008F0C3
:1040900006C18093E9008091EB0085FB882780F9B9
:1040A0001092E90006C0809124029091250291119E
:1040B00082609091E800977F9093E8008093F100F0
:1040C0001092F1008091E8008E77E5C0882309F412
:1040D000D3C0823009F0E3C080912A028111D6C09A
:1040E00080912C028F702FEF280F263008F0D7C058
:1040F0008093E9002091EB0020FFC8C0933031F499
:104100008091EB0080628093EB00C0C09091EB0047
:1041100090619093EB0021E030E001C0220F8A957E
:10412000EAF72093EA001092EA008091EB008860A1
:10413000EACF8111B4C010912A021F778091E30069
:104140008078812B8093E3008091E800877F8093C3
:10415000E8000E94331E8091E80080FFFCCF809130
:10416000E30080688093E30082E0111183E0809394
:10417000270295C08058823008F091C080912A02B1
:1041800090912B028C3D23E09207A1F583E08A8376
:104190008AE289834FB7F894DE01139620E03EE06F
:1041A00051E2E32FF0E050935700E49120FF03C069
:1041B000E295EF703F5FEF708E2F90E0EA30C0F035
:1041C000C7968D939D932F5F243159F74FBF8091F0
:1041D000E800877F8093E8006AE270E0CE010196F4
:1041E0000E944A1D8091E8008B778093E80057C0B9
:1041F000C096E7CF60912C0270912D02AE014F5F07
:104200005F4F0E946A1CBC01892B09F448C0809151
:10421000E800877F8093E80089819A810E94A41D2D
:10422000E1CF8038E1F58091E800877F8093E80056
:10423000809123028093F10045CF811130C090918D
:104240002A02923060F58091E800877F8093E80031
:10425000909323020E94331E80912302882311F041
:1042600084E005C08091E30087FDFACF81E0809370
:1042700027020E946F1B13C080912A02813079F4BB
:1042800081E0933009F080E0809325021092E900EC
:104290008091E800877F8093E8000E94331E809120
:1042A000E80083FF0AC08091E800877F8093E800E0
:1042B0008091EB0080628093EB00AA960FB6F89491
:1042C000DEBF0FBECDBFDF91CF911F91089508953E
:1042D000CF93809127028823A1F0C091E900CF708D
:1042E0009091EC00892F817090FD80E8C82B10928E
:1042F000E9008091E80083FD0E941520CF70C093F3
:10430000E900CF91089597FB072E16F4009407D08B
:1043100077FD09D00E949D2107FC05D03EF49095C1
:1043200081959F4F0895709561957F4F0895EE0F89
:10433000FF1F0590F491E02D0994AA1BBB1B51E1CE
:1043400007C0AA1FBB1FA617B70710F0A61BB70B05
:10435000881F991F5A95A9F780959095BC01CD01AA
:104360000895F999FECF92BD81BDF89A992780B53D
:104370000895A8E1B0E042E050E00C94E521262F3A
:10438000F999FECF92BD81BDF89A019700B402164B
:1043900039F01FBA20BD0FB6F894FA9AF99A0FBEF9
:1043A00008950396272F0E94C0210E94BF21252F28
:1043B0000E94C021242F0C94C0210196272F0E9417
:1043C000C0210C94BF21DC01CB01FC01F999FECF87
:1043D00006C0F2BDE1BDF89A319600B40D9241508D
:1043E0005040B8F70895F894FFCFE202EE02F202CF
:1043F000F602FA02FE02020306030A030E03120388
:1044000016031A031E03220326032A032E03EC0AB3
:10441000EC0A4E0B4E0BA30BBF0B1C0B1C0B030C1F
:104420001C0BB60CB60C2E0D1C0B1C0B370D3E20B6
:1044300066204F2166204F219920BA204F2111215B
:024440001D213C
:10444200C9012808140A321E6F1A111BE41AAD1A88
:10445200721A01F0F1C66766379431303534979697
:0844620033F490919293950050
:00000001FF
