:100000000C9418020C9450020C9450020C94500260
:100010000C9450020C9450020C9450020C94500218
:100020000C9450020C9450020C9474210C944722AE
:100030000C948C1B0C9450020C9450020C945002A3
:100040000C9450020C9450020C9450020C945002E8
:100050000C9450020C94241C0C9450020C945002EA
:100060000C9450020C9450020C9450020C945002C8
:100070000C9450020C9450020C9450020C945002B8
:100080000C9450020C9450020C9450020C945002A8
:100090000C9450020C9450020C9450020C94500298
:1000A0000C9450020C9450020C94500229001E0033
:1000B0001F0020002100220023002400250026002C
:1000C00027002D002E002A002A002B00000014001B
:1000D0001A000800150017001C0018000C00120080
:1000E00013002F003000310039000000040016001A
:1000F000070009000A000B000D000E000F0033007E
:10010000340028000000E10035001D001B0006003F
:100110001900050011001000360037000000387289
:1001200052000151E000E2000000E3002C0000005A
:100130002C0000002C000000E300E2005000510001
:100140004F0000003A003B003C003D003E003F00F5
:1001500040004100420043004400450000004C00C4
:1001600000000000BE00BD00000000000000000014
:10017000BC00AE00BB00A800AA00A900000000005F
:10018000000000000000000000000000000000006F
:10019000000000000000000000000000000000005F
:1001A000000000000000000000000000000000004F
:1001B0000000000000004B000100000000000000F3
:1001C000000000000000000000000000000000002F
:1001D000000000004E0000000000000000000000D1
:1001E0002A2B280000000000000000000000000092
:1001F00000000029000000002C1E3420212224349D
:100200002627252E362D3738271E1F20212223246E
:1002100025263333362E37381F0405060708090A0A
:100220000B0C0D0E0F101112131415161718191AA6
:100230001B1C1D2F3130232D350405060708090A24
:100240000B0C0D0E0F101112131415161718191A86
:100250001B1C1D2F3130354C000000000000000039
:10026000000000000000000000000000000000008E
:100270000000000000000000000000007E0F00D41D
:10028000FFFFFFC7000000780A0344005A00360051
:100290003000000010034B004200440046006100A3
:1002A0006E00730000000403090409025B000301EF
:1002B00000A0FA0904000001030101000921110155
:1002C0000001224000070581030800010904010024
:1002D000020300000009211101000122220007058C
:1002E0008203200001070503032000010904020026
:1002F000010300000009211101000122B6000705D9
:10030000840320000112010002000000085A44602A
:10031000220100010200010660FF0961A1010962DA
:10032000150026FF00952075088102096315002637
:10033000FF00952075089102C005010902A1018501
:10034000020901A1000509190129081500250195D7
:1003500008750181020501093009311581257F9554
:10036000027508810609381581257F950175088178
:1003700006050C0A38021581257F9501750881064E
:10038000C0C005010980A101850319012AB7001524
:100390000126B700950175108100C0050C0901A167
:1003A00001850419012AA002150126A002950175F4
:1003B000108100C005010906A1018506050719E0A5
:1003C00029E7150025019508750181020507190027
:1003D00029EF1500250195F0750181020508190125
:1003E0002905950575019102950175039101C005D7
:1003F000010906A101050719E029E7150025019566
:100400000875018102950175088101050719002908
:10041000FF150026FF0095067508810005081901E3
:100420002905950575019102950175039101C0009B
:1004300011241FBECFEFDAE0DEBFCDBF04B603FE4E
:1004400018C08091BB029091BC02A091BD02B091F6
:10045000BE028730904BA740B04B59F41092BB02BC
:100460001092BC021092BD021092BE02E0E0F8E3CE
:10047000099511E0A0E0B1E0E0EFF9E402C00590D9
:100480000D92AA39B107D9F722E0AAE9B1E001C07B
:100490001D92AB3BB207E1F70E9455110C94B224B8
:1004A0000C94000082E0089581E0089581E00895B1
:1004B0000E945602089508950E945B020895A5E0E7
:1004C000B0E0E5E6F2E00C941E2449835A833091B3
:1004D000A10189819A81311119C0662399F02223E3
:1004E00089F00E947008182F682F89819A810E94D4
:1004F0004C0869817A81812F0E9466182596E3E075
:100500000C943A240E945E08182FF3CF0E947008C2
:1005100069817A81F1CFFC01262F4081518162816E
:10052000738184810E945F02089581E00895CF93D2
:10053000DF93D82FC92F60E00E948B026D2F7C2F94
:100540000E945C02DF91CF910895E1E0F0E0DF01CD
:1005500002C0AA0FBB1F6A95E2F7BD01DF0102C00E
:10056000AA0FBB1F4A95E2F76A2B01C0EE0F2A952E
:10057000EAF7962F9823961302C08E2B0895E095E4
:100580008E230895242F462F682F8091C0010E944A
:10059000A5020E94AB0708950E94FE0F08950E94D5
:1005A0000210089508950E943A070E94D2022FEF88
:1005B00084E39CE0215080409040E1F700C00000BF
:1005C00008950E94D3020E94481C08950E94D302FD
:1005D0000E946C1C08950F931F93CF93DF938C019F
:1005E00061E00E948B02EC01B8010E94821481112B
:1005F00006C080E0DF91CF911F910F910895B8015F
:10060000CE010E9458028823A1F3B801CE010E94B6
:10061000B419882371F3B801CE010E94AE15882366
:1006200041F3B801CE010E942619882311F3F80185
:100630008281882381F0CB35FDE5DF0731F178F445
:10064000CE3DECE5DE07C1F0CA35FDE5DF07D1F0B0
:10065000C115DC4571F0C8010E945402CBCFCC35E6
:10066000EDE5DE0761F0C73ADD45A9F70E94E60235
:10067000C0CF0E94E102BDCF0E941B0DF7CF0E94A8
:10068000550CE9CF0E945F0CE6CF0E94630CE3CFCC
:100690000E94681B0E94710308950E9475030E94C6
:1006A0006D1B089508950E945203089581E00895F6
:1006B000CF93C82F0E945603882319F0C1FD03C0B1
:1006C0002A9ACF9108952A98FCCF229A2A9A0895BF
:1006D000CF93C82F0E9453038C2F0E945803CF91B1
:1006E000089580E00E94680308950E94131A0E94F2
:1006F00068030895CF930E94131AC82F80919C011C
:100700008C1779F0C0939C010E94F81B60939D01A7
:1007100070939E0180939F019093A0018C2F0E9463
:100720006803CF910895ABE0B0E0E9E9F3E00C9401
:100730001F244F83588769877A878B8761110E94AE
:10074000A00B1E8285E0FE013796DE011196019016
:100750000D928A95E1F78C819D81892B61F4498105
:100760005A816B817C818D819E810E94C10A2B966A
:10077000E2E00C943B2489819A8189238F3F79F3AD
:10078000CE0101960E9495028111E9CFF0CFFC01C4
:10079000808191810E9499080895CF93C82F882362
:1007A000C9F08238C9F40E94131A81FD13C089E38D
:1007B0000E94560B0E94C10B2FEF37EE83E02150B1
:1007C00030408040E1F700C0000089E30E945E0BEA
:1007D0000E94C10BCF9108958338A1F40E94131A8F
:1007E00080FDF8CF83E50E94560B0E94C10B9FEF5E
:1007F00021EE34E0915020403040E1F700C000008D
:1008000083E5E4CF8438A1F40E94131A82FDE2CF7D
:1008100087E40E94560B0E94C10B8FEF91EE24E0FB
:10082000815090402040E1F700C0000087E4CECF27
:100830008CEF8C0F813A90F46C2F80910001909195
:1008400001010E948A1A882329F08C2F0E945E0BD6
:100850000E94C10B8C2F0E94560BBACF80E28C0FE6
:10086000883048F4C77081E001C0880FCA95EAF764
:100870000E94810BADCF8BE58C0F833038F42C2F89
:100880002452330BC9010E944A1AA4CFE8E5EC0FA9
:10089000E73150F4F0E0EE0FFF1FE55EFE4F808180
:1008A00091810E94601A96CFC03F08F493CF8C2F9D
:1008B0000E94D9110E94AC128DCF882309F455C033
:1008C000823879F40E94131A81FF4FC089E30E9495
:1008D000560B0E94C10B89E30E945E0B0E94C10B64
:1008E0000895833859F40E94131A80FF3EC083E5AF
:1008F0000E94560B0E94C10B83E5EECF843859F459
:100900000E94131A82FF31C087E40E94560B0E9496
:10091000C10B87E4E1CF9CEF980F913AE8F290E2A7
:10092000980F983050F4877091E001C0990F8A9524
:10093000EAF7892F0E94870BD1CF9BE5980F933060
:1009400028F490E080E00E944A1A089598E5980FF4
:10095000973128F490E080E00E94601A0895803F6B
:1009600020F00E9433120E94AC1208951F93CF937F
:10097000DF93182FEB010E94CD03209739F4812FCC
:100980000E945D04DF91CF911F9108958FE99FE050
:100990000197F1F700C000002197EFCF70E060E011
:1009A000893311F460E570E00E94B604089588234D
:1009B00021F00E94810B0E94C10B0895882321F031
:1009C0000E94870B0E94C10B0895B0E0A0E0EBEEFF
:1009D000F4E00C9417246C01D62FC72FFC01128170
:1009E000F580F2948FE0F8220E94770BE82E88239E
:1009F000B9F0E12E1123A1F08C2F807F803421F0FB
:100A000080E28D0F8830C8F08091950282FF15C07A
:100A100082E00E94240C0E94770B91E0E82EE926E8
:100A20008C2F82958F70A82EB12C8C3008F067C067
:100A3000F501EC54FB4D0C940224E12CF1CF0C2F6A
:100A40000F70C07F11F00295007F112399F00023F1
:100A500059F080E28D0F883010F0D11107C0802F3F
:100A60000E94810B0E94C10B8D2F41C0802F0E94DC
:100A7000920BF8CF8D2F0E945D04002309F43FC034
:100A800080E28D0F883010F0D11104C0802F0E94B9
:100A9000870B03C0802F0E94980B0E94C10B2FC0B0
:100AA0000C2F0F70C07FC03211F00295007FDD2344
:100AB00081F0D13009F466C0112309F470C0FF2021
:100AC00009F466C0F601858180FFCECF8F708583E3
:100AD0005FC08091950282FD35C0112359F000233B
:100AE00029F0802F0E94810B0E94C10B80E00E94A0
:100AF000CD0305C080E00E945D040111C7CFE8E08E
:100B0000AE1AB108F4E0AF16B10420F40E94131A33
:100B10000E946803EE2089F00E94730B80FD0DC0D7
:100B2000F60112820E946D0B0E94BF07C6010E944F
:100B3000FA060E946D0B0E94CB07CDB7DEB7EAE044
:100B40000C943324112389F0F11006C00E94A30BEA
:100B5000802B0E94D704D3CFF1E0FF12F7CF0E9481
:100B6000A30B802B0E94AA0BCACFF11006C00E94D3
:100B7000B70B802F0E94DE04C2CF21E0F21609F4E9
:100B8000BECFF5CF112331F085E08F1508F4B7CF34
:100B9000802FDFCF94E09F1508F4B1CFEACFFF207C
:100BA00041F3D93349F4FFEF27EE83E0F1502040C1
:100BB0008040E1F700C000008D2F0E945D049FCFB0
:100BC0008C2F86958695837069F0813009F097CFD8
:100BD0008D2F9C2F9370111102C090E080E00E9435
:100BE000601A8DCF8D2F9C2F9370111102C090E051
:100BF00080E00E944A1A83CF8D2F112329F00E9492
:100C0000D9110E94AC127BCF0E943312FACF8C2FE5
:100C1000837081F5111173CF4D2F42954695477022
:100C2000440F440F8D2F8F70042E01C0880F0A943B
:100C3000EAF72D2F2071D4FF07C02FE030E001C06C
:100C4000220F4A95EAF72095C695C695C370822B68
:100C5000C23051F0C33059F0C13019F00E949907E9
:100C60004ECF0E9493074BCF0E949F0748CF0E9410
:100C7000900745CF8695112311F08C2F8170882322
:100C800009F43DCF4D2F429546954770440F440FD0
:100C90008D2F8F70042E01C0880F0A94EAF72D2F34
:100CA0002071D4FF07C02FE030E001C0220F4A9529
:100CB000EAF72095C695C695C370822BC23051F0D5
:100CC000C33059F0C13019F00E94EA0718CF0E94D2
:100CD000E40715CF0E94F00712CF0E94AB070FCF99
:100CE000CF70112329F08C2F0E94BF078D2F31CF99
:100CF0008D2F0E94DE048C2F0E94CB0700CFD23FA5
:100D000051F160F4D03FB9F0D13F81F0112309F4E3
:100D100049C0F110A9CE8C2F8F7121C0D33F11F1A2
:100D2000D43FA1F78091950282FD26C08C2F8F7150
:100D3000112311F314C0112349F094E09F1508F416
:100D4000DECE8C2F8F710E94D807D9CEE5E0EF154B
:100D500008F4D5CEF6CF8C2F8F711111CDCF0E9414
:100D6000BF07CDCE112329F08C2F8F710E94B607BB
:100D7000C6CE0E94B207C3CE112349F0CF718C2F8B
:100D80000E94BF0763E08C2F0E94060CB8CE81E062
:100D90000E94240CF1E0FF1508F0B1CE82E00E9421
:100DA000240CADCEFF2059F0D93309F005CF2FEF39
:100DB00087EE93E0215080409040E1F7FBCE8C2FEE
:100DC0008F719ACF0F931F93CF93DF93EC016881BC
:100DD00079818A810E94A6088C010E94F6070E94F0
:100DE0008F07B801CE010E94E504DF91CF911F91DA
:100DF0000F910895CF93DF93EC018B819C81892B18
:100E000029F08881998189238F3F51F4DF91CF9117
:100E10000895CE010E94E206CE010E949702F6CF0D
:100E2000CE010E94EB028111F4CF0E94770B882340
:100E300069F38A81882351F38091950282FFE6CF7E
:100E400082E00E94240CE2CF90E080E00E944A1AE7
:100E500090E080E00E94601A0E94A00B0E94C10BEB
:100E60000E94C7120E94AC1208950E94660B0E9455
:100E7000240708950E948F0B0E9435070895282F9C
:100E800092959F70963091F060F4925F9F709230CF
:100E900030F481E0203F81F030F4283E30F080E0F3
:100EA00008959A5FF3CF243FD1F7089581E0283E5B
:100EB000E0F3213FA1F7F9CF0895FC0183819481EC
:100EC000892B29F08081918189238F3F11F480E063
:100ED0000895808191810E9499080E943F0708959A
:100EE000A5E0B0E0E6E7F7E00C941F242596E2E0E9
:100EF0000C943B24A6E0B0E0E0E8F7E00C941F245B
:100F00002696E2E00C943B2408950E9484070895FD
:100F10000E9485078093C1010E94240708950895C7
:100F20000E94880708959091C101892B0E9488072B
:100F300008959091C10189230E9488070895909196
:100F4000C10189270E94880708950E948407089597
:100F50000E94A50708950E94A8078093C0010E94DF
:100F60002407089580E00E94AB07089591E001C036
:100F7000990F8A95EAF7892F0E94AB07089521E01F
:100F800030E001C0220F8A95EAF78091C001822BE0
:100F90000E94AB07089521E030E001C0220F8A953E
:100FA000EAF720958091C00182230E94AB07089543
:100FB00021E030E001C0220F8A95EAF78091C0015C
:100FC00082270E94AB0708959091C001892B0E944F
:100FD000AB0708959091C00189230E94AB07089543
:100FE0009091C00189270E94AB07089508959B0145
:100FF000677091E001C0990F6A95EAF763E0369552
:1010000027956A95E1F7F901EE0FFF1FE20FF31F35
:10101000E40FF51F50E040E0682F70E08191DF01A0
:1010200011979B01042E02C0369527950A94E2F78A
:10103000217021952827292328272C934F5F5F4F64
:101040004330510559F708959C01982F977083E01C
:10105000369527958A95E1F7F901EE0FFF1FE20F0C
:10106000F31FE60FF71F50E040E080E0219130E0F1
:10107000092E02C0369527950A94E2F7217033278E
:10108000042E01C0220F0A94EAF7822B4F5F5F4FB4
:101090004330510559F70895282F862F953068F46D
:1010A0002F3058F4622F70E02FE0929F600D711D79
:1010B000112442EA51E00E94F7070895292F953044
:1010C00068F48F3058F490E062EA71E03FE0239FCB
:1010D000800D911D11240E942408089580E0089538
:1010E000B0E0A0E0E6E7F8E00C941A247C0100915F
:1010F000C0018091C101082BC7E0D0E010E0DC2ED8
:10110000C8010C2E02C0959587950A94E2F780FDE0
:1011100009C02197A0F7D12C8D2DCDB7DEB7E7E020
:101120000C943624B7018C2F0E94DC0E019789F3B2
:10113000F3CFCF93DF93D82FC92F0E9470086D2F64
:101140007C2F0E94DC0EDF91CF9108951F93CF93E7
:10115000DF93162FD72F9091A101992341F0862F6D
:10116000972F0E949908DF91CF911F9108958823AE
:1011700081F0862F972F0E947008C82F682F812F2B
:101180009D2F0E944C08612F7D2F8C2F0E94DC0E1A
:10119000EACF862F972F0E945E08C82FF4CF1F93A7
:1011A000CF93DF93E091C20116E08091C3018E13CB
:1011B00004C0DF91CF911F910895CE2FD0E01E9FE4
:1011C000F0011124EC53FE4F408151816281738103
:1011D000848195810E947A07FE013196E770E5CF00
:1011E0004091F4015091F5016091F6017091F70181
:1011F0008091F8019091F9010E947A0708951F9358
:10120000CF93DF938091F901807F09F049C08091ED
:10121000F601882309F444C08091C201C091C30142
:101220006091F4017091F501A091F701B091F8017E
:10123000D62FD72316E0C81799F190E0109711F038
:10124000DF3F19F401968770F6CF189F9001199F20
:10125000300D1124F901EC53FE4F41814713F2CFB9
:1012600040814613EFCF42814111ECCF438154813D
:101270004A1B5B0B483C510528F78091F9018F70A0
:1012800080618093F901F901E753FE4F80818F70EF
:101290008061808384EF91E00E94FA060E94CF086B
:1012A000DF91CF911F910895ABE0B0E0EAE5F9E05E
:1012B0000C9417248C0185E0F801DE01179601904B
:1012C0000D928A95E1F7F801E28084EFC82E81E063
:1012D000D82E6091F7017091F8016115710509F43C
:1012E00034C19091F4012091F501822F89238F3F21
:1012F00009F42BC140815181A380B480F090F601A4
:10130000F501E61BF70BFF2009F4D1C08091F9012C
:10131000382F307FE83CF10508F0A3C031116DC0D3
:10132000FE2C521316C0941314C0E11012C08F701B
:1013300080618093F9010E94F008C6010E94FA06BC
:101340008091F901F80185838F2D2B96EAE00C94AA
:101350003324A114B10429F0852F84238F3F09F091
:101360000DC180E0F82FF170DF2EE091C2012091D5
:10137000C30136E080FD1CC0EE2031F38091F901FD
:1013800081608093F901F12CDFCF8E2F90E03E9F9A
:10139000F0011124EC53FE4F6181561306C06081A9
:1013A000641303C06281E612E7CFFC013196E77057
:1013B000E213EBCF4F8358878F8198850E9499085D
:1013C000292F22952F70903260F0225F2F702230EB
:1013D00078F49F7051F0F8019581907F31F4D12C11
:1013E0000AC09F7011F08823D1F3805E8830B8F373
:1013F000C8010E94FA06FD2CA7CF521306C0941311
:1014000004C0F801EE2009F46DC0C8010E945D0718
:10141000882319F1EE2009F18091F901803270F0F2
:101420002091F4013091F5013A8329831B82BD821A
:10143000AC828E83CE0101960E94FA0686E0F80106
:10144000A4EFB1E001900D928A95E1F70E94FF08A8
:101450000E94F008FF24F39477CFC8010E94FA0697
:10146000F9CF311113C07A2DBB86AA866E2D8B85DC
:101470000E94700784EF91E00E94FA0686E0F60170
:1014800011928A95E9F70E94F0087DCF5213BDCFE3
:101490009413BBCFE110B9CFF8018583C8010E9436
:1014A000FA0686E0F60111928A95E9F74DCFE83CFD
:1014B000F10508F03DC0FE2CEE2079F252132AC04F
:1014C000941328C08091F90180FD1BC0982F907F54
:1014D000C1F0F8018583903F31F0982F907F905FA5
:1014E0008F70892B8583C8010E94FA0686E0F80177
:1014F000A4EFB1E001900D928A95E1F70E94F00807
:1015000023CF86E0F801A4EFB1E001900D928A9517
:10151000E1F71ACFC8010E945D0781118FCF80913A
:10152000F90181608093F901C8010E94FA060CCF8D
:101530007A2DBB86AA866E2D8B850E94700786E069
:10154000F60111928A95E9F7D9CFEE2009F485CFFB
:10155000C8010E945D07F82E882309F47ECF86E03B
:10156000F801A4EFB1E001900D928A95E1F784EFC4
:1015700091E00E94C7030E94FF08C0CF81E08E2542
:10158000F1CEACE0B0E0E7ECFAE00C941E244F831F
:10159000588769877A878B879C87CE0107960E9438
:1015A0005409882369F08A859B85892B39F04F81FE
:1015B0005885842F85238F3F09F071C016E065C0E0
:1015C00086E0FE013796DE01119601900D928A9514
:1015D000E1F76A857B856115710581F35F81488537
:1015E000842F85238F3F51F32091C30130E0C9013F
:1015F000019687709927E091C201E817190671F4E6
:101600000E943A071092C3011092C20186E0E4EFF3
:10161000F1E0DF011D928A95E9F7D0CF59834A8323
:101620007D836C8396E0929FD001939FB00D11242F
:10163000AC53BE4FFE01319601900D929A95E1F7A1
:101640008093C3010E94CF08B9CF819FC0011124AC
:101650008C539E4F0E9454098823E9F0E091C20107
:101660001E9FF0011124EC53FE4F40815181628195
:101670007381848195810E947A078091C20190E0F4
:101680000196877099278093C2018091C201909141
:10169000C3018913DACF2C96E3E00C943A246985D0
:1016A0007A858B859C850E947A0788CF682F8091E8
:1016B0000001909101010E940E1B0895682F8091F6
:1016C0000001909101010E941C1B0895809100016E
:1016D000909101010E942A1B089580911A0285951C
:1016E00085958595089580911A0287700895909147
:1016F0001A02977081E009F480E0089580913D021C
:10170000089590913D02982B90933D020895982F53
:10171000909580913D02892380933D020895109217
:101720003D02089590913C02982B90933C020895BD
:10173000982F909580913C02892380933C020895D4
:1017400010923C02089580911B02089508950E9412
:10175000A60B08959091950292FF08C090911B02EC
:10176000981721F080931B020E94A70B0895809187
:101770001B02882329F010921B0280E00E94A70B15
:101780000895CF93DF93E0910001F09101018091E2
:101790003D028083E0910001F091010180819091F0
:1017A0003C02892B808390911B02992381F0E09168
:1017B0000001F09101018081892B808380910001DB
:1017C000909101010E94761A81110E94B70BC0917D
:1017D0000001D091010140E250E06AEF71E0CE01DA
:1017E0000E945A24892B59F080E2FE01AAEFB1E051
:1017F00001900D928A95E1F7CE010E94201ADF91A7
:10180000CF91089508950E94020C08959091950239
:1018100092FF11C098E0899F90011124622B609380
:101820001A020E94BF0780911A02859585958595B9
:101830000E94030C08950E94BF07089510921A0297
:1018400080E00E94030C089590911A0280958923EC
:1018500080931A02282F277091F4282F082E000C4D
:10186000330B9217130659F09091950292FF07C01F
:101870008595859585950E94CB070E941E0C08953D
:101880009091950292FB222720F9281769F080FB9E
:1018900092F99093950280919402909195020E9402
:1018A000920C82E00E94240C08958091950282FBA4
:1018B000882780F991E089270E94400C089581E0F3
:1018C0000E94400C089580E00E94400C08956FEF44
:1018D0007FEF90E080E00E949C24089590E080E0FB
:1018E0000E947824883E9E4F19F40E94E4130895C4
:1018F00080E0089582E090E00E947024089583E0E3
:1019000090E00E9470240895CF9384E090E00E94BC
:101910007024C82F82E290E00E947024982F8C2FB0
:10192000CF910895CF93682FC92F84E090E00E9453
:101930007E246C2F82E290E00E947E24CF91089555
:10194000AB01BC018FE090E00E9490240895AB01B0
:10195000BC0183E190E00E949024089560E070E073
:10196000CB010E94A70C089560E070E0CB010E94BB
:10197000A00C0E94AE0C089568EE7EEF90E080E02F
:101980000E949C2460E082E090E00E947E2460E05F
:1019900083E090E00E947E241092C10160E084E028
:1019A00090E00E947E2464E082E290E00E947E2427
:1019B00060E085E090E00E947E2460E086E090E0B8
:1019C0000E947E246FEF87E090E00E947E2440E03A
:1019D00050E0BA0188E090E00E94902460E08DE041
:1019E00090E00E947E2440E050E0BA0188E190E05F
:1019F0000E94902460E087E190E00E947E2440E015
:101A000050E0BA018CE190E00E94902470E060E028
:101A100080E290E00E949C2440E050E0BA0188E11E
:101A200090E00E94902480E00E94FD130E946514C3
:101A30000E94B40C08950E94BC0C0895682F8EE09B
:101A400090E00E947E2408950E94F81B60934E024D
:101A500070934F02809350029093510260934A0218
:101A600070934B0280934C0290934D020895089519
:101A700008950E94380D089508950E943C0D089520
:101A800086EC9FE00E94091A0E94370D0E94390DD2
:101A9000089581E008950E94490D089508950895DC
:101AA0000E944E0D0E944F0D08950E94E20F0E9469
:101AB000650308950E94E31B0E9475140E94B310F1
:101AC0000E94550D0E943D0D0895A5E0B0E0EBE6A3
:101AD000FDE00C9414240E94C91020E4822E22E020
:101AE000922E640110E0F601E190F1906F01812FD8
:101AF0000E9405101F5F153009F44BC0E816F90667
:101B000091F38091520281FD0E940E100E944B0DB4
:101B1000782EF12C8F2D0E9405108C01F401A190DC
:101B2000B1904F018A159B0569F1A826B126E12CD9
:101B3000CC24C394D12CC5018C219D21892BC1F0CB
:101B40007720B1F0E982FA8221E0C8018C219D2141
:101B5000892B09F420E02B830E94EC1B8160782FF5
:101B60009D838C8349815A816B818D810E9493036F
:101B7000E394CC0CDD1CFFE0EF12DDCFF4013297D3
:101B800011830083F39485E0F812C4CF0E94240DE2
:101B900022C0E816F90609F0B4CF0E94EC1B8C01B4
:101BA00080913E0290913F0208171907A1F08FEF34
:101BB00089838A831B820E94EC1B8160782F9D831E
:101BC0008C8349815A816B818D810E94930310938C
:101BD0003F0200933E020E94E8120E947A0325967B
:101BE000EDE00C943024CF93DF930E94E10EEC01E2
:101BF000811522E5920708F059C0811531E5930758
:101C000008F0ADC0883E910518F5803E9105B8F505
:101C1000883A910570F4853A910508F09AC08130B0
:101C2000910569F10497813A910548F1D0E0C0E04F
:101C300026C0885A91094797C8F7C85AD0E0CC0FF8
:101C4000DD1FC75BDE4F0990D881C02DD46417C05B
:101C5000811540E59407B8F4C11580E4D80708F071
:101C60007BC0CF3FD10509F028F4C03FD105F0F289
:101C7000D06505C0CE019A9581159F41B8F6CE0179
:101C8000DF91CF9108958370992721E030E002C061
:101C9000220F331F8A95E2F7C695C69540E2C49F8E
:101CA000E0011124C22BD32BDD68E9CFC11586E5F5
:101CB000D80738F5C11525E5D20708F064C0C1156D
:101CC00034E5D307C8F49E01237033279C2F9695E3
:101CD0009695C115D34508F047C0C1E0D0E002C0D9
:101CE000CC0FDD1F2A95E2F720E2929FC00111245C
:101CF000C82BD92BDC68C3CFDC2FCC27C46FD06AAC
:101D0000BECFC1153AE5D30788F4C11549E5D4071C
:101D100008F044C0CE0198558F3F910511F008F0AE
:101D200085CFDC2FCC27C06FD06AA9CFCE019056CB
:101D30008115904208F07ACF8D2F8F710E94830F0A
:101D400090E0982F882788279F719C012C2BE90110
:101D500023C0A497D06493CFDF70D06A90CFD82FE0
:101D6000CC27C16FD06A8BCFC1E0D0E002C0CC0FCE
:101D7000DD1F2A95E2F730E2939FC0011124C82BA2
:101D8000D92BDA687CCF8C2F0E94830FC82FD0E02C
:101D9000DC2FCC27CC27DF71D06271CF8C2F8F70D6
:101DA0000E94830F34E0D695C7953A95E1F7CF703E
:101DB000DC2FC82FD06963CF0E9466180E94F30DF4
:101DC0000895803E9105C1F1C8F48133910509F46D
:101DD0007DC048F48932910509F46DC08A329105BD
:101DE00009F47BC0089589339105D1F082389105BB
:101DF000B9F08533910509F459C00895843E9105E1
:101E0000C1F138F4823E910521F1833E910531F113
:101E10000895863E9105C1F1873E9105E1F108954F
:101E200020919402237009F065C02091950223FF50
:101E300014C089E290E008952091940220FD43C0EF
:101E40003091950230FF09C024FF4EC090E080E041
:101E500008952091940222FDF7CF089520919402D5
:101E600022FD45C03091950230FD44C024FFF5CFDE
:101E7000EDCF2091950221FFF0CF8091940284FD57
:101E8000E5CF87EE90E008952091940223FFE5CFFF
:101E900024FDDCCFF6CF2091940223FD2EC030919B
:101EA000950231FFE3CF84EE90E0089520919402F3
:101EB00025FFD3CFBECF2091940225FD21C02091D4
:101EC000950223FFCACF89E390E0C7CF2091940207
:101ED00026FFC3CF8AE290E008952091940226FF66
:101EE000BCCF81E390E0089583EE90E0089582EE08
:101EF00090E0089580EE90E0089586EE90E00895D9
:101F000085E390E008959091940292FF06C0282FF7
:101F100028712830F9F4877F846093FF06C0282F4A
:101F200028712831F1F4877E84612091950220FF89
:101F300006C0382F38713830D9F4877F816021FF8F
:101F400006C0282F28712831D1F4877E816194FD45
:101F5000877E0895282F24712430F9F68B7F8860BE
:101F6000DCCF282F2471243101F78B7E8861DDCFEF
:101F7000382F3171313019F78E7F8860E0CF282FEC
:101F80002171213121F78E7E8861E1CF80E00895B3
:101F90000E94670C08950E94C9108FE39CE9019785
:101FA000F1F700C000000E94C91080E00E940510F7
:101FB00080FF04C00E94C80F0E94481C08950E9420
:101FC000CB0F08950E946E0C811102C00E941B0D60
:101FD0000E947A0C809352020E94840C9093950286
:101FE000809394020E94DF0F0E947F0C0E94900752
:101FF0008091C0010E94A807089508950E94FD0FD6
:10200000089508950E9401100895E82FF0E0EE0F62
:10201000FF1FE056FD4F808191810895089580EA69
:102020008A95F1F7089500C008950E940F10089551
:10203000F894E82FE295EF70F0E041A18F7021E075
:1020400030E0B90102C0660F771F8A95E2F7CB0135
:10205000962F9095942391A392A1892B82A3789493
:102060000895CF93DF93C6E8D1E089918F3F11F0B7
:102070000E94181081E0CB38D807B9F7C7E7D1E044
:1020800089918F3F11F00E94181081E0C638D8075F
:10209000B9F7DF91CF910895B0E0A0E0E2E5F0E17B
:1020A0000C941824EC01B62E062F10E0C8018A57B4
:1020B0009E4F7C01FC0120812F3F09F44CC0F89415
:1020C000E22FE295EF70F0E031A12F7081E090E017
:1020D00001C0880F2A95EAF7932F982B91A392A11C
:1020E0008095892382A378940E941310E7E7F1E09A
:1020F00041E050E0D12CC12C21912F3F89F1A22F3A
:10210000A295AF70B0E090968C9190E02F7002C0D5
:10211000959587952A95E2F780FD22C0CA01C82AC5
:10212000D92A440F551F81E0E638F80729F7F7014F
:1021300080818F3F11F00E94181061E0C114D1041A
:1021400009F460E08B2D0E941510000F111FC00FC5
:10215000D11FD982C882CDB7DEB7E9E00C94342410
:1021600090E080E0DCCF0E9431108AE0E0EAF2E00B
:10217000DF01982F1D929A95E9F7E6E9F2E0DF0179
:102180001D928A95E9F785E00E9405110E94CC0214
:102190000895AAE0B0E0EFECF0E10C941C248E016D
:1021A0000F5F1F4F8AE0F80111928A95E9F7F12C31
:1021B0006F2DC8010E944C10F394F5E0FF12F8CF88
:1021C0004AE050E0B80186E992E00E945A24AC014E
:1021D00021E0892B09F420E0452B41F08AE0F80149
:1021E000A6E9B2E001900D928A95E1F745E060EA38
:1021F00072E086E992E00E940611182F0E94CF0239
:10220000812F2A96E5E00C9438240895B0E0A0E0F0
:10221000ECE0F1E10C941A24D82EE92EF62E072FCB
:10222000C42F222349F081E0809355020E94EC1BC9
:10223000909354028093530210915502111107C0DC
:1022400010E0812FCDB7DEB7E7E00C943624809103
:102250005302909154020E94151C059788F3D0E018
:10226000CC0FDD1FAE016D2D7E2D8F2D902F0E9486
:102270005A24892B51F0AE016D2D7E2D8F2D902F7C
:102280000E94672410925502DCCF10E0FBCF0E9421
:10229000541E0E945A0D0E94611E08950E94661EDF
:1022A0000E94650D0E94801E08950E94851B0E9459
:1022B0003A1E0E94400D0E9447110E944E110E943A
:1022C000500DFBCF80915C0280FF0DC06091070133
:1022D00070E0660F771F6038710570F56115710544
:1022E00069F1862F089581FF07C06091070184E09E
:1022F000689FB0011124EFCF6091070182FD0AC0F1
:1023000080915B028823A9F020910601609107016A
:10231000821710F088E0ECCF869FC001112433E0D3
:10232000880F991F3A95E1F7622F70E00E94EE2323
:10233000D2CF68E070E0D5CF8FE7089581E00895AF
:1023400080915C0280FF0CC06091030170E0759584
:102350006795759567956115710549F1862F089503
:1023600081FF06C06091030170E075956795F3CF1A
:102370006091030182FD0BC090915A029923A1F054
:102380006091020180910301961738F0682F70E088
:102390006038710500F38FE70895899FC00111240B
:1023A00070E00E94EE23F4CF61E070E0D7CF81E0CF
:1023B0000895803F31F40E946211819580936002FC
:1023C0000895813F19F40E946211F8CF823F31F4E1
:1023D0000E946211819580935F020895833F19F4F2
:1023E0000E946211F8CF893F29F40E94A0118093C6
:1023F000610208958A3F21F40E94A0118195F7CFD0
:102400008B3F31F40E94A011819580936202089560
:102410008C3F19F40E94A011F8CF9CE0980F9530E2
:1024200070F4845F990B21E030E001C0220F8A959F
:10243000EAF780915E02822B80935E0208958D3FC1
:1024400031F480915C02816080935C0208958E3F3C
:1024500021F480915C028260F7CF8F3FB9F78091C1
:102460005C028460F1CF40915F02803F59F480911B
:10247000600287FF0DC01092600241110BC01092E4
:102480005B0208C0813F81F48091600218169CF3C2
:10249000442381F08091610290916202892B09F0BE
:1024A0005AC010925A020895823F49F447FFF0CF74
:1024B00010925F02809160028111ECCFE0CF833FE8
:1024C00019F41416ACF3E4CF90916102893F29F41A
:1024D0001916F4F610926102DBCF8A3F19F497FFC8
:1024E000D7CFF8CF909162028B3F29F497FFD0CFDE
:1024F00010926202CDCF8C3F19F41916CCF3C8CFDD
:102500009CE0980F953090F4845F990B21E030E0C7
:10251000B90102C0660F771F8A95E2F7CB0180955B
:1025200090915E02892380935E02B2CF8D3F31F499
:1025300080915C028E7F80935C02AACF8E3F21F453
:1025400080915C028D7FF7CF8F3F09F0A1CF809102
:102550005C028B7FF0CF08950E94EC1B20915F02FC
:1025600030916002232B21F08093580290935902FE
:102570002091610230916202232B21F08093560258
:10258000909357028DE592E00E943B1A089586E0F1
:10259000EDE5F2E0DF011D928A95E9F710925B020A
:1025A00010925A0210925C020895FC0182818111FE
:1025B0000DC0838181110AC08481811107C081E02F
:1025C0009581911101C080E08170089581E0FCCF78
:1025D000A6E0B0E0EEEEF2E10C941E2486E0EDE51C
:1025E000F2E0DE01119601900D928A95E1F71092CA
:1025F0005F021092600210926102109262028B815F
:102600009C81892B89F080915802909159020E94F7
:10261000151C9C0180915B028823C9F190910801EF
:102620009217130608F440C08D819E81892B91F08A
:1026300080915602909157020E94151C9C01809136
:102640005A02882309F471C090910401921713066D
:1026500008F479C0BE016F5F7F4F8DE592E00E9464
:102660003C1B811105C08DE592E00E94D5128111BD
:102670000E94AC1286E0FE013196ADE5B2E0019019
:102680000D928A95E1F72696E3E00C943A24409166
:1026900009019AE0499FA00111244217530720F62F
:1026A0008F5F80935B0202C08F3FD1F71B811123A4
:1026B00059F00E9462119FEF11160CF491E0899F6E
:1026C000802D112480935F021C81112359F00E94F8
:1026D00062119FEF11160CF491E0899F802D112457
:1026E0008093600230915F02332309F49DCF2091E3
:1026F0006002222309F498CF45EB3403C001112472
:10270000992359F090935F0245EB24039001112423
:10271000332339F03093600287CF81E080935F02EA
:10272000F3CF81E0809360027FCF409105019AE072
:10273000499FA00111244217530708F08BCF8F5FE8
:1027400080935A0202C08F3FD1F71D81112359F0A7
:102750000E94A0119FEF11160CF491E0899F802D2B
:102760001124809361021E81112359F00E94A0114F
:102770009FEF11160CF491E0899F802D1124809316
:10278000620230916102332309F464CF2091620226
:10279000222309F45FCF45EB3403C00111249923B0
:1027A00059F09093610245EB2403900111243323E7
:1027B00039F0309362024ECF81E080936102F3CF13
:1027C00081E08093620246CF83E290E00E94702411
:1027D000823289F484E290E00E947024813159F4BD
:1027E00085E290E00E94702491E0863109F090E04B
:1027F000892F8170089580E0FCCFCF93C82F6FEFB1
:10280000811162E283E290E00E947E246FEFC111A9
:1028100061E184E290E00E947E246FEFC11166E1E5
:1028200085E290E00E947E24CF9108950895CF9292
:10283000DF92EF92FF92CF93DF9300D000D0CDB71D
:10284000DEB786E290E00E94702490E0B0E0A0E065
:10285000CC24D82EE92EFA2E87E290E00E94702434
:102860009601282BC701B9010F900F900F900F9080
:10287000DF91CF91FF90EF90DF90CF900895089572
:10288000A4E0B0E0E6E4F4E10C941F2469837A83C9
:102890008B839C8369817A818B819C810E943F1408
:1028A000698187E290E00E947E2429813A814B81F0
:1028B0005C819927852F742F632F86E290E00E9418
:1028C0007E242496E2E00C943B2480E00E94FD13D9
:1028D00060E070E0CB010E9440140E94E0170E946B
:1028E000C31881E00E94FD1308950E9416140E94EF
:1028F00017140E943F140E94E413811102C00E9429
:1029000065140895CF939C01FB01C281CC2301F192
:1029100082519F45409720F58EEE820F0E94D3187A
:10292000C0E08C2FCF91089581E00E94BF0743E063
:1029300062E081E00E94C202F3CF81E00E94CB07F7
:1029400043E062E081E00E94C202EBCF82E0F6CF7A
:1029500080319F4591F321313F45C1F3C1E0E1CF83
:102960002031EFE53E0701F382E021313F45E9F2F6
:10297000D8CF2FEFFC0120830895AEE0B0E0E3EC68
:10298000F4E10C941B248D839E83162FAD81BE81B0
:10299000EC91E150E33108F080C0F0E0E054FB4DF1
:1029A0000C940224ED81FE8111828AE08283612FE2
:1029B0008D819E810E94111D2E96E6E00C94372495
:1029C000AD81BE8111968C91823079F08330D1F047
:1029D000813041F50E94F81B0E940824ED81FE81A0
:1029E0006283738384839583E2CF0E9417140E94CD
:1029F0000824AD81BE8112966D937D938D939C9337
:102A00001597D5CFED80FE8000E0802F0E94051045
:102A1000F701928383830F5FF2E0EF0EF11C053024
:102A2000A1F7C5CF612F8D819E810E94B914BFCFC0
:102A3000AD81BE8111968C911197823099F71296D3
:102A40008D919D910D90BC91A02DBC01CD010E9456
:102A500008240E944014ABCFED81FE814381628146
:102A600081810E94A217982789279827AD81BE816E
:102A700015969C938E9314979ACFED81FE812481B5
:102A800035813227232732274381628181810E9449
:102A9000C4178DCF0E94E0178ACF8FEFAD81BE8122
:102AA0008C9385CF0E947418ED81FE8181837FCF46
:102AB0000E947618982789279827AD81BE811296A3
:102AC0009C938E93119773CFED81FE81638170E0AB
:102AD00081819281AF014C5F5F4F982789279827AA
:102AE0000E94791864CFAD81BE8113966C911397C3
:102AF00070E011968D919C911297AD014C5F5F4FE4
:102B00009827892798270E949E1851CF0E94C318A2
:102B10004ECF0E949017C8CFAD81BE8113966C91A5
:102B2000139770E011968D919C911297AD014C5FB7
:102B30005F4F9827892798270E941E1838CFED816C
:102B4000FE81638170E081819281AF014C5F5F4FB4
:102B50009827892798270E94421829CFCF93DF937F
:102B6000EC01FB018281882309F415C1C136FDE522
:102B7000DF0749F048F5C631ECE5DE07E0F4C23086
:102B8000FCE5DF07F0F00E94840C9093950280939F
:102B90009402C631ECE5DE0778F5C230FCE5DF07CC
:102BA000F0F480919402909195020E94920C0E9400
:102BB0003A0780E006C09E012A5F3C452930310576
:102BC00010F3DF91CF910895C53A9DE5D907D9F269
:102BD0009E012D5A3D452330310598F7D4CFFE0193
:102BE000E350FC45809194028160E331F10550F59A
:102BF000ED52FB4D0C940224C3308DE5D80770F4E0
:102C0000CA3F9CE5D90768F2FE01EB5FFC45E8305E
:102C1000F105E8F5EA51FB4D0C940224CD3AEDE5BF
:102C2000DE0719F190F4C1368DE5D80709F4ACC080
:102C300090919402892F8E7F90FF8160C53ADD4587
:102C400009F0AFCF80939402ACCFCE3AEDE5DE072A
:102C500009F443C0CF3ADD4509F0A3CF9091950226
:102C6000892F877F93FF886003C0809195028860D9
:102C70008093950296CF809194028260E3CF8091F9
:102C800094028460DFCF809194028860DBCF8091D2
:102C900095028160EDCF809195028260E9CF8091AD
:102CA00094028061CFCF809194028062CBCF8091DB
:102CB00094028064C7CF0E943A0780919402806892
:102CC000C1CF809194028C60BDCF809195028360CA
:102CD000CFCF809194028E7FB5CF80919502877F70
:102CE000C7CF809194028D7FADCF809194028B7F6E
:102CF000A9CF80919402877FA5CF809195028E7F86
:102D0000B7CF809195028D7FB3CF809194028F7E53
:102D100099CF809194028F7D95CF809194028F7B83
:102D200091CF0E943A07809194028F778BCF809148
:102D30009402837F87CF809195028C7F99CF809179
:102D4000940282FB992790F921E0922790FB82F967
:102D500090FB83F977CF80919502982F9095917091
:102D60008E7F892B90FB81F983CF0E943A07909147
:102D70009402892F97FB87F9805864CF81E00E94E5
:102D80001E0D0FCF80E0FBCF90919402892F8F7E94
:102D900094FF806157CF81E014CFB0E0A0E0E3ED75
:102DA000F6E10C941A24E82FF0E0E852FE4FD4909C
:102DB000282F26952695269530E0F901E858FD4FF5
:102DC0000491877010E0082E02C0159507950A94AB
:102DD000E2F701701127F901E859FD4FE490F12C59
:102DE000082E02C0F594E7940A94E2F791E0E922F4
:102DF000FF24F901E85AFD4FC491D0E002C0D595F7
:102E0000C7958A95E2F7C170DD270115110519F004
:102E100081EE0E94CD03E114F10419F086EE0E94C8
:102E2000CD038D2D0E94CE04E114F10419F086EE3D
:102E30000E945D040115110519F081EE0E945D04E8
:102E4000CD2B19F08CE20E94CE04CDB7DEB7E7E0BF
:102E50000C943624EF92FF920F931F93CF93DF933E
:102E6000EC01162F0AE08881882309F454C08130D0
:102E700009F04EC08981813099F47E0122E0E20E92
:102E8000F11C8A810E94CE04E7012196812F815096
:102E900050F3EFE9FFE03197F1F700C00000F7CF02
:102EA000823041F47E0182E0E80EF11C8A810E94AA
:102EB000CD03EACF833041F47E01E2E0EE0EF11C57
:102EC0008A810E945D04E0CF843011F02196DDCF2D
:102ED0002A81229690E080E0AE014F5F5F4F205341
:102EE000330B2A30310548F0019778F2EFE9FFE023
:102EF0003197F1F700C00000F7CF089FB001099F9C
:102F0000700D1124C901860F971F2981EA01E4CFB2
:102F10000E94CD16BACFCDB7DEB7E6E00C943724C9
:102F200084E0089550E0440F551F9EE1699F400DD5
:102F3000511D112496E9899F400D511D1124CA018C
:102F4000889608950F931F93CF93DF938430C8F42E
:102F50006530B8F44F30A8F40E9492178C010E949B
:102F60007024C82FD0E0DC2FCC27C80101960E9426
:102F700070249E01282BC901DF91CF911F910F91E1
:102F8000089590E080E0F8CF0F931F93CF93DF93E5
:102F9000122F032F843078F4653068F44F3058F4E2
:102FA0000E949217EC01602F0E947E24612FCE01B7
:102FB00001960E947E24DF91CF911F910F91089579
:102FC000B0E0A0E0E6EEF7E10C941724B12CA12CC0
:102FD000D0E0C0E0650110E01CC00E94520221E078
:102FE00030E08C171D0621F01CF0F701259134917B
:102FF000402F612F8C2F0E94C41722E0E20EF11C9B
:103000000F5F0F3051F73FE0C30ED11C1F5F15302B
:1030100049F0C601880F991F9C0124553F4F790143
:1030200000E0DBCF21963BE4A30EB11CC430D105F8
:1030300089F6CDB7DEB7EAE00C943324EF92FF9225
:103040000F931F93CF93DF93EC018A017C01E60E6F
:10305000F71ECE018896CE15DF0529F4CDB7DEB771
:10306000E6E00C943724C83522E0D20740F40E94F1
:103070007024F80180830F5F1F4F2196EACFF8017B
:103080001082F9CFB0E0A0E0E8E4F8E10C94192454
:103090008C016A017C01E60EF71EEC01CE018896D8
:1030A000CE15DF0529F4CDB7DEB7E8E00C94352462
:1030B000C83522E0D20740F4FE01E01BF10BEC0D15
:1030C000FD1D60810E947E242196E8CF462F672F48
:1030D000843038F4753028F44F3018F40E94A21769
:1030E000089580E090E0089580E1089580E891E0FF
:1030F0000895EF92FF920F931F93CF93DF93EC010C
:103100008A017C01E60EF71ECE0180589D4FCE1538
:10311000DF0529F4CDB7DEB7E6E00C943724C038DC
:1031200021E0D20740F40E947024F80180830F5FF1
:103130001F4F2196E9CFF8011082F9CFB0E0A0E04F
:10314000E4EAF8E10C9419248C016A017C01E60E92
:10315000F71EEC01CE0180589D4FCE15DF0529F4F6
:10316000CDB7DEB7E8E00C943524C03821E0D207B3
:1031700040F4FE01E01BF10BEC0DFD1D60810E948F
:103180007E242196E7CFCF93DF93C0E8D2E060E0C2
:10319000CE010E947E242196C11584E0D807B9F79C
:1031A000DF91CF910895A4E0B0E0E9EDF8E10C944F
:1031B0001A24F82E8FE08F1588F18FEF93E00E948C
:1031C000702481112BC000E812E0F1102BC0809117
:1031D000170190911801A0911901B0911A018983EA
:1031E0009A83AB83BC83DD24D39478018FEFE81AF4
:1031F000F80AC8010E94702489831A82882371F01A
:103200009FEF980F9330D8F48A83D9820E5F1F4FB7
:10321000C7010E9470248B83811112C02496E7E0BD
:103220000C943624011584E01807C1F3C8010E94EC
:103230007024811101C0FA940F5F1F4FC6CF870120
:1032400060E0CE0101960E942A17CFCFCF93DF9383
:10325000EB0186319C4511F50E947E0B9A819923E2
:1032600099F08A7A91E009F490E0909363028111D9
:1032700009C089E20E94560B0E94C10B80E0DF91D9
:10328000CF91089585E3F6CF80916302811104C048
:1032900089E20E945E0BF0CF85E3FBCF81E0EFCFA8
:1032A0000F931F93CF93DF93C42FD22FFC01828102
:1032B0008823C9F0409366020E94EC1B909365023C
:1032C0008093640280E28C0F883040F4C77081E004
:1032D00001C0880FCA95EAF70E94D704DF91CF9109
:1032E0001F910F91089510916602141332C08091BE
:1032F0006402909165020E94151C883C910548F576
:10330000C0E2CD0F1D17B9F080E2810F883040F484
:10331000177081E001C0880F1A95EAF70E94DE0459
:10332000C83048F481E09D2F977001C0880F9A95AE
:10333000EAF70E94D704802F0E94CE04C83070F6AE
:10334000D77081E001C0880FDA95EAF70E94DE04A9
:10335000C5CF80E28C0F883008F6C77081E001C0CD
:10336000880FCA95EAF7F2CF0F939C01CB01233F58
:103370004CE53407A1F190F4283DFCE53F0749F105
:10338000293D4CE53407E9F1273D3C45C1F0FC01FE
:1033900082818823E1F11092660219C0253FFCE585
:1033A0003F0719F1263F4CE5340729F1243F3C45FE
:1033B00071F707E225EE44EE64EF7CE505C006E216
:1033C00021EE41EE67ED7CE50E94501980E00F91FF
:1033D000089507E225EE45EE68ED7CE5F5CF06E2BF
:1033E00021EE40EE63EF7CE5EFCF06E221EE42EE08
:1033F00065EF7CE5E9CF07E225EE46EE66EF7CE57A
:10340000E3CF08E221E045EE69ED7CE5DDCF81E028
:10341000DECF90939B0180939A01089590936C0264
:1034200080936B020895E0916B02F0916C023097EB
:1034300029F00190F081E02D0995089580E008952C
:10344000DC01E0916B02F0916C02309799F0809171
:103450001601882351F08091940287FF06C08C9159
:1034600011968C93119786E08C930280F381E02D66
:10347000CD0109950895DC01E0916B02F0916C0299
:10348000309739F082E08C930480F581E02DCD01F6
:10349000099508952091690230916A022817390729
:1034A00071F090936A0280936902E0916B02F0914F
:1034B0006C02309721F00680F781E02D0995089580
:1034C00020916702309168022817390771F09093B4
:1034D000680280936702E0916B02F0916C02309772
:1034E00021F00084F185E02D09950895FC013296C4
:1034F00080911601882321F0809194029EE187FF3C
:1035000096E080E0915008F4089521912223D1F3B0
:103510008F5FF8CF9C01662301F18091160188230B
:10352000F1F08091940287FF1AC0462F4695469588
:103530004695603F90F4677081E090E002C0880F8C
:10354000991F6A95E2F7240F311DF901228130E0BD
:103550002823392381E0232B71F480E00895F901B9
:103560003296285F3F4F8191861721F0E217F307CB
:10357000D1F7F3CF81E008959C01FC0132968FEFE3
:1035800090E04191461751F08F3F19F4411101C06D
:10359000892F9F5F9630A9F78F3F09F40895280F70
:1035A000311D87FD3A95F901628308959C01FC0164
:1035B0003296285F3F4F8191861303C0DF01119738
:1035C0001C92E217F307B9F70895E62FE695E69502
:1035D000E695603F68F4E80FF92FF11D677021E070
:1035E00030E001C0220F6A95EAF78281822B828344
:1035F0000895E62FE695E695E695603F70F4E80FAE
:10360000F92FF11D677081E090E001C0880F6A9585
:10361000EAF780959281892382830895209116018B
:10362000222339F02091940227FF03C00E94E51A5B
:1036300008950E94BC1A089520911601222339F0A2
:103640002091940227FF03C00E94F91A08950E9456
:10365000D61A0895FC01329680911601882351F004
:103660008091940287FF06C08EE1DF011D928A954A
:10367000E9F7089586E0F9CF46E050E00E945A2429
:103680009C0181E0232B09F480E0089508950E94B5
:10369000461B0895811106C081E080936D020E944F
:1036A000471B089582E0F9CF83E080936D020E946A
:1036B000471B08950E944A1B089581E080936D0284
:1036C0000E94471B08950E945D1B08950895089568
:1036D0000E94671B0895089508950E94661B08952F
:1036E000CF930E946B1B0E94C9100E946C1BC0E00C
:1036F0008C2F0E940510892B31F4CF5FC530C1F7A4
:1037000080E0CF91089581E0FCCF85B7806885BFC8
:1037100085B7806885BF08951F921FB61F92112438
:103720008F939F93AF93BF9380916E02811113C0CB
:103730008091AA029091AB02A091AC02B091AD022F
:103740004196A11DB11D8093AA029093AB02A09354
:10375000AC02B093AD02BF91AF919F918F911F903A
:103760001FBE1F9018958091B202843031F10E94E3
:10377000480310926E0288E190E020E40FB6F894BE
:10378000A895809360000FBE2093600083B7817F6F
:10379000846083BF83B7816083BF7894889583B743
:1037A0008E7F83BF0FB6F894A895809160008861E2
:1037B00080936000109260000FBE08950E943A0747
:1037C0000E944D03089582E084BD93E095BD9AEF79
:1037D00097BD80936E0008952FB7F8948091AA0248
:1037E0009091AB02A091AC02B091AD022FBF0895B1
:1037F000A4E0B0E0EEEFFBE10C941F248FB7F89447
:103800002091AA023091AB024091AC025091AD02DE
:1038100029833A834B835C838FBF69817A818B8153
:103820009C812496E2E00C943B249C014FB7F894D1
:103830008091AA029091AB02A091AC02B091AD022E
:103840004FBF821B930B089578941F921FB61F924F
:1038500011248F939F93AF93BF938091AA0290916D
:10386000AB02A091AC02B091AD020196A11DB11DB9
:103870008093AA029093AB02A093AC02B093AD02E6
:10388000BF91AF919F918F911F901FBE1F90189570
:1038900081E08093E00080E28093D8001092C9001C
:1038A0008FE19EE40197F1F700C0000087E090EB04
:1038B000DC018093BB029093BC02A093BD02B09345
:1038C000BE0288E19CE00FB6F894A8958093600052
:1038D0000FBE90936000FFCF88E19CE00FB6F89494
:1038E000A895809360000FBE90936000FFCF8091F9
:1038F00092020895089524E02093E9002FEF30917B
:10390000E800215035FD06C035ED3A95F1F700008D
:103910002111F5CF2091E80025FF0BC050E040E0D9
:1039200066E070E00E94211F8091E8008E7780930E
:10393000E8000895CF93DF93D82FC92F8091160107
:103940008823C1F18091940287FF34C060E284E053
:103950008093E9008FEF9091E800815095FD06C0BB
:1039600095ED9A95F1F700008111F5CF8091E8006F
:1039700085FF1DC08091160170E050E040E081118C
:1039800004C050E040E068E070E08D2F9C2F0E9462
:10399000211F8091E8008E778093E80080E2ED2F70
:1039A000FC2FA2E7B2E001900D928A95E1F7DF913A
:1039B000CF91089568E081E0CBCF80936F02709340
:1039C0007102609370028091B2028430F9F48093A6
:1039D000E9008FEF9091E800815095FD06C095EDCC
:1039E0009A95F1F700008111F5CF8091E80085FFED
:1039F0000DC050E040E063E070E08FE692E00E948E
:103A0000211F8091E8008E778093E8000895BC0123
:103A100084E00E94DD1C0895BC0183E00E94DD1C4F
:103A20000895CF93603219F52091B2022430F9F451
:103A3000C091E900CF703091EC00232F217030FD50
:103A400020E8C22B22E02093E9002091E80020FF2B
:103A50000BC050E040E060E270E00E94211F8091C6
:103A6000E8008E778093E800CF70C093E900CF9193
:103A700008958091B102811109C00E94F8200E942E
:103A800055218091E20084608093E20008951092B5
:103A9000B10208950E945D1B08956091AE0281E01D
:103AA000611101C080E00E94541B08959091B20200
:103AB00081E0943009F080E06091AE020E945A1BD0
:103AC000089542E061EC81E00E94742042E261ECE2
:103AD00084E00E94742042E261EC82E00E94742043
:103AE00042E260EC83E00E9474209091B20281E097
:103AF000943009F080E06091AE020E944A1B089564
:103B00008091B402893089F148F4823009F4A1C06F
:103B1000833009F45BC0813041F008958A3009F4A4
:103B200088C08B3009F46DC008958091B302813A4A
:103B300009F04BC08091E800877F8093E800809176
:103B4000B7029091B802892B61F460E282E792E0BB
:103B500070E00E94BF1F8091E8008B778093E8009F
:103B6000089560E090E080E0F3CF8091B30281326D
:103B700061F58091B7029091B8028D7F892B29F56C
:103B80008091E800877F8093E8008091E80082FFC1
:103B900018C09091F3008091F200029731F4809167
:103BA000F100813011F0863021F48091F100809392
:103BB00092028091E8008B778093E8000E94A82011
:103BC00004C08091B2028111E0CF08958091B302C8
:103BD000813AD9F78091B7029091B802892BA9F761
:103BE0008091E800877F8093E8008091E80080FF63
:103BF000FCCF809116018093F1008091E8008E77D0
:103C0000DBCF8091B302813201F78091B7029091AE
:103C1000B802892BD1F68091E800877F8093E80075
:103C20000E94A8208091B502809316010E943A0755
:103C300008958091B302813241F68091E800877F38
:103C40008093E8000E94A8208091B602809393029E
:103C500008958091B302813A09F0B7CF8091E800CE
:103C6000877F8093E8008091E80080FFFCCF8091FF
:103C70009302C1CF84B7877F84BF0FB6F894A8950D
:103C800080916000886180936000109260000FBE98
:103C900080E890E00FB6F894809361009093610003
:103CA0000FBE0E94631B08950E94F8200E945521B8
:103CB000E2EEF0E080818460808378940E94D323D8
:103CC00008958AE091E00E940E1A08958091B20250
:103CD000853031F48091B202853019F00E94DE1BEC
:103CE00008950E94B31B8091B002882399F30E942B
:103CF000701B882379F30E940B1F0E943A07EACFBA
:103D0000A0E2B0E0E6E8FEE10C941F248091B2024C
:103D1000843009F583E08093E9008091E80082FF18
:103D20001AC08091E80090E085FF09C050E040E0B3
:103D300060E270E0CE0101960E94701F91E08091D8
:103D4000E8008B778093E800992329F060E2CE01A8
:103D500001960E94BD14A096E2E00C943B240E94C0
:103D6000B21E0895FC01CB01DA012F2F3327233037
:103D70003105D1F070F42130310509F447C022300B
:103D8000310569F48BE590E02AEA32E02D933C930B
:103D9000089521323105E9F02232310539F190E000
:103DA00080E030E020E0F2CFCF019927E13059F0F8
:103DB0008230910559F0E6EAF2E0892B81F784918F
:103DC00090E09F01E3CFE4E9F2E0F9CFE8E8F2E028
:103DD000F6CF6330710518F7880F991FFC01EC5678
:103DE000FE4F2081318189E090E0D0CF63307105B2
:103DF000B0F6FB01EE0FFF1FE257FE4F208131812D
:103E000085579E4FFC01808190E0C0CF82E190E019
:103E100025E033E0BBCF80E189BD82E189BD09B4F3
:103E200000FEFDCF8091D8008F7D8093D8008091D7
:103E3000E00082608093E0008091E00081FDFCCF93
:103E40000895AF92BF92CF92DF92FF920F931F938C
:103E5000CF93DF936C01EB018A010E94C720F82EFB
:103E6000811123C00115110539F0F801808191817C
:103E7000C81BD90BC80ED91EB12CA12C2097A9F0B4
:103E80008091E80085FD22C08091E8008E778093C4
:103E9000E80001151105A1F0F80180819181A80EBB
:103EA000B91EB182A08285E0F82E8F2DDF91CF91CF
:103EB0001F910F91FF90DF90CF90BF90AF9008952A
:103EC0000E94C7208823D1F2F82EEFCFF60181910E
:103ED0006F018093F1002197FFEFAF1ABF0ACECF99
:103EE000AF92BF92CF92DF92FF920F931F93CF9327
:103EF000DF936C01EB018A010E94C720F82E81112B
:103F000023C00115110539F0F80180819181C81B8A
:103F1000D90BC80ED91EB12CA12C2097A9F08091E5
:103F2000E80085FD22C08091E8008B778093E8004F
:103F300001151105A1F0F80180819181A80EB91E2B
:103F4000B182A08285E0F82E8F2DDF91CF911F9155
:103F50000F91FF90DF90CF90BF90AF9008950E9497
:103F6000C7208823D1F2F82EEFCF8091F100F6011F
:103F700081936F012197FFEFAF1ABF0ACECFFC01EB
:103F8000CB012091B9023091BA022617370790F081
:103F9000009729F42091E8002E772093E80040E074
:103FA000009751F4411108C08091E80082FF31C0B0
:103FB00080E00895C901F3CF2091B2022223A9F134
:103FC0002530A9F12091E80023FD2DC02091E800C3
:103FD00022FDEACF2091E80020FFE2CF3091F300EC
:103FE0002091F200009719F02830310558F041E097
:103FF0002830310509F040E02091E8002E77209329
:10400000E800CECF41914093F10001972F5F3F4FE1
:10401000E9CF8091B202882341F0853041F0809150
:10402000E80083FFC1CF81E0089582E0089583E036
:104030000895FC01CB012091B9023091BA022617F4
:10404000370790F0009729F42091E8002E7720930D
:10405000E80040E0009751F4411108C08091E80069
:1040600082FF32C080E00895C901F3CF2091B202EF
:104070002223B1F12530B1F12091E80023FD2EC0BB
:104080002091E80022FDEACF2091E80020FFE2CF56
:104090003091F3002091F200009719F0283031059B
:1040A00058F041E02830310509F040E02091E80067
:1040B0002E772093E800CECF44914093F1003196C3
:1040C00001972F5F3F4FE8CF8091B202882341F0E4
:1040D000853041F08091E80083FFC0CF81E00895F2
:1040E00082E0089583E00895982F973028F08F702C
:1040F0008093E90081E008959093E900242F762FC2
:1041000050E0981731F07091EC002091ED00509143
:10411000F00021FD02C09F5FE8CF3091EB003E7FB1
:104120003093EB003091ED003D7F3093ED00309106
:10413000EB0031603093EB007093EC002093ED00C6
:104140005093F0002091EE0027FDE5CF80E0089528
:104150008091B30287FF13C08091E80082FF06C000
:104160008091E8008B778093E80004C08091B202D0
:104170008111F2CF08958091B2028823D9F3809102
:10418000E80080FFF8CF8091E8008E77ECCF209197
:10419000E4003091E50095E6A9012091EC00822F22
:1041A000817020FF06C08091E80080FF06C080E09B
:1041B00008952091E80022FD1AC08091B202882360
:1041C00089F0853089F08091EB0085FD0FC020914A
:1041D000E4003091E50042175307F9F29150E1F6FF
:1041E00084E0089582E0089583E0089581E00895D1
:1041F0000E9467210E946F21E0EEF0E080818160E3
:104200008083E8EDF0E080818F77808319BCA7ED93
:10421000B0E08C918E7F8C9380818F7E8083109212
:10422000B10208950F931F93CF93DF930E946721EC
:104230000E946F21C8EDD0E088818F7788838881C4
:104240008068888388818F7D888319BC1092B20230
:104250001092AE021092B0021092AF0200EE10E087
:10426000F80180818B7F808388818160888342E030
:1042700060E080E00E947420E1EEF0E080818E7FBB
:104280008083E2EEF0E080818160808380818860BD
:104290008083F80180818E7F80838881806188831C
:1042A000DF91CF911F910F910895E8EDF0E08081AB
:1042B0008F7E8083E7EDF0E080818160808384E001
:1042C00082BF81E08093B1020E9412210895E8ED3F
:1042D000F0E080818E7F80831092E200089510923A
:1042E000DA001092E10008951F920F920FB60F921C
:1042F00011242F933F934F935F936F937F938F93EB
:104300009F93AF93BF93EF93FF938091E10082FF60
:104310000BC08091E20082FF07C08091E1008B7F9B
:104320008093E1000E94D2238091DA0080FF19C0BF
:104330008091D80080FF15C08091DA008E7F809335
:10434000DA008091D90080FF94C080E189BD82E1CC
:1043500089BD09B400FEFDCF81E08093B2020E94C6
:10436000391D8091E10080FF19C08091E20080FF3B
:1043700015C08091E2008E7F8093E2008091E20080
:1043800080618093E2008091D80080628093D800A1
:1043900019BC85E08093B2020E944D1D8091E1001E
:1043A00084FF29C08091E20084FF25C080E189BD9F
:1043B00082E189BD09B400FEFDCF8091D8008F7DD8
:1043C0008093D8008091E1008F7E8093E1008091FE
:1043D000E2008F7E8093E2008091E2008160809312
:1043E000E2008091AE02882309F449C084E0809302
:1043F000B2020E94561D8091E10083FF29C0809186
:10440000E20083FF25C08091E100877F8093E10077
:1044100082E08093B2021092AE028091E1008E7F22
:104420008093E1008091E2008E7F8093E200809192
:10443000E20080618093E20042E060E080E00E9460
:1044400074208091F00088608093F0000E944A1DE3
:10445000FF91EF91BF91AF919F918F917F916F915C
:104460005F914F913F912F910F900FBE0F901F9032
:10447000189519BC1092B2020E94471D72CF80910C
:10448000E30087FD02C081E0B2CF83E0B0CF1F928E
:104490000F920FB60F9211242F933F934F935F9378
:1044A0006F937F938F939F93AF93BF93CF93DF933C
:1044B000EF93FF93D091E900DF708091EC00C82F5B
:1044C000C17080FDC0E81092E9008091F000877F04
:1044D0008093F00078940E948B221092E9008091E2
:1044E000F00088608093F000CD2BCF70C093E9007E
:1044F000FF91EF91DF91CF91BF91AF919F918F91FC
:104500007F916F915F914F913F912F910F900FBECF
:104510000F901F901895AAE2B0E0E1E9F2E20C9446
:104520001E2483EB92E0FC0101962091F100208390
:1045300022E08B3B9207B9F70E94801D8091E80032
:1045400083FF1EC18091B3029091B4029A3008F0AB
:1045500017C1E92FF0E0E251FB4D0C9402248038A2
:1045600099F0823809F00CC18091B7028F708730C2
:1045700008F006C18093E9008091EB0085FB882755
:1045800080F91092E90006C08091AF029091B002CC
:10459000911182609091E800977F9093E80080935A
:1045A000F1001092F1008091E8008E77E5C0882339
:1045B00009F4D3C0823009F0E3C08091B5028111C3
:1045C000D6C08091B7028F702FEF280F263008F0E9
:1045D000D7C08093E9002091EB0020FFC8C0933042
:1045E00031F48091EB0080628093EB00C0C0909129
:1045F000EB0090619093EB0021E030E001C0220FCE
:104600008A95EAF72093EA001092EA008091EB0085
:104610008860EACF8111B4C01091B5021F778091F4
:10462000E3008078812B8093E3008091E800877F0E
:104630008093E8000E94A8208091E80080FFFCCFD2
:104640008091E30080688093E30082E0111183E0B1
:104650008093B20295C08058823008F091C080915A
:10466000B5029091B6028C3D23E09207A1F583E05C
:104670008A838AE289834FB7F894DE01139620E09B
:104680003EE051E2E32FF0E050935700E49120FF29
:1046900003C0E295EF703F5FEF708E2F90E0EA303D
:1046A000C0F0C7968D939D932F5F243159F74FBF6C
:1046B0008091E800877F8093E8006AE270E0CE0195
:1046C00001960E94BF1F8091E8008B778093E800DD
:1046D00057C0C096E7CF6091B7027091B802AE01A3
:1046E0004F5F5F4F0E94AF1EBC01892B09F448C089
:1046F0008091E800877F8093E80089819A810E94F9
:104700001920E1CF8038E1F58091E800877F809320
:10471000E8008091AE028093F10045CF811130C056
:104720009091B502923060F58091E800877F809388
:10473000E8009093AE020E94A8208091AE028823E8
:1047400011F084E005C08091E30087FDFACF81E09D
:104750008093B2020E94611D13C08091B502813026
:1047600079F481E0933009F080E08093B0021092F8
:10477000E9008091E800877F8093E8000E94A820EC
:104780008091E80083FF0AC08091E800877F8093D2
:10479000E8008091EB0080628093EB00AA96E3E052
:1047A0000C943A240895CF938091B2028823A1F00B
:1047B000C091E900CF709091EC00892F817090FD3D
:1047C00080E8C82B1092E9008091E80083FD0E94E8
:1047D0008B22CF70C093E900CF91089597FB072EED
:1047E00016F4009407D077FD09D00E94462407FCF8
:1047F00005D03EF4909581959F4F089570956195F1
:104800007F4F0895EE0FFF1F0590F491E02D09945E
:1048100069279627692778278727782708952F9271
:104820003F924F925F926F927F928F929F92AF9240
:10483000BF92CF92DF92EF92FF920F931F93CF938D
:10484000DF93CDB7DEB7CA1BDB0B0FB6F894DEBF24
:104850000FBECDBF09942A88398848885F846E844A
:104860007D848C849B84AA84B984C884DF80EE8094
:10487000FD800C811B81AA81B981CE0FD11D0FB69D
:10488000F894DEBF0FBECDBFED010895AA1BBB1B80
:1048900051E107C0AA1FBB1FA617B70710F0A61B40
:1048A000B70B881F991F5A95A9F780959095BC0161
:1048B000CD010895FB01DC0104C08D9101908019A8
:1048C00021F441505040C8F7881B990B0895FB0113
:1048D000DC0102C001900D9241505040D8F708957C
:1048E000F999FECF92BD81BDF89A992780B50895B8
:1048F000A8E1B0E042E050E00C94A424262FF999FE
:10490000FECF92BD81BDF89A019700B4021639F02E
:104910001FBA20BD0FB6F894FA9AF99A0FBE0895FF
:104920000396272F0E947F240E947E24252F0E9419
:104930007F24242F0C947F240196272F0E947F240C
:104940000C947E24DC01CB01FC01F999FECF06C05A
:10495000F2BDE1BDF89A319600B40D92415050403D
:10496000B8F70895F894FFCF1F051F0550055005AF
:10497000E005FC057F057F05070670067F067F06BC
:10498000D214E01418152C153D154A154D154D156A
:104990004D154D154D155215581564157315861581
:1049A00089158C159F153B163F1643164F16531647
:1049B00057165B16611669167116751679168516E7
:1049C00089168D1691169716B5169F164B167D16DD
:1049D000811665169B16AB16BE16C216AF22D722DD
:1049E000C023D722C0230A232B23C02382238E2354
:1049F0001C02280850011E0A1401771C9A1C7B1CFB
:104A00000C1D071D7A1C0100000000E200E900EA0D
:104A100000B500B600B700CD008301CC008A01923A
:104A20000194012102230224022502260227022AE0
:104A300002B300B4006F007000E200E900EA00B5C4
:104A400000B600B700CD008301CC008A019201942A
:104A5000012102230224022502260227022A02B390
:104A600000B4006F007000F0F1C667663794313013
:104A70003534979633F490919293954022B6EF0394
:0A4A800017033903BC02D502F5024A
:00000001FF
