:100000000C94A7010C94EE010C94EE010C94EE01FB
:100010000C94EE010C94EE010C94EE010C94EE01A4
:100020000C94EE010C94EE010C94421D0C94161EDF
:100030000C94A6140C94EE010C94EE010C94EE01B9
:100040000C94EE010C94EE010C94EE010C94EE0174
:100050000C94EE010C940C150C94EE010C94EE0132
:100060000C94EE010C94EE010C94EE010C94EE0154
:100070000C94EE010C94EE010C94EE010C94EE0144
:100080000C94EE010C94EE010C94EE010C94EE0134
:100090000C94EE010C94EE010C94EE010C94EE0124
:1000A0000C94EE010C94EE010C94EE0129001E005C
:1000B0001F0020002100220023002400250026002C
:1000C00027002D002E002A002A002B00000014001B
:1000D0001A000800150017001C0018000C00120080
:1000E00013002F003000310039000000040016001A
:1000F000070009000A000B000D000E000F0033007E
:10010000340028000000E10035001D001B0006003F
:100110001900050011001000360037000000387289
:1001200052000151E000E2000000E3002C0000005A
:100130002C0000002C000000E300E2005000510001
:100140004F0000003A003B003C003D003E003F00F5
:1001500040004100420043004400450000004C00C4
:10016000000000000000000000000000000000008F
:10017000000000000000000000000000000000007F
:10018000000000000000000000000000000000006F
:10019000000000000000000000000000000000005F
:1001A000000000000000000000000000000000004F
:1001B000000000000000000001000000000000003E
:1001C000000000000000000000000000000000002F
:1001D00000000000000000000403300000000A03DB
:1001E00044005A0036003000000010034B0042006B
:1001F0004400460061006E0073000000040309041F
:1002000009023B00020100A0FA09040000010301F9
:1002100001000921110100012240000705810308A6
:10022000000A090401000103000000092111010076
:100230000122C0000705820320000A1201100100FC
:10024000000008EDFE602201000102030105010922
:1002500002A10185020901A100050919012905155D
:100260000025019505750181029501750381010540
:1002700001093009311581257F950275088106092C
:10028000381581257F950175088106050C0A38020D
:100290001581257F950175088106C0C0050109807B
:1002A000A10185031601002603001A81002A83009C
:1002B000751095018100C0050C0901A10185041686
:1002C0000100269C021A01002A9C027510950181EA
:1002D00000C005010906A1018505050719E029E708
:1002E00015002501950875018102050819012905E8
:1002F0009505750191029501750391010507190096
:1003000029EF1500250195F075018102C00501094D
:1003100006A101050719E029E715002501950875D3
:1003200001810295017508810105081901290595CA
:1003300005750191029501750391010507190029C1
:10034000FF150026FF00950675088100C0001124E6
:100350001FBECFEFDAE0DEBFCDBF04B603FE27C07D
:100360008091330290913402A0913502B09136020F
:100370008730904BA740B04BD1F4109233021092CB
:100380003402109235021092360214BE84B7877F71
:1003900084BF0FB6F894A89580916000886180931F
:1003A0006000109260000FBEE0E0F8E3099511E0F4
:1003B000A0E0B1E0E2E1F1E402C005900D92A832C4
:1003C000B107D9F722E0A8E2B1E001C01D92A33342
:1003D000B207E1F70E946E1A0C9438200C940000CA
:1003E0000C942B06229A2A9A08950E942A060C94AD
:1003F000F20181FF03C02A980C9410022A9AFCCFC4
:1004000081E0089581E008950C9402020E943F1358
:10041000811102C00E94C3130C94F5010C94F001E9
:1004200008950C94F90108950E94E70C0E941302AC
:100430002FEF84E39CE0215080409040E1F700C022
:1004400000000C943015FF920F931F93CF93DF930E
:100450008C01FC01C081D18180915701811141C083
:1004600082818823C9F1CE010E94FB11F82E682FEA
:10047000CE010E94A711BE018F2D0E94B703EC018F
:10048000B8010E940402882309F486C0C73DFCE538
:10049000DF0709F412C108F041C0C531ECE5DE0701
:1004A00028F5C230FCE5DF0708F095C0C1158CE5E2
:1004B000D80709F46CC0C130DC4509F474C081E090
:1004C00080932D0180932E01C801DF91CF911F9160
:1004D0000F91FF900C940002CE010E94D311F82ED0
:1004E000CACFCE010E94FB11BE01C7CFC631DC4589
:1004F00031F70E949012F8019281992309F429C1E1
:100500008A7A91E009F490E09093280181111FC14B
:1005100089E20E946B120E94DC123EC0CC3D8CE549
:10052000D80709F44AC020F5C83DFCE5DF0709F407
:10053000EBC0C93DDC4519F6F80182818111E8C0A4
:1005400080912E01811101C180912B0190912C018C
:100550000E94E214883C910508F0F7C080E20E94F6
:10056000460A88E20E94E00888E20E94E90914C075
:10057000CD3DECE5DE0749F1CE3DDC4509F09FCFEE
:10058000F8018281882341F00E94C31305C0F8015D
:10059000828181110E94140280E0DF91CF911F912E
:1005A0000F91FF900895F80182818823A9F380912B
:1005B000EF0181608093EF01EFCFF8018281882302
:1005C00059F380E00E940A1BE7CFF801828188235B
:1005D00019F382E0F7CFF8018281882309F474CF00
:1005E0000E943F13811102C00E94C3130E945C133A
:1005F00090E09093250280932402FE01E350FC4595
:10060000809124028160E231F10538F4E65CFF4D0F
:100610000C94DC1F809124028260809324028091DC
:1006200024020E9460130E94E70CB6CF809124023E
:100630008460F3CF809124028860EFCF8091240200
:100640008061EBCF809124028062E7CF8091240209
:100650008064E3CF809124028068DFCF8091240200
:100660008C60DBCF809124028E7FD7CF80912402D3
:100670008D7FD3CF809124028B7FCFCF80912402B6
:10068000877FCBCF809124028F7EC7CF80912402B9
:100690008F7DC3CF809124028F7BBFCF80912402B6
:1006A0008F77BBCF80912402837FB7CF90912402B4
:1006B000892F97FB87F98058B0CFF8018281882372
:1006C00061F010922D010E94D61490932A0180931C
:1006D000290182E00E943F0A5FCF80912D018111A4
:1006E0000FC08091290190912A010E94E214883C58
:1006F000910530F486E20E94E00886E20E94E90952
:1007000082E00E94460A48CFF8018281882351F096
:1007100010922E010E94D61490932C0180932B01ED
:1007200080E2D8CF80912E0181110FC080912B01E2
:1007300090912C010E94E214883C910530F487E2EC
:100740000E94E00887E20E94E90980E2DACF85E3AF
:10075000E0CE80912801811104C089E20E947212CA
:10076000DACE85E3FBCF90E080E008950895972FDF
:1007700070E02FE0929F600D711D1124FB019BE43E
:10078000899FE00DF11D1124EE0FFF1FE455FF4F6F
:10079000859194910895FC01EE0FFF1FE852FE4FE2
:1007A000859194910895CF93DF930E94B7030E949F
:1007B0008C05EC01811520E5920708F042C08115F7
:1007C00030E4930708F014C1883E910528F5803E77
:1007D000910508F0A0C0883A910588F4853A910502
:1007E00008F08FC08130910509F495C0009709F495
:1007F00092C0049708F08FC0D0E0C0E08CC08F3B5F
:10080000910508F48CC0805C9109C03CD105A0F32F
:100810000E94CB03EC017FC08115904250F4C115BA
:1008200081E0D80708F077C0C03FD10528F3D06534
:1008300072C0C11590E3D90708F0D0C0CE019F70F7
:10084000E7CF811525E5920758F5811534E5930723
:1008500008F0FDC0811542E5940750F4C11581E50B
:10086000D80708F4C8C0DC2FCC27C16FD06A53C0AA
:10087000982F969596959E0123703327C115D345E1
:1008800008F0D6C0C1E0D0E002C0CC0FDD1F2A9531
:10089000E2F720E2929FC0011124C82BD92BC6C0D9
:1008A000C11589E5D807A8F4C11598E5D90708F05E
:1008B000D3C0C11526E5D20708F09ECF8C2F0E9429
:1008C0000706C82FD0E0DC2FCC27CC27DF71D06201
:1008D00022C0C1153AE5D30708F4C3C0CE01905633
:1008E0008115904208F088CF8D2F8F710E940706E6
:1008F00090E0982F882788279F719C012C2BE90175
:10090000E6CF853A910509F4BCC0863A910509F015
:10091000BBC0C2E8D0E4CE01DF91CF910895883A00
:10092000910509F4B4C0893A910509F4B3C08A3A33
:10093000910509F4B2C08B3A910509F4B1C08C3A23
:10094000910509F4B0C08B3B910509F4AFC08C3B15
:10095000910509F4AEC08D3A910509F4ADC0803B14
:10096000910509F4ACC08E3A910509F4ABC08F3AF9
:10097000910509F4AAC0813B910509F4A9C0823B05
:10098000910509F4A8C0833B910509F4A7C0843BF5
:10099000910509F4A6C0853B910509F4A5C0863BE5
:1009A000910509F4A4C0873B910509F4A3C0883BD5
:1009B000910509F4A2C0893B910509F4A1C08D3BC2
:1009C000910509F4A0C08E3B910509F49FC08A3BB4
:1009D000910509F49EC0C0E0D4E49DCFCE019927D3
:1009E000D3FF03C0EC01D86C96CFEC01D06C93CF51
:1009F000DF70D06A90CFCE01E4E096958795EA95B6
:100A0000E1F783702C2F26952695237090E2299F7D
:100A100090011124382B8C2F8370C1E0D0E002C0EC
:100A2000CC0FDD1F8A95E2F7C22BD32BDC6873CF86
:100A3000C1E0D0E002C0CC0FDD1F2A95E2F730E222
:100A4000939FC0011124C82BD92BDA6864CFD82F0B
:100A5000CC27C46FD06A5FCFDC2FCC27C06FD06AA1
:100A60005ACF8C2F8F700E94070634E0D695C79519
:100A70003A95E1F79C2F9F70C82FCF70C06ED92F89
:100A8000B8CFC1E8D0E447CFC3E8D0E444CFC2EE4A
:100A9000D4E441CFC9EED4E43ECFCAEED4E43BCF98
:100AA000C5EBD4E438CFC6EBD4E435CFC3EBD4E404
:100AB00032CFC4EBD4E42FCFC7EBD4E42CCFCCECB3
:100AC000D4E429CFCDECD4E426CFC3E8D5E423CFBA
:100AD000CAE8D5E420CFC2E9D5E41DCFC4E9D5E406
:100AE0001ACFC1E2D6E417CFC3E2D6E414CFC4E2F2
:100AF000D6E411CFC5E2D6E40ECFC6E2D6E40BCFE2
:100B0000C7E2D6E408CFCFE6D4E405CFC0E7D4E40B
:100B100002CFCAE2D6E4FFCE8238910549F1B0F4A3
:100B20008133910509F462C048F48932910509F4D2
:100B300056C08A32910509F460C008958533910545
:100B400009F446C08933910599F00895833E9105D3
:100B500031F138F4803E910591F0823E9105B1F07B
:100B60000895863E910521F1873E910551F1089542
:100B7000209124022370D9F080EE90E00895209116
:100B8000240220FF14C089E390E0089520912402FC
:100B900022FF0DC024FD09C083EE90E0089520914E
:100BA000240222FD31C024FF02C090E080E00895BD
:100BB0002091240223FFFBCF24FDF7CF87EE90E0A6
:100BC00008952091240223FFEECF86EE90E0089551
:100BD0002091240225FFEBCF89E290E00895209137
:100BE000240225FFE4CF85E390E0089520912402BC
:100BF00026FFDDCF8AE290E008952091240226FFAF
:100C0000D6CF81E390E0089582EE90E00895909130
:100C1000240292FF06C0282F2871283069F4877FAC
:100C2000846093FF06C0282F2871283161F4877EE5
:100C3000846194FD877E0895282F2471243089F7DC
:100C40008B7F8860EECF282F2471243191F78B7E23
:100C50008861EFCF08950895CF93DF93A2E2B1E0CA
:100C600027E231E061E070E09D91E92FE295EF70BD
:100C7000F0E041A19F70EB0102C0CC0FDD1F9A95FF
:100C8000E2F7CE018095842381A32A173B0761F701
:100C9000A3E1B1E061E070E08D91E82FE295EF70A3
:100CA000F0E041A18F709B0101C0220F8A95EAF705
:100CB000922F9095942391A382A1822B82A3D1E0BD
:100CC000A232BD0749F710923A01109239011092F1
:100CD000300110922F0110923C0110923B011092B2
:100CE00032011092310110923E0110923D0110929A
:100CF0003401109233011092400110923F01109282
:100D00003601109235011092420110924101109269
:100D100038011092370185E00E943507DF91CF91AD
:100D20000C9406024F925F927F928F929F92AF92A5
:100D3000BF92CF92DF92EF92FF920F931F93CF93C8
:100D4000DF9399E3492E91E0592E22E2E22E21E031
:100D5000F22E20E0CC24C394D12CE201899099900A
:100D60002E01DE011E921E92F70181917F01E82F74
:100D7000E295EF70F0E091A18F70B60101C0660FAF
:100D80008A95EAF7892F862B81A382A1362F309589
:100D9000832382A380EA8A95F1F783E1A82E81E07C
:100DA000B82E50E040E0E50179905E01872D8295F4
:100DB0008F7090E0EC0188A10D911C91119790E04B
:100DC000D72DDF7002C095958795DA95E2F780FD03
:100DD0003FC0C601042E02C0880F991F0A94E2F793
:100DE000082B192B11961C930E934F5F5F4F4F30BA
:100DF0005105C9F681A1382331A382A1682B62A3D2
:100E000081E04D915C914815590509F480E0282B4B
:100E1000E3E44E16E1E05E0609F09FCF45E06FE2A5
:100E200071E089E391E00E9436070E940E0281E0A2
:100E3000DF91CF911F910F91FF90EF90DF90CF90B6
:100E4000BF90AF909F908F907F905F904F9008954C
:100E500090E080E0C5CFE82FF0E0EE0FFF1FE15DEE
:100E6000FE4F80819181089508950895FF920F9318
:100E70001F93CF93DF93F82E092F162FD72FC42F50
:100E8000222349F081E0809345010E94D61490937B
:100E9000440180934301809145018823A1F0809112
:100EA0004301909144010E94E214069760F0EF2DF7
:100EB000F02FA12FBD2F90E080E0D0E08C179D0790
:100EC00044F010924501DF91CF911F910F91FF9057
:100ED0000895219131912D933D930196EFCF9093F9
:100EE0004B0180934A010895E0914A01F0914B0132
:100EF000309721F00190F081E02D099480E0089571
:100F0000E0914A01F0914B01309799F02091120144
:100F1000222359F02091240227FF07C0DC012C91E5
:100F200011962C93119725E02C930280F381E02DEC
:100F300009940895E0914A01F0914B01309739F0FE
:100F400022E0DC012C930480F581E02D09940895C2
:100F500020914801309149012817390771F0909389
:100F6000490180934801E0914A01F0914B0130978B
:100F700021F00680F781E02D099408952091460123
:100F8000309147012817390771F0909347018093FA
:100F90004601E0914A01F0914B01309721F0008425
:100FA000F185E02D0994089585B7806885BF85B7E0
:100FB000806885BF0895089508950C94DB0708950F
:100FC0000C94DF070E94D4070E94DC070C94DD0715
:100FD00081E008950E94CD140E942C060E949F1566
:100FE0000C94E0075F926F927F928F929F92AF92E4
:100FF000BF92CF92DF92EF92FF920F931F93CF9306
:10100000DF93CDB7DEB72A970FB6F894DEBF0FBED9
:10101000CDBF0E9492060E94E807882309F47AC097
:101020009DE4A92E91E0B92E10E000E0882483947D
:10103000912C502E802F0E942B077C01F501C1902E
:10104000D1905F01C816D90609F45EC08091EF0106
:1010500081FD0E94340790E080E0CE24DF2434013B
:10106000082E02C0660C771C0A94E2F7960126212E
:101070003721232B09F443C08E835F82E620F720BB
:1010800081E0EF2809F480E088870E94D61481600F
:10109000782F9A8789874E815F8168858A850E942B
:1010A000B108000F111FF801E35BFE4F80819181B1
:1010B00068267926718260820E941D180E9474073A
:1010C00090914C018917B9F10E94740780934C01EB
:1010D0002A960FB6F894DEBF0FBECDBFDF91CF9139
:1010E0001F910F91FF90EF90DF90CF90BF90AF9046
:1010F0009F908F907F906F905F900C94110201965B
:101100008F30910509F0ABCF0F5F1F4F05301105F0
:1011100009F08FCF8FEF89838A831B820E94D614B8
:101120008160782F9D838C8349815A816B818D8169
:101130000E94B108C1CF2A960FB6F894DEBF0FBE49
:10114000CDBFDF91CF911F910F91FF90EF90DF9076
:10115000CF90BF90AF909F908F907F906F905F9057
:101160000895CF93DF93CDB7DEB72B970FB6F894E2
:10117000DEBF0FBECDBF4F83588769877A878B87C5
:101180001E821D8285E0FE013796DE0111960190D8
:101190000D928A95E1F749815A816B817C818D811D
:1011A0009E812B960FB6F894DEBF0FBECDBFDF91A8
:1011B000CF910C94870FFC01808191810C943D129A
:1011C000882309F405C18238B9F40E94740781FDAF
:1011D000FFC089E30E946B120E94DC122FEF81EEA8
:1011E00094E0215080409040E1F700C0000089E386
:1011F0000E9472120C94DC128338A1F40E947407CE
:1012000080FDE6C083E50E946B120E94DC122FEF86
:1012100081EE94E0215080409040E1F700C0000052
:1012200083E5E6CF8438A1F40E94740782FDD0C024
:1012300087E40E946B120E94DC122FEF81EE94E093
:10124000215080409040E1F700C0000087E4D0CFFB
:101250009CEF980F913A18F40E946B12CBCF90E25A
:10126000980F983050F4877091E001C0990F8A95DB
:10127000EAF7892F0E949312BDCF9BE5980F933018
:1012800070F4853A31F0863A39F083E890E00C94B6
:10129000A80781E890E0FBCF82E890E0F8CF98E5DE
:1012A000980F973108F08EC0883A09F446C0893A01
:1012B00009F446C08A3A09F446C08B3A09F446C09C
:1012C0008C3A09F446C08B3B09F446C08C3B09F4C8
:1012D00046C08D3A09F446C0803B09F446C08E3AB8
:1012E00009F446C08F3A09F446C0813B09F446C070
:1012F000823B09F446C0833B09F446C0843B09F4B1
:1013000046C0853B09F446C0863B09F446C0873B8E
:1013100009F446C0883B09F446C0893B09F446C03D
:101320008D3B09F446C08E3B09F446C08A3B09F464
:1013300046C090E080E00C94BE0782EE90E0FBCFC8
:1013400089EE90E0F8CF8AEE90E0F5CF85EB90E063
:10135000F2CF86EB90E0EFCF83EB90E0ECCF84EB25
:1013600090E0E9CF87EB90E0E6CF8CEC90E0E3CF24
:101370008DEC90E0E0CF83E891E0DDCF8AE891E06A
:10138000DACF82E991E0D7CF84E991E0D4CF81E24E
:1013900092E0D1CF83E292E0CECF84E292E0CBCF55
:1013A00085E292E0C8CF86E292E0C5CF87E292E084
:1013B000C2CF8FE690E0BFCF80E790E0BCCF8AE25B
:1013C00092E0B9CF803F20F00E942B170C941218A6
:1013D0000895882309F452C0823871F40E9474077A
:1013E00081FF4CC089E30E946B120E94DC1289E3EA
:1013F0000E9472120C94DC12833859F40E94740714
:1014000080FF3CC083E50E946B120E94DC1283E5E2
:10141000EFCF843859F40E94740782FF2FC087E40D
:101420000E946B120E94DC1287E4E2CF9CEF980FBF
:10143000913AF0F290E2980F983050F4877091E072
:1014400001C0990F8A95EAF7892F0E949912D2CF8D
:101450009BE5980F933020F490E080E00C94A8076F
:1014600098E5980F973120F490E080E00C94BE0747
:10147000803F20F00E9493170C941218089588233F
:1014800021F00E9493120C94DC120895882321F01D
:101490000E9499120C94DC1208958F929F92AF9241
:1014A000BF92CF92DF92EF92FF920F931F93CF9351
:1014B000DF937C01D62FC72FFC01058102950F70A9
:1014C000128111110E94B0120E948912C82E882325
:1014D00071F01123B1F080E28D0F883090F082E03E
:1014E0000E9427130E94891291E0C82EC926DC2E83
:1014F000D2949FE0D922ED2DF0E0E45BFF4D0C94F7
:10150000DC1FC12CF4CF0C2F0F70C07F11F002959F
:10151000007F1123A9F0002359F080E28D0F88305D
:1015200010F0D11109C0802F0E9493120E94DC128A
:101530008D2F0E94E00814C0802F0E94A312F6CFC6
:101540008D2F0E94E909002359F080E28D0F883029
:1015500010F0D11133C0802F0E9499120E94DC122A
:1015600098E0D91639F0D91648F086E08D0D8F70C5
:10157000823020F40E9474070E941102CC2009F4EA
:10158000D9C10E94851280FDD5C1F70112820E9447
:101590007F120E940B11C7010E94A70C0E947F12AC
:1015A000DF91CF911F910F91FF90EF90DF90CF903F
:1015B000BF90AF909F908F900C942C11802F0E9421
:1015C000A912CCCFFC2FFF70BF2EC07FC03219F004
:1015D000B29480EFB822DD2369F0D13049F11123B4
:1015E00091F1002351F1F701858180FFA1CF8F7028
:1015F000858323C0112381F0011106C00E94C3120C
:101600008B290E943F0AACCF0130C1F70E94C31260
:101610008B290E94C912A4CF011106C00E94D212C8
:101620008B2D0E94460A9CCF013009F499CFF6CF4A
:10163000112329F0063008F093CF8B2DE2CF05302F
:1016400008F08ECFEDCF002359F38D2F0E94E909CA
:1016500087CF8C2F86958695837069F0813009F04D
:101660007FCF8D2F9C2F9370111102C090E080E0EE
:101670000E94BE0775CF8D2F9C2F9370111102C051
:1016800090E080E00E94A8076BCF112309F1D53FBD
:1016900099F0D63FB9F0D43F49F480911E02909161
:1016A0001F02816090931F0280931E028D2F0E9463
:1016B0002B170E94121854CF80911E0290911F0286
:1016C0008260F0CF80911E0290911F028460EACF69
:1016D000D53F89F0D63FA9F0D43F49F480911E024E
:1016E00090911F028E7F90931F0280931E028D2F78
:1016F0000E949317DECF80911E0290911F028D7F72
:10170000F2CF80911E0290911F028B7FECCF8C2F25
:10171000837009F047C0111123CF2D2F22952695F4
:101720002770220F220F6D2F6F70862E912CB12CF7
:10173000A12C022E04C0880C991CAA1CBB1C0A9464
:10174000D2F760E070E0CB01D4FF0FC06FE070E033
:1017500080E090E004C0660F771F881F991F2A95CC
:10176000D2F76095709580959095C695C695C37093
:10177000C23051F080F4682979298A299B29C13027
:1017800071F00E94BD10ECCE682979298A299B2925
:101790000E94CF10E5CE0E94BD10C501B4010E9489
:1017A000AB10DECE8695112311F08C2F817088232B
:1017B00009F4D6CE2D2F229526952770220F220FC1
:1017C0006D2F6F70862E912CB12CA12C022E04C08F
:1017D000880C991CAA1CBB1C0A94D2F760E070E02C
:1017E000CB01D4FF0FC06FE070E080E090E004C058
:1017F000660F771F881F991F2A95D2F760957095FD
:1018000080959095C695C695C370C23051F080F40E
:10181000682979298A299B29C13071F00E94821197
:101820009FCE682979298A299B290E94941198CEF4
:101830000E948211C501B4010E94701191CEE0E2B4
:10184000ED0FE53108F04DC0F0E0E45AFF4D0C9487
:10185000DC1FDF708C2F8F71112321F00E940B1180
:101860008D2FCFCE0E942C118D2FDBCE112341F076
:10187000053008F075CE8C2F8F710E944F1170CEFD
:10188000063008F06DCEF7CF8C2F8F71112339F011
:101890000E940B1165CE8C2F8F711123C9F30E940A
:1018A0002C115ECE112329F08C2F8F710E94F6101F
:1018B00057CE0E94F11054CE112349F0CF718C2FD6
:1018C0000E940B1163E08C2F0E94121349CE81E01D
:1018D0000E942713023008F443CE82E00E942713AF
:1018E0003FCE112329F0011123CE8C2F8F71D0CF41
:1018F000002369F0D93309F0A8CEFFEF27EE83E08B
:10190000F15020408040E1F700C000009ECE8C2FB7
:101910008F71C5CF4C2F4F706D2FC7010E94B3033D
:101920000E9421101DCE4C2F4F706D2FC7010E94B9
:10193000B60316CEDF91CF911F910F91FF90EF90DC
:10194000DF90CF90BF90AF909F908F9008950F93AE
:101950001F93CF93DF93EC018B819C81892B29F01E
:101960008881998189238F3F29F4DF91CF911F913D
:101970000F910895CE010E9423028823B1F368815C
:1019800079818A810E9447128C010E94A6110E94CF
:10199000A810B801CE01DF91CF911F910F910C9447
:1019A0004D0A0E94B0120E94C0120E94DC120E94D6
:1019B000A7180E94121890E080E00E94A80790E00B
:1019C00080E00C94BE070E9479120C94D10C0E9406
:1019D000A0120C94E30CE92FE295EF70E250EE3088
:1019E00070F4F0E0EF58FF4D0C94DC1F803F19F0CD
:1019F00020F4803E20F481E00895843FE1F380E00C
:101A00000895803EC0F3813FD1F7F5CF93FB88273F
:101A100080F908950E943D120C94EB0CCF93DF9354
:101A200000D000D00F92CDB7DEB70F900F900F907F
:101A30000F900F90DF91CF910895CF93DF9300D057
:101A400000D000D0CDB7DEB726960FB6F894DEBF33
:101A50000FBECDBFDF91CF9108951F93CF93DF933A
:101A6000C091580116E0809159018C1304C0DF9198
:101A7000CF911F910895D0E01C9FF0011D9FF00DA4
:101A80001124E65AFE4F4081518162817381848125
:101A900095810E941D0D2196C770E5CF40918A0166
:101AA00050918B0160918C0170918D0180918E011C
:101AB00090918F010C941D0D1F93CF93DF93809114
:101AC0008F01807FC1F480918C018823A1F08091E7
:101AD0005801C091590160918A0170918B01409128
:101AE0008D0150918E01D62FD723DA01A095B095A4
:101AF00016E0C81304C0DF91CF911F91089590E0C4
:101B00004115510511F0DF3F31F401968770F1CF97
:101B10002A0F3B1F17C0189FF001199FF00D1124C9
:101B2000E65AFE4F21812713F0CF20812613EDCFF7
:101B300022812111EACF238134812417350740F314
:101B4000241B350B283C310500F720918F012F70A5
:101B5000206120938F0126E0289FF001299FF00D3E
:101B60001124E15AFE4F80818F70806180838AE862
:101B700091E00E94A70CDF91CF911F910C942D0D45
:101B8000BF92CF92DF92EF92FF920F931F93CF936A
:101B9000DF93CDB7DEB761970FB6F894DEBF0FBE07
:101BA000CDBF8C0185E0F801DE011D9601900D92FC
:101BB0008A95E1F7D8014C9111965C911197129694
:101BC000EC90129780918D0190918E01009709F40D
:101BD0007FC120918A0130918B01622F63236F3F77
:101BE00009F476C11396CD90DC90B0908C01BB20A7
:101BF00009F411C1C816D906D0F1F601E81BF90B9A
:101C0000CF01FF24F394883C910508F0F12C8091DA
:101C10008F01982F907FFF2009F4B8C091117FC0E9
:101C2000FE2C351329C0241327C0E11025C08F7066
:101C3000806180938F010E944E0D8AE891E00E949E
:101C4000A70C80918F01D80115968C938F2D6196EA
:101C50000FB6F894DEBF0FBECDBFDF91CF911F91BD
:101C60000F91FF90EF90DF90CF90BF9008958095F7
:101C700090958C0D9D1DC5CFCD2829F0852F8423EF
:101C80008F3F09F041C180E0B82FB170DB2E80FF9B
:101C90003CC0809158012091590136E0821315C053
:101CA0004D875E878D859E850E943D12292F229546
:101CB0002F702230F0F0243018F59F70F1F0F80109
:101CC0009581907FD1F4D12C1EC090E0389FF00117
:101CD000399FF00D1124E65AFE4F6181651306C04D
:101CE0006081641303C06281E6120FC001968770A1
:101CF000D5CF9F7011F0882331F3805E883018F3C0
:101D0000C8010E94A70CFD2CA1CFEE2009F49ECFA4
:101D100080918F01816080938F01F12C97CF3513D3
:101D200006C0241304C0D801EE2009F49AC04D87E0
:101D30005E878D859E850E940A0D882319F1EE200D
:101D400009F180918F01803270F020918A013091E9
:101D50008B0138872F831986DB86CA868C87CE0154
:101D600007960E94A70C86E0F801AAE8B1E001906E
:101D70000D928A95E1F70E945C0D0E944E0DFF24A2
:101D8000F39464CFC8010E94A70CF9CF911113C03E
:101D90007C2DD98AC88A6E2D89890E940E0D8AE809
:101DA00091E00E94A70C86E0EAE8F1E0DF011D92D5
:101DB0008A95E9F763C0351312C0241310C0E110EF
:101DC0000EC0F8018583C8010E94A70CEAE8F1E083
:101DD00086E0DF011D928A95E9F7FB2C37CF4D870E
:101DE0005E878D859E850E940A0D882359F2EE201C
:101DF00049F280918F01803208F4B5CF20918A0199
:101E000030918B013A8329831B82DD82CC828E83C1
:101E1000CE010196A6CFC816D90698F1F601E81BA7
:101E2000F90BCF01F12C883C910508F049C0FE2C3C
:101E3000EE2009F4A7CF351332C0241330C08091AF
:101E40008F0180FD23C0982F907F01F1D801159656
:101E50008C931597903F39F0982F907F905F8F70FB
:101E6000892B15968C93C8010E94A70C86E0F80177
:101E7000AAE8B1E001900D928A95E1F70E944E0D1B
:101E8000E5CE809590958C0D9D1DCCCF86E0F80118
:101E9000AAE8B1E001900D928A95E1F7D7CE4D877F
:101EA0005E878D859E850E940A0D81115CCF809191
:101EB0008F01816080938F01C8010E94A70CC6CE5C
:101EC0007C2DD98AC88A6E2D89890E940E0D6BCF10
:101ED000EE2009F457CF4D875E878D859E850E9441
:101EE0000A0DF82E882309F44DCF86E0F801AAE800
:101EF000B1E001900D928A95E1F78AE891E00E94A5
:101F0000DB080E945C0DBACF81E08E25BDCE1F9309
:101F1000CF93DF93CDB7DEB72C970FB6F894DEBF23
:101F20000FBECDBF4F83588769877A878B879C8781
:101F3000CE0107960E94C00D882369F08A859B8593
:101F4000892B39F04F815885842F85238F3F09F0E5
:101F500071C016E05FC086E0FE013796DE01119683
:101F600001900D928A95E1F78A859B85892B89F3EB
:101F700088859F8189238F3F61F32091590130E04B
:101F8000C901019687709927409158014817190691
:101F900071F40E94E70C109259011092580186E0EA
:101FA000EAE8F1E0DF011D928A95E9F7D2CF96E0E9
:101FB000929FD001939FB00D1124A65ABE4FFE01EF
:101FC000319601900D929A95E1F7809359010E9404
:101FD0002D0DBFCF819FC0011124865A9E4F0E94B4
:101FE000C00D8823E9F0E09158011E9FF0011124F3
:101FF000E65AFE4F408151816281738184819581CF
:102000000E941D0D8091580190E0019687709927DC
:102010008093580180915801909159018913DACF2A
:102020002C960FB6F894DEBF0FBECDBFDF91CF91D7
:102030001F91089569857A858B859C850E941D0D69
:1020400088CFEF92FF920F931F93CF93DF938C0172
:10205000892B81F0F12CEE24E394E8012196F8011C
:102060008491843770F4843008F05FC08130B1F01F
:102070008230A1F1DF91CF911F910F91FF90EF90EE
:102080000895853709F44CC008F43DC09CE7980FCB
:10209000903780F78F770E94E90949C00E5F1F4F84
:1020A000FE01849190E2980F983060F48770FE2DC5
:1020B00001C0FF0F8A95EAF78F2F0E94B3120E948A
:1020C000DC1202C00E94E0088F2D815030F2EFE94F
:1020D000FFE03197F1F700C00000F7CF0E5F1F4F10
:1020E000FE01849190E2980F983050F48770FE2D95
:1020F00001C0FF0F8A95EAF78F2F0E94B912DFCF38
:102100000E94E909E1CF0E5F1F4FFE01C491C1504B
:10211000D8F28FE99FE00197F1F700C00000F7CFF8
:102120000E5F1F4FFE01F490CFCF0E94E0088E019A
:10213000CBCF08950C9499100E949A106093C60119
:102140007093C7018093C8019093C9010C94D10C7E
:1021500008950C949C100F931F930091C601109149
:10216000C7012091C8013091C901602B712B822BCE
:10217000932B1F910F910C949C100F931F93009120
:10218000C6011091C7012091C8013091C901602397
:102190007123822393231F910F910C949C100F9312
:1021A0001F930091C6011091C7012091C801309181
:1021B000C90160277127822793271F910F910C94E3
:1021C0009C100C9499100C94E1100E94E310609301
:1021D000C2017093C3018093C4019093C5010C9414
:1021E000D10C60E070E0CB010C94E5100F931F93CD
:1021F00041E050E060E070E08A019B0104C0000F04
:10220000111F221F331F8A95D2F7C901B8011F91F0
:102210000F910C94E5100F931F9341E050E060E0A4
:1022200070E004C0440F551F661F771F8A95D2F7D0
:102230008091C2019091C301A091C401B091C501E8
:102240008A019B01082B192B2A2B3B2BC901B801B2
:102250001F910F910C94E5100F931F9341E050E0F4
:1022600060E070E004C0440F551F661F771F8A9519
:10227000D2F7CB01BA016095709580959095009149
:10228000C2011091C3012091C4013091C5016023A6
:102290007123822393231F910F910C94E5100F93C8
:1022A0001F9341E050E060E070E004C0440F551F10
:1022B000661F771F8A95D2F78091C2019091C30162
:1022C000A091C401B091C5018A019B01082719277B
:1022D0002A273B27C901B8011F910F910C94E510E3
:1022E0000F931F930091C2011091C3012091C4016B
:1022F0003091C501602B712B822B932B1F910F9175
:102300000C94E5100F931F930091C2011091C3012B
:102310002091C4013091C50160237123822393234E
:102320001F910F910C94E5100F931F930091C20120
:102330001091C3012091C4013091C501602771271C
:10234000822793271F910F910C94E51008952FE099
:10235000929F800D1124982F977041E001C0440F87
:102360009A95EAF786958695869595E0899FF0017E
:102370001124E057FE4F90E080E070E05191DF01C2
:1023800011979B01082E02C0369527950A94E2F713
:10239000217021952527242325272C93019685300C
:1023A000910561F708952FE0929F800D1124982FD9
:1023B000977086958695869525E0829FF001112479
:1023C000E057FE4F50E040E080E0219130E0092EE0
:1023D00002C0369527950A94E2F721703327042E20
:1023E00001C0220F0A94EAF7822B4F5F5F4F4530FE
:1023F000510559F70895BF92CF92DF92EF92FF9265
:102400000F931F93CF93DF938C01C090C201D090A4
:10241000C301E090C401F090C5018091C601909184
:10242000C701A091C801B091C901C82AD92AEA2AD6
:10243000FB2ACFE1D0E0BC2ED701C6010C2E04C090
:10244000B695A795979587950A94D2F780FD0EC00B
:10245000219788F7B12C8B2DDF91CF911F910F9190
:10246000FF90EF90DF90CF90BF900895B8018C2F30
:102470000E94D303019761F3EECFCF93DF93EC017A
:102480000E94FB11BE01DF91CF910C94D3031F93E7
:10249000CF93DF93EB0190915701992331F0CB015A
:1024A000DF91CF911F910C943D12882379F0CB01DD
:1024B0000E94FB11182F682FCE010E94A711BE01A8
:1024C000812FDF91CF911F910C94D303CB010E94F8
:1024D000D311182FF4CF682F809100019091010142
:1024E0000C942914682F80910001909101010C94A3
:1024F000341480910001909101010C943F1480915B
:10250000CA0185958595859508958091CA01877042
:1025100008959091CA01977081E009F480E00895D0
:102520008091EE0108959091EE01892B8093EE0148
:10253000089580959091EE0198239093EE0108956F
:102540001092EE0108959091ED01892B8093ED0199
:10255000089580959091ED0198239093ED01089551
:102560001092ED0108959091EC01892B8093EC017C
:10257000089580959091EC0198239093EC01089533
:102580001092EC0108958091CB01089508950C9468
:10259000C6129091CB01981721F08093CB010C9437
:1025A000C71208958091CB01882329F01092CB01A6
:1025B00080E00C94C7120895E0910001F0910101B0
:1025C0008091EE018083E0910001F0910101808112
:1025D0009091ED01892B8083E0910001F091010140
:1025E00080819091EC01892B80839091CB0199237C
:1025F00081F0E0910001F09101018081892B8083BD
:1026000080910001909101010E94C51381110E94E7
:10261000D21280910001909101010C9480070895DD
:102620000C940F1398E0899F90011124622B609302
:10263000CA010E940B118091CA01859585958595E7
:102640000C9410131092CA0180E00C941013909116
:10265000CA01809589238093CA01282F277071F4BD
:10266000282F082E000C330B9217130639F085958E
:10267000859585950E942C110C942213089590E065
:1026800080E00E94FE1F21E08D3E9E4F09F020E079
:10269000822F089582E090E00C94F61F682F82E06C
:1026A00090E00C94042083E090E00C94F61F682FD7
:1026B00083E090E00C94042084E090E00C94F61FFA
:1026C000682F84E090E00C940420AB01BC018FE003
:1026D00090E00C941620AB01BC0183E190E00C94D7
:1026E000162060E070E0CB010C946B1360E070E0AA
:1026F000CB010E9465130C9471136DEE7EEF90E098
:1027000080E00E94222060E082E090E00E940420AD
:1027100060E083E090E00E9404201092C6011092D5
:10272000C7011092C8011092C90160E084E090E0F6
:102730000E94042060E085E090E00E94042060E0B8
:1027400086E090E00E9404206FEF87E090E00E9416
:10275000042040E050E0BA0188E090E00E9416209A
:1027600060E08DE090E00E94042040E050E0BA017B
:1027700088E190E00E94162060E087E190E00E94EE
:1027800004200C9476130C947D13FC0132968091F6
:102790001201882321F0809124029EE187FF96E0B8
:1027A00080E0915008F4089521912223D1F38F5FA6
:1027B000F8CF9C01FC0132969FEF80E041914617D3
:1027C00051F09F3F19F4411101C0982F8F5F86305F
:1027D000A9F79F3F09F40895290F311D97FD3A95F8
:1027E000F90162830895FC0132960896219126131F
:1027F00003C0DF0111971C92E817F907B9F7089594
:10280000E62FE695E695E695EE3168F4E80FF92FA8
:10281000F11D677021E030E001C0220F6A95EAF7F0
:102820008281822B82830895E62FE695E695E695D0
:10283000EE3170F4E80FF92FF11D677021E030E000
:1028400001C0220F6A95EAF720958281282322830E
:10285000089520911201222329F02091240227FDBE
:102860000C9400140C94D91320911201222329F006
:102870002091240227FD0C9414140C94F313FC01F2
:10288000329680911201882351F08091240287FFB3
:1028900006C08EE1DF011D928A95E9F7089586E072
:1028A000F9CF089508950C9452140E945314809106
:1028B0002A02843049F11092F00188E190E020E48E
:1028C0000FB6F894A895809360000FBE2093600027
:1028D00080E00E9411020E94531483B7817F8460BC
:1028E00083BF83B7816083BF7894889583B78E7FD9
:1028F00083BF0FB6F894A89580916000886180939B
:102900006000109260000FBE08950895CF930E945A
:1029100051140E9492060E948514C0E08C2F0E94E0
:102920002B07892B31F4CF5FC530C1F780E0CF9101
:10293000089581E0FCCF08950C949B140E94E70C4D
:102940000E9474070E9411020C949C141F921FB6DF
:102950001F9211248F939F93AF93BF938091F001A7
:10296000811113C08091200290912102A091220236
:10297000B09123024196A11DB11D80932002909336
:102980002102A0932202B0932302BF91AF919F91A5
:102990008F911F901FBE1F90189582E084BD93E019
:1029A00095BD9AEF97BD80936E0008952FB7F89468
:1029B0008091200290912102A0912202B0912302E5
:1029C0002FBF0895CF92DF92EF92FF920F931F9344
:1029D0002FB7F89440912002509121026091220279
:1029E000709123022FBF6A017B01EE24FF248C012A
:1029F00030E020E0C016D106E206F30650F0481B96
:102A0000590BCA011F910F91FF90EF90DF90CF906B
:102A1000089541505109F3CF78941F921FB61F9229
:102A200011248F939F93AF93BF9380912002909135
:102A30002102A0912202B09123020196A11DB11D95
:102A40008093200290932102A0932202B09323024C
:102A5000BF91AF919F918F911F901FBE1F901895AE
:102A600081E08093E00080E28093D8001092C9005A
:102A70008FE19EE40197F1F700C0000087E090EB42
:102A8000DC018093330290933402A0933502B0931B
:102A9000360288E19CE00FB6F894A8958093600018
:102AA0000FBE90936000FFCFAF92BF92CF92DF92A4
:102AB000EF92FF920F931F93CF93C0E0CC24C39467
:102AC000D12CE82EF12C8C2F0E942B075C0110E0FA
:102AD00000E0C601002E02C0880F991F0A94E2F799
:102AE0008A219B21892B99F40F5F1F4F0F3011050D
:102AF00081F7CF5FC53039F780E0CF911F910F91FB
:102B0000FF90EF90DF90CF90BF90AF900895602F2F
:102B10007C2F80E00E94B703E816F90629F781E0D0
:102B2000ECCFCF93C82F8CE20E945415882321F05C
:102B30008C2FCF910C94541580E0CF910895CF93B2
:102B40000E943F13811102C00E94C313C5E608C052
:102B50000E9492068FE39CE90197F1F700C0000004
:102B6000C150B1F789E20E9491158111EFC08AE24C
:102B70000E94911581110E94C31385E00E94911556
:102B800081110E9430150E944A138093EF0187E063
:102B90000E949115882371F08BE10E949115882382
:102BA00009F4B1C09091EF01892F8D7F91FF826070
:102BB0008093EF018091EF010E944E130E945C13FD
:102BC00090E0909325028093240280EE0E9491155C
:102BD000882341F090912402892F8E7F90FF81609D
:102BE0008093240289E30E949115882341F09091FB
:102BF0002402892F8D7F91FF82608093240282EED0
:102C00000E949115882341F090912402892F8B7F97
:102C100092FF84608093240286EE0E94911588239F
:102C200041F090912402892F877F93FF88608093E1
:102C3000240283EE0E949115882341F09091240292
:102C4000892F8F7E94FF80618093240285E30E9408
:102C50009115882341F090912402892F8F7D95FF53
:102C600080628093240281E30E949115882341F0C1
:102C700090912402892F8F7B96FF80648093240299
:102C800081E10E949115882341F090912402892FBF
:102C900097FB87F9805880932402809124020E9438
:102CA000601387E20E949115C82F8EE10E94911552
:102CB0008111C2608FE10E9491158111C46080E290
:102CC0000E9491158111C86081E20E9491158111C5
:102CD000C06182E20E9491158111C06283E20E946C
:102CE00091158111C06484E20E949115882341F1FD
:102CF000C0688C2F0E9457136C2F70E090E080E02A
:102D0000CF910C94A9108EE00E949115882339F080
:102D10009091EF01892F8B7F92FF846049CF80E1F2
:102D20000E9491159091EF01882329F0892F877FC8
:102D300093FF88603DCF892F8E7F90FF816038CFD1
:102D4000C111D7CF0E945313682FD7CFCF910895C9
:102D50008091F40180FF12C06091050185E0689FB9
:102D6000B001112475956795759567956038710563
:102D7000A8F561157105A1F1862F089581FF09C09D
:102D80006091050185E0689FB001112475956795F4
:102D9000EDCF6091050182FD0AC08091F301882387
:102DA000D1F09091040160910501891728F085E028
:102DB000689FB0011124DACF869FB001112485E00D
:102DC000869F9001879F300D1124692F70E0C90103
:102DD0000E94C81FCBCF65E070E0CECF8FE708958B
:102DE00081E008958091F40180FF0CC0609103019F
:102DF00070E075956795759567956115710549F151
:102E0000862F089581FF06C06091030170E07595DB
:102E10006795F3CF6091030182FD0BC09091F301A0
:102E20009923A1F06091020180910301961738F077
:102E3000682F70E06038710500F38FE70895899F6F
:102E4000C001112470E00E94C81FF4CF61E070E05F
:102E5000D7CF81E00895803F31F40E94A816819574
:102E60008093F8010895813F19F40E94A816F8CFC5
:102E7000823F31F40E94A81681958093F70108954E
:102E8000833F19F40E94A816F8CF893F29F40E94C5
:102E9000F2168093F90108958A3F21F40E94F216F8
:102EA0008195F7CF8B3F31F40E94F2168195809384
:102EB000FA0108958C3F19F40E94F216F8CF843F6E
:102EC00031F48091F60181608093F6010895853F89
:102ED00021F48091F6018260F7CF863F21F4809142
:102EE000F6018460F1CF873F21F48091F60188607C
:102EF000EBCF883F21F48091F6018061E5CF8D3FD3
:102F000031F48091F40181608093F40108958E3F43
:102F100021F48091F4018260F7CF8F3FB9F780915F
:102F2000F4018460F1CF9091F701803F41F48091EA
:102F3000F80187FD1092F801992371F00895813FFF
:102F400029F48091F8011816ACF3F6CF823F81F492
:102F500097FFF2CF1092F7018091F8019091F9015B
:102F6000892B9091FA01892B49F71092F30108956A
:102F7000833F19F4191674F3DFCF893F39F4809138
:102F8000F9011816CCF61092F901D6CF8A3F29F430
:102F90008091F90187FFD0CFF6CF8B3F39F4809134
:102FA000FA0187FFC9CF1092FA01C6CF8C3F29F4EE
:102FB0008091FA011816BCF3BFCF843F31F48091A1
:102FC000F6018E7F8093F601B7CF853F21F4809183
:102FD000F6018D7FF7CF863F21F48091F6018B7F3C
:102FE000F1CF873F21F48091F601877FEBCF883FB7
:102FF00021F48091F6018F7EE5CF8D3F31F48091F1
:10300000F4018E7F8093F40197CF8E3F21F480915D
:10301000F4018D7FF7CF8F3F09F08ECF8091F401BF
:103020008B7FF0CF85EF91E00E949A070E94D61423
:103030009093F2018093F10108951F93CF93DF9352
:103040008091F1019091F2010E94E214AC01909103
:10305000F3012091060130E0911106C02091070193
:103060008AE0289F900111244217530778F020919D
:10307000F701C091F801D091F9011091FA012111E5
:1030800009C08C2F8D2B812B09F05DC0DF91CF9172
:103090001F9108959F3F19F09F5F9093F3011216BF
:1030A00024F40E94A8168093F7018091F70187FF0E
:1030B00005C00E94A81681958093F7011C1624F480
:1030C0000E94A8168093F8018091F80187FF05C03F
:1030D0000E94A81681958093F8014091F70144233E
:1030E00079F03091F801332359F025EB4203A00128
:1030F00011245093F7013203900111243093F80109
:103100001D1624F40E94F2168093F9018091F901B2
:1031100087FF05C00E94F21681958093F901111670
:1031200024F40E94F2168093FA018091FA0187FF3D
:1031300005C00E94F21681958093FA01DF91CF912C
:103140001F910C9412189F3F09F0A6CFB7CF86E0CD
:10315000E5EFF1E0DF011D928A95E9F71092F301A6
:103160001092F401089580911B0208950F931F930C
:10317000CF93DF9300D00F92CDB7DEB78C010E94C2
:103180001A1B823011F0843021F584E089831B837F
:103190000A8382E08093E9008FEF9091E8008150EC
:1031A00095FD06C095ED9A95F1F700008111F5CFD8
:1031B0008091E80085FF0DC050E040E063E070E0E2
:1031C000CE0101960E94371B8091E8008E77809394
:1031D000E8000F900F900F90DF91CF911F910F910A
:1031E0000895CF93DF9300D00F92CDB7DEB7209133
:1031F0002A02243031F523E02983805891099B83EA
:103200008A8382E08093E9008FEF9091E8008150FB
:1032100095FD06C095ED9A95F1F700008111F5CF67
:103220008091E80085FF0DC050E040E063E070E071
:10323000CE0101960E94371B8091E8008E77809323
:10324000E8000F900F900F90DF91CF910895CF93EA
:10325000DF93EC010E941A1B823011F08430F9F4E4
:1032600082E08093E9008FEF9091E800815095FD16
:1032700006C095ED9A95F1F700008111F5CF809188
:10328000E80085FF0CC050E040E066E070E0CE0151
:103290000E94371B8091E8008E778093E800DF91D1
:1032A000CF910895CF93DF93EC010E941A1B8230D7
:1032B00011F08430B9F5809112018823B1F1809129
:1032C000240287FF32C060E282E08093E9008FEF42
:1032D0009091E800815095FD06C095ED9A95F1F723
:1032E00000008111F5CF8091E80085FF1BC080911F
:1032F000120170E050E040E0811104C050E040E075
:1033000068E070E0CE010E94371B8091E8008E7764
:103310008093E80080E2FE01ABEFB1E001900D92F6
:103320008A95E1F7DF91CF91089568E081E0CDCFF4
:1033300080912902811109C00E94C71C0E94241D8E
:103340008091E20084608093E20008951092290247
:103350000895089508950C949E1442E061EC81E074
:103360000E94431C42E261EC82E00C94431C809179
:103370002C02833009F45FC030F48130C1F1823017
:1033800009F49BC008958A3009F487C08B3009F492
:103390006DC0893009F04EC080912B02813209F056
:1033A00049C080912F0290913002029708F042C0EC
:1033B0008091E800877F8093E8008091E80082FF99
:1033C00035C09091F3008091F200029729F480912A
:1033D000F1008B7F813021F48091F10080931B02FA
:1033E0008091E8008B778093E8000C94771C8091A3
:1033F0002B02813AF9F48091E800877F8093E800FE
:1034000080912F0290913002892B61F460E28BEF62
:1034100091E070E00E94861B8091E8008B7780939A
:10342000E800089560E090E080E0F3CF80912A0208
:103430008111C3CF089580912B02813AD9F78091F1
:103440002F0290913002892BA9F78091E800877FA5
:103450008093E8008091E80080FFFCCF809112010A
:103460008093F1008091E8008E77BDCF80912B0290
:10347000813201F780912F0290913002892BD1F691
:103480008091E800877F8093E8000E94771C8091FC
:103490002D02809312010C94E70C80912B02813253
:1034A00049F68091E800877F8093E8000E94771CAE
:1034B00080912E0280931C02089580912B02813A04
:1034C00009F0B8CF8091E800877F8093E800809171
:1034D000E80080FFFCCF80911C02C2CF84B7877FB9
:1034E00084BF0FB6F894A89580916000886180939E
:1034F0006000109260000FBE80E88093610010921F
:1035000061000E94E2070E94C71C0E94241D809156
:10351000E20084608093E20078940E94AD1F0E94D4
:10352000EA0788E091E00E946F0780912A028530C7
:1035300019F00E94F207F9CF0E94551480912802D9
:10354000882399F30E948614882379F30E94211B13
:10355000ECCF0C94AB1A292F33272330310519F106
:1035600068F42130310509F44AC02230310509F4EC
:103570004BC090E080E030E020E028C021323105EF
:1035800079F122323105A9F780E490E02DE033E0B3
:1035900061157105D9F080EC90E02DE432E06130E6
:1035A0007105A1F0E6CF99278130910599F0009738
:1035B00041F08230910589F00397D9F6E8EDF1E00A
:1035C00002C0ECEFF1E0849190E09F01FA013183B9
:1035D00020830895EAEEF1E0F6CFEEEDF1E0F3CFCF
:1035E00089E090E022E132E06115710579F389E02C
:1035F00090E02BE232E06130710541F3BACF82E115
:1036000090E02BE332E0E2CF8BE390E020E032E089
:10361000DDCF0895CF93C82F0E94091BC0931D02D0
:10362000CF91089580912A02843011F482E00895A8
:1036300081E0089580911D02811102C00C94121B3B
:10364000089580E189BD82E189BD09B400FEFDCF06
:103650008091D8008F7D8093D8008091E0008260B7
:103660008093E0008091E00081FDFCCF0895AF924F
:10367000BF92CF92DF92FF920F931F93CF93DF936E
:103680006C01EB018A010E94961CF82E811123C067
:103690000115110539F0F80180819181C81BD90B02
:1036A000C80ED91EB12CA12C2097A9F08091E8005A
:1036B00085FD22C08091E8008E778093E800011597
:1036C0001105A1F0F80180819181A80EB91EB18287
:1036D000A08285E0F82E8F2DDF91CF911F910F9161
:1036E000FF90DF90CF90BF90AF9008950E94961CFE
:1036F0008823D1F2F82EEFCFF60181916F018093EC
:10370000F1002197FFEFAF1ABF0ACECFFC018091E5
:1037100031029091320286179707A0F0611571056A
:1037200029F49091E8009E779093E80090E061156D
:10373000710551F4911108C08091E80082FF34C0F6
:1037400080E00895BC01F2CF80912A028823C1F164
:103750008530C1F18091E80083FD30C08091E800A0
:1037600082FDEACF8091E80080FFE1CF8091F300F5
:103770002091F200382F6115710519F028303105BC
:1037800058F091E02830310509F090E02091E800F0
:103790002E772093E800CBCF81918093F100615088
:1037A00071092F5F3F4FE7CF80912A02882341F0B4
:1037B000853041F08091E80083FFBECF81E008951D
:1037C00082E0089583E00895FC0180913102909198
:1037D000320286179707A0F06115710529F48091D0
:1037E000E8008E778093E80090E06115710551F450
:1037F000911108C08091E80082FF35C080E00895F3
:10380000BC01F2CF80912A028823C9F18530C9F129
:103810008091E80083FD31C08091E80082FDEACF0D
:103820008091E80080FFE1CF8091F3002091F200C9
:10383000382F6115710519F02830310558F091E0E5
:103840002830310509F090E08091E8008E77809370
:10385000E800CBCF84918093F100319661507109DB
:103860002F5F3F4FE6CF80912A02882341F08530B9
:1038700041F08091E80083FFBDCF81E0089582E0B0
:10388000089583E00895982F973028F08F708093E3
:10389000E90081E008959093E900242F762F50E00D
:1038A000981731F07091EC002091ED005091F000EC
:1038B00021FD02C09F5FE8CF3091EB003E7F309347
:1038C000EB003091ED003D7F3093ED003091EB0047
:1038D00031603093EB007093EC002093ED00509337
:1038E000F0002091EE0027FDE5CF80E00895809163
:1038F0002B0287FF13C08091E80082FF06C08091F1
:10390000E8008B778093E80004C080912A0281113F
:10391000F2CF089580912A028823D9F38091E8009C
:1039200080FFF8CF8091E8008E77ECCF2091E40003
:103930003091E50095E6A9012091EC00822F81707D
:1039400020FF06C08091E80080FF06C080E0089557
:103950002091E80022FD1AC080912A02882389F074
:10396000853089F08091EB0085FD0FC02091E40047
:103970003091E50042175307F9F29150E1F684E0E7
:10398000089582E0089583E0089581E008950E94FB
:10399000351D0E943D1DE0EEF0E080818160808356
:1039A000E8EDF0E080818F77808319BCA7EDB0E06F
:1039B0008C918E7F8C9380818F7E808310922902E0
:1039C00008950F931F93CF93DF930E94351D0E949C
:1039D0003D1DC8EDD0E088818F778883888180681D
:1039E000888388818F7D888319BC10922A02109267
:1039F0002602109228021092270200EE10E0F80131
:103A000080818B7F808388818160888342E060E051
:103A100080E00E94431CE1EEF0E080818E7F808395
:103A2000E2EEF0E080818160808380818860808325
:103A3000F80180818E7F8083888180618883DF9117
:103A4000CF911F910F910895E8EDF0E080818F7E76
:103A50008083E7EDF0E080818160808384E082BF35
:103A600081E0809329020C94E11CE8EDF0E0808174
:103A70008E7F80831092E20008951092DA001092F7
:103A8000E10008951F920F920FB60F9211242F9309
:103A90003F934F935F936F937F938F939F93AF93D6
:103AA000BF93EF93FF938091E10082FF0BC0809161
:103AB000E20082FF07C08091E1008B7F8093E100EC
:103AC0000E94AC1F8091DA0080FF19C08091D8005D
:103AD00080FF15C08091DA008E7F8093DA0080919C
:103AE000D90080FF96C080E189BD82E189BD09B41B
:103AF00000FEFDCF81E080932A020E9498198091F8
:103B0000E10080FF19C08091E20080FF15C0809124
:103B1000E2008E7F8093E2008091E20080618093DA
:103B2000E2008091D80080628093D80019BC85E0C3
:103B300080932A020E94AA198091E10084FF2BC081
:103B40008091E20084FF27C080E189BD82E189BDC8
:103B500089B5982F917080FFFBCF8091D8008F7D21
:103B60008093D8008091E1008F7E8093E100809166
:103B7000E2008F7E8093E2008091E200816080937A
:103B8000E20080912602882309F449C084E08093F2
:103B90002A020E94AB198091E10083FF29C0809125
:103BA000E20083FF25C08091E100877F8093E100E0
:103BB00082E080932A02109226028091E1008E7F9B
:103BC0008093E1008091E2008E7F8093E2008091FB
:103BD000E20080618093E20042E060E080E00E94C9
:103BE000431C8091F00088608093F0000E94A91926
:103BF000FF91EF91BF91AF919F918F917F916F91C5
:103C00005F914F913F912F910F900FBE0F901F909A
:103C1000189519BC10922A020E94A61970CF8091A3
:103C2000E30087FD93E090932A02B3CF1F920F9297
:103C30000FB60F9211242F933F934F935F936F937F
:103C40007F938F939F93AF93BF93CF93DF93EF9324
:103C5000FF93D091E900DF708091EC00C82FC17014
:103C600080FDC0E81092E9008091F000877F80938A
:103C7000F00078940E945A1E1092E9008091F000A2
:103C800088608093F000CD2BCF70C093E900FF9146
:103C9000EF91DF91CF91BF91AF919F918F917F91E4
:103CA0006F915F914F913F912F910F900FBE0F90A9
:103CB0001F9018951F93CF93DF93CDB7DEB7AA97C8
:103CC0000FB6F894DEBF0FBECDBF8BE292E020911D
:103CD000F100FC012193CF01F2E083339F07B9F794
:103CE0000E94B7198091E80083FF1EC180912B02CA
:103CF00090912C029A3008F017C1E92FF0E0E158BA
:103D0000FF4D0C94DC1F803899F0823809F00CC10B
:103D100080912F028F70873008F006C18093E900F0
:103D20008091EB0085FB882780F91092E90006C09E
:103D30008091270290912802911182609091E80071
:103D4000977F9093E8008093F1001092F1008091AA
:103D5000E8008E77E5C0882309F4D3C0823009F0EB
:103D6000E3C080912D028111D6C080912F028F7007
:103D70002FEF280F263008F0D7C08093E90020915C
:103D8000EB0020FFC8C0933031F48091EB008062DB
:103D90008093EB00C0C09091EB0090619093EB009A
:103DA00021E030E001C0220F8A95EAF72093EA0073
:103DB0001092EA008091EB008860EACF8111B4C0D4
:103DC00010912D021F778091E3008078812B8093E2
:103DD000E3008091E800877F8093E8000E94771CD1
:103DE0008091E80080FFFCCF8091E30080688093A1
:103DF000E30082E0111183E080932A0295C080588D
:103E0000823008F091C080912D0290912E028C3D5D
:103E100023E09207A1F583E08A838AE289834FB782
:103E2000F894DE01139620E03EE051E2E32FF0E04B
:103E300050935700E49120FF03C0E295EF703F5F7D
:103E4000EF708E2F90E0EA30C0F0C7968D939D936F
:103E50002F5F243159F74FBF8091E800877F80930F
:103E6000E8006AE270E0CE0101960E94861B809114
:103E7000E8008B778093E80057C0C096E7CF609149
:103E80002F0270913002AE014F5F5F4F0E94A91A5E
:103E9000BC01892B09F448C09091E800977F90936A
:103EA000E80089819A810E94E41BE1CF8038E1F526
:103EB0008091E800877F8093E800809126028093BC
:103EC000F10045CF811130C090912D02923060F504
:103ED0008091E800877F8093E800909326020E94FB
:103EE000771C80912602882311F084E005C0809120
:103EF000E30087FDFACF81E080932A020E94AD198A
:103F000013C080912D02813079F481E0933009F063
:103F100080E0809328021092E9008091E800877F7A
:103F20008093E8000E94771C8091E80083FF0AC01C
:103F30008091E800877F8093E8008091EB008062A9
:103F40008093EB00AA960FB6F894DEBF0FBECDBFEC
:103F5000DF91CF911F9108950895CF9380912A0208
:103F60008823A1F0C091E900CF709091EC00892FD7
:103F7000817090FD80E8C82B1092E9008091E800E4
:103F800083FD0E945A1ECF70C093E900CF9108951F
:103F900097FB072E16F4009407D077FD09D00E94F6
:103FA000E21F07FC05D03EF4909581959F4F089540
:103FB000709561957F4F0895EE0FFF1F0590F49166
:103FC000E02D0994AA1BBB1B51E107C0AA1FBB1F10
:103FD000A617B70710F0A61BB70B881F991F5A9595
:103FE000A9F780959095BC01CD010895F999FECF70
:103FF00092BD81BDF89A992780B50895A8E1B0E0F7
:1040000042E050E00C942A20262FF999FECF92BD71
:1040100081BDF89A019700B4021639F01FBA20BD8D
:104020000FB6F894FA9AF99A0FBE08950396272FBF
:104030000E9405200E940420252F0E940520242F85
:104040000C9405200196272F0E9405200C94042033
:10405000DC01CB01FC01F999FECF06C0F2BDE1BD48
:10406000F89A319600B40D9241505040B8F7089537
:10407000F894FFCF0A0316031A031E032203260334
:104080002A032E03320336033A033E034203460358
:104090004A034E0352035603830A830AE20AE20AE2
:1040A000290B450BB00AB00A870BB00A1F0C1F0C76
:1040B0008A0CB00AB00A930C290C290C290C290C83
:1040C000290C290C290C290C290C290C290C290C48
:1040D000290C290C290C290C360C440C4B0C520CC5
:1040E0005C0CF60CF60CFF0CFF0C010DFF0CFF0C2A
:1040F000FF0CF60CF60C060DFF0CFF0C060D831ED4
:10410000AB1E941FAB1E941FDE1EFF1E941F561F76
:02411000621F2C
:10411200CC012808140A321EB31852192719F118B3
:10412200B61801F0F1C66766379431303534979688
:0841320033F490919293950083
:0200000400807A
:0402330000000000C7
:00000001FF
